{
  "contractName": "Auction",
  "abi": [
    {
      "anonymous": false,
      "inputs": [
        {
          "indexed": false,
          "internalType": "string",
          "name": "name",
          "type": "string"
        },
        {
          "indexed": false,
          "internalType": "string",
          "name": "description",
          "type": "string"
        },
        {
          "indexed": false,
          "internalType": "uint256",
          "name": "startingPrice",
          "type": "uint256"
        },
        {
          "indexed": false,
          "internalType": "uint256",
          "name": "auctionDuration",
          "type": "uint256"
        },
        {
          "indexed": false,
          "internalType": "uint256",
          "name": "minIncrement",
          "type": "uint256"
        },
        {
          "indexed": false,
          "internalType": "uint256",
          "name": "auctionStart",
          "type": "uint256"
        },
        {
          "indexed": false,
          "internalType": "uint256",
          "name": "auctionEnd",
          "type": "uint256"
        },
        {
          "indexed": false,
          "internalType": "enum Auction.auctionState",
          "name": "state",
          "type": "uint8"
        }
      ],
      "name": "AuctionDetailsEvent",
      "type": "event"
    },
    {
      "anonymous": false,
      "inputs": [
        {
          "indexed": false,
          "internalType": "string",
          "name": "message",
          "type": "string"
        },
        {
          "indexed": false,
          "internalType": "string",
          "name": "name",
          "type": "string"
        },
        {
          "indexed": false,
          "internalType": "string",
          "name": "description",
          "type": "string"
        },
        {
          "indexed": false,
          "internalType": "uint256",
          "name": "auctionEnd",
          "type": "uint256"
        },
        {
          "indexed": false,
          "internalType": "enum Auction.auctionState",
          "name": "state",
          "type": "uint8"
        }
      ],
      "name": "AuctionOverEvent",
      "type": "event"
    },
    {
      "anonymous": false,
      "inputs": [
        {
          "indexed": true,
          "internalType": "address",
          "name": "highestBidder",
          "type": "address"
        },
        {
          "indexed": false,
          "internalType": "uint256",
          "name": "highestBid",
          "type": "uint256"
        },
        {
          "indexed": false,
          "internalType": "address",
          "name": "sender",
          "type": "address"
        }
      ],
      "name": "BidEvent",
      "type": "event"
    },
    {
      "anonymous": false,
      "inputs": [
        {
          "indexed": false,
          "internalType": "string",
          "name": "message",
          "type": "string"
        },
        {
          "indexed": false,
          "internalType": "uint256",
          "name": "bid",
          "type": "uint256"
        },
        {
          "indexed": false,
          "internalType": "address",
          "name": "sender",
          "type": "address"
        }
      ],
      "name": "BidderWithdrawsEvent",
      "type": "event"
    },
    {
      "anonymous": false,
      "inputs": [
        {
          "indexed": false,
          "internalType": "string",
          "name": "message",
          "type": "string"
        },
        {
          "indexed": false,
          "internalType": "address payable",
          "name": "owner",
          "type": "address"
        },
        {
          "indexed": false,
          "internalType": "uint256",
          "name": "time",
          "type": "uint256"
        }
      ],
      "name": "CreatedEvent",
      "type": "event"
    },
    {
      "anonymous": false,
      "inputs": [
        {
          "indexed": false,
          "internalType": "string",
          "name": "message",
          "type": "string"
        },
        {
          "indexed": false,
          "internalType": "address",
          "name": "sender",
          "type": "address"
        }
      ],
      "name": "HighestBidderEvent",
      "type": "event"
    },
    {
      "anonymous": false,
      "inputs": [
        {
          "indexed": false,
          "internalType": "string",
          "name": "message",
          "type": "string"
        },
        {
          "indexed": false,
          "internalType": "uint256",
          "name": "highestBid",
          "type": "uint256"
        },
        {
          "indexed": false,
          "internalType": "address",
          "name": "sender",
          "type": "address"
        }
      ],
      "name": "ProviderWithdrawsEvent",
      "type": "event"
    },
    {
      "inputs": [],
      "name": "STATE",
      "outputs": [
        {
          "internalType": "enum Auction.auctionState",
          "name": "",
          "type": "uint8"
        }
      ],
      "stateMutability": "view",
      "type": "function",
      "constant": true
    },
    {
      "inputs": [],
      "name": "auctionEnd",
      "outputs": [
        {
          "internalType": "uint256",
          "name": "",
          "type": "uint256"
        }
      ],
      "stateMutability": "view",
      "type": "function",
      "constant": true
    },
    {
      "inputs": [],
      "name": "auctionStart",
      "outputs": [
        {
          "internalType": "uint256",
          "name": "",
          "type": "uint256"
        }
      ],
      "stateMutability": "view",
      "type": "function",
      "constant": true
    },
    {
      "inputs": [
        {
          "internalType": "address",
          "name": "",
          "type": "address"
        }
      ],
      "name": "bids",
      "outputs": [
        {
          "internalType": "uint256",
          "name": "",
          "type": "uint256"
        }
      ],
      "stateMutability": "view",
      "type": "function",
      "constant": true
    },
    {
      "inputs": [],
      "name": "ended",
      "outputs": [
        {
          "internalType": "bool",
          "name": "",
          "type": "bool"
        }
      ],
      "stateMutability": "view",
      "type": "function",
      "constant": true
    },
    {
      "inputs": [],
      "name": "highestBid",
      "outputs": [
        {
          "internalType": "uint256",
          "name": "",
          "type": "uint256"
        }
      ],
      "stateMutability": "view",
      "type": "function",
      "constant": true
    },
    {
      "inputs": [],
      "name": "highestBidder",
      "outputs": [
        {
          "internalType": "address payable",
          "name": "",
          "type": "address"
        }
      ],
      "stateMutability": "view",
      "type": "function",
      "constant": true
    },
    {
      "inputs": [],
      "name": "myNewAuction",
      "outputs": [
        {
          "internalType": "address payable",
          "name": "owner",
          "type": "address"
        },
        {
          "internalType": "string",
          "name": "name",
          "type": "string"
        },
        {
          "internalType": "string",
          "name": "description",
          "type": "string"
        },
        {
          "internalType": "uint256",
          "name": "startingPrice",
          "type": "uint256"
        },
        {
          "internalType": "uint256",
          "name": "auctionDuration",
          "type": "uint256"
        },
        {
          "internalType": "uint256",
          "name": "minIncrement",
          "type": "uint256"
        }
      ],
      "stateMutability": "view",
      "type": "function",
      "constant": true
    },
    {
      "inputs": [],
      "name": "oneWei",
      "outputs": [
        {
          "internalType": "uint256",
          "name": "",
          "type": "uint256"
        }
      ],
      "stateMutability": "view",
      "type": "function",
      "constant": true
    },
    {
      "inputs": [],
      "name": "bid",
      "outputs": [
        {
          "internalType": "bool",
          "name": "",
          "type": "bool"
        }
      ],
      "stateMutability": "payable",
      "type": "function",
      "payable": true
    },
    {
      "inputs": [],
      "name": "withdrawWinnings",
      "outputs": [
        {
          "internalType": "bool",
          "name": "",
          "type": "bool"
        }
      ],
      "stateMutability": "nonpayable",
      "type": "function"
    },
    {
      "inputs": [],
      "name": "withdrawBid",
      "outputs": [
        {
          "internalType": "bool",
          "name": "",
          "type": "bool"
        }
      ],
      "stateMutability": "payable",
      "type": "function",
      "payable": true
    },
    {
      "inputs": [],
      "name": "getHighestBidder",
      "outputs": [
        {
          "internalType": "address",
          "name": "",
          "type": "address"
        }
      ],
      "stateMutability": "payable",
      "type": "function",
      "payable": true
    },
    {
      "inputs": [],
      "name": "showSender",
      "outputs": [
        {
          "internalType": "address",
          "name": "",
          "type": "address"
        }
      ],
      "stateMutability": "nonpayable",
      "type": "function"
    },
    {
      "inputs": [],
      "name": "returnTime",
      "outputs": [
        {
          "internalType": "uint256",
          "name": "",
          "type": "uint256"
        }
      ],
      "stateMutability": "nonpayable",
      "type": "function"
    },
    {
      "inputs": [],
      "name": "returnContents",
      "outputs": [
        {
          "internalType": "address",
          "name": "",
          "type": "address"
        },
        {
          "internalType": "string",
          "name": "",
          "type": "string"
        },
        {
          "internalType": "string",
          "name": "",
          "type": "string"
        },
        {
          "internalType": "uint256",
          "name": "",
          "type": "uint256"
        },
        {
          "internalType": "uint256",
          "name": "",
          "type": "uint256"
        },
        {
          "internalType": "uint256",
          "name": "",
          "type": "uint256"
        },
        {
          "internalType": "uint256",
          "name": "",
          "type": "uint256"
        },
        {
          "internalType": "enum Auction.auctionState",
          "name": "",
          "type": "uint8"
        }
      ],
      "stateMutability": "nonpayable",
      "type": "function"
    }
  ],
  "bytecode": "0x6080604052670de0b6b3a764000060045534801561001c57600080fd5b506109c68061002c6000396000f3fe6080604052600436106100f25760003560e01c806362ea82db1161008a578063c486456c11610059578063c486456c146102eb578063c8287b5814610316578063cc42e83a14610348578063d57bde7914610373576100f2565b806362ea82db1461022d57806391f901571461026a5780639856836614610295578063a4d64ff4146102c0576100f2565b80632a24f46c116100c65780632a24f46c1461018e57806337271cc7146101b95780634f245ef7146101d75780634fb2e0be14610202576100f2565b80623495a4146100f757806303386bcd1461011557806312fa6feb146101455780631998aeef14610170575b600080fd5b6100ff61039e565b60405161010c91906105ea565b60405180910390f35b34801561012157600080fd5b5061012a6103a3565b60405161013c969594939291906106d8565b60405180910390f35b34801561015157600080fd5b5061015a6104fd565b6040516101679190610762565b60405180910390f35b610178610510565b6040516101859190610762565b60405180910390f35b34801561019a57600080fd5b506101a3610515565b6040516101b0919061077d565b60405180910390f35b6101c161051b565b6040516101ce9190610762565b60405180910390f35b3480156101e357600080fd5b506101ec610520565b6040516101f9919061077d565b60405180910390f35b34801561020e57600080fd5b50610217610526565b604051610224919061077d565b60405180910390f35b34801561023957600080fd5b50610254600480360381019061024f91906107c9565b61052c565b604051610261919061077d565b60405180910390f35b34801561027657600080fd5b5061027f610544565b60405161028c91906107f6565b60405180910390f35b3480156102a157600080fd5b506102aa61056a565b6040516102b7919061077d565b60405180910390f35b3480156102cc57600080fd5b506102d561056f565b6040516102e291906105ea565b60405180910390f35b3480156102f757600080fd5b50610300610574565b60405161030d9190610888565b60405180910390f35b34801561032257600080fd5b5061032b610587565b60405161033f9897969594939291906108a3565b60405180910390f35b34801561035457600080fd5b5061035d61059e565b60405161036a9190610762565b60405180910390f35b34801561037f57600080fd5b506103886105a3565b604051610395919061077d565b60405180910390f35b600090565b600b8060000160009054906101000a900473ffffffffffffffffffffffffffffffffffffffff16908060010180546103da9061095e565b80601f01602080910402602001604051908101604052809291908181526020018280546104069061095e565b80156104535780601f1061042857610100808354040283529160200191610453565b820191906000526020600020905b81548152906001019060200180831161043657829003601f168201915b5050505050908060020180546104689061095e565b80601f01602080910402602001604051908101604052809291908181526020018280546104949061095e565b80156104e15780601f106104b6576101008083540402835291602001916104e1565b820191906000526020600020905b8154815290600101906020018083116104c457829003601f168201915b5050505050908060030154908060040154908060050154905086565b600360009054906101000a900460ff1681565b600090565b60025481565b600090565b60015481565b60045481565b60096020528060005260406000206000915090505481565b600660009054906101000a900473ffffffffffffffffffffffffffffffffffffffff1681565b600090565b600090565b600a60009054906101000a900460ff1681565b600060608060008060008060009091929394959697565b600090565b60055481565b600073ffffffffffffffffffffffffffffffffffffffff82169050919050565b60006105d4826105a9565b9050919050565b6105e4816105c9565b82525050565b60006020820190506105ff60008301846105db565b92915050565b6000610610826105a9565b9050919050565b61062081610605565b82525050565b600081519050919050565b600082825260208201905092915050565b60005b83811015610660578082015181840152602081019050610645565b8381111561066f576000848401525b50505050565b6000601f19601f8301169050919050565b600061069182610626565b61069b8185610631565b93506106ab818560208601610642565b6106b481610675565b840191505092915050565b6000819050919050565b6106d2816106bf565b82525050565b600060c0820190506106ed6000830189610617565b81810360208301526106ff8188610686565b905081810360408301526107138187610686565b905061072260608301866106c9565b61072f60808301856106c9565b61073c60a08301846106c9565b979650505050505050565b60008115159050919050565b61075c81610747565b82525050565b60006020820190506107776000830184610753565b92915050565b600060208201905061079260008301846106c9565b92915050565b600080fd5b6107a6816105c9565b81146107b157600080fd5b50565b6000813590506107c38161079d565b92915050565b6000602082840312156107df576107de610798565b5b60006107ed848285016107b4565b91505092915050565b600060208201905061080b6000830184610617565b92915050565b7f4e487b7100000000000000000000000000000000000000000000000000000000600052602160045260246000fd5b6004811061085157610850610811565b5b50565b600081905061086282610840565b919050565b600061087282610854565b9050919050565b61088281610867565b82525050565b600060208201905061089d6000830184610879565b92915050565b6000610100820190506108b9600083018b6105db565b81810360208301526108cb818a610686565b905081810360408301526108df8189610686565b90506108ee60608301886106c9565b6108fb60808301876106c9565b61090860a08301866106c9565b61091560c08301856106c9565b61092260e0830184610879565b9998505050505050505050565b7f4e487b7100000000000000000000000000000000000000000000000000000000600052602260045260246000fd5b6000600282049050600182168061097657607f821691505b6020821081141561098a5761098961092f565b5b5091905056fea26469706673582212205685cbd89c8815ed1ac8c8d43c195a1963bf8714b18f3669d177abe995b02f4964736f6c634300080b0033",
  "immutableReferences": {},
  "source": "// SPDX-License-Identifier: MIT\r\npragma solidity >=0.4.22 <=0.8.11;\r\n\r\ncontract Auction {\r\n    address payable internal auctionOwner; // Owner of the auctoin\r\n    uint256 public auctionStart; // Start epoch time\r\n    uint256 public auctionEnd; // End epoch time\r\n    bool public ended;\r\n\r\n    uint256 public oneWei = 1000000000000000000;\r\n    uint256 public highestBid; // Highest amount bid in Eth\r\n    address payable public highestBidder; // Highest bidder\r\n\r\n    address payable recipient;\r\n\r\n    address[] bidders; // Array of bidders\r\n    mapping(address => uint256) public bids; // Mapping matching the address of bidder with their total bid\r\n\r\n    enum auctionState {STARTED, OVER, FINALISED, CANCELLED}\r\n    auctionState public STATE; // Auction state (STARTED)\r\n\r\n    struct NewAuction {\r\n        address payable owner;\r\n        string name;\r\n        string description;\r\n        uint256 startingPrice;\r\n        uint256 auctionDuration;\r\n        uint256 minIncrement;\r\n    }\r\n\r\n    NewAuction public myNewAuction;\r\n\r\n    /** \r\n        Modifiers\r\n        notOwner - Checks sender is not the owner of auction\r\n        validAuction - Checks if auction is still valid\r\n        validBid - Checks the bid is valid\r\n        withdrawWinChecks - Checks before a seller can withdraw highest bid\r\n        withdrawBidChecks - Checks before a bidder can withdraw their bid\r\n\r\n    */\r\n    modifier notOwner() {\r\n        require(\r\n            msg.sender != myNewAuction.owner,\r\n            \"You are the owner, you cannot bid on your item\"\r\n        );\r\n        _;\r\n    }\r\n\r\n    modifier validAuction() {\r\n        if (block.timestamp >= auctionEnd) {\r\n            STATE = auctionState.OVER;\r\n            emit AuctionOverEvent( \"This auction is over\",  myNewAuction.name, myNewAuction.description, auctionEnd, STATE);\r\n        }\r\n        require(STATE != auctionState.OVER, \"This auction is over!\");\r\n        _;\r\n    }\r\n\r\n    modifier validBid() {\r\n        require(\r\n            msg.value > myNewAuction.startingPrice * oneWei,\r\n            \"Bid has to be more than starting price\"\r\n        );\r\n        require(\r\n            msg.value > highestBid,\r\n            \"Bid has to be more than the highest bid\"\r\n        );\r\n        if (highestBid != 0) {\r\n            require(\r\n                (msg.value - highestBid) >= myNewAuction.minIncrement * oneWei,\r\n                \"Bid has to be more than the bid increment\"\r\n            );\r\n        } else {\r\n            require(\r\n                (msg.value - (myNewAuction.startingPrice * oneWei)) >=\r\n                    myNewAuction.minIncrement * oneWei,\r\n                \"Bid has to be more than the bid increment\"\r\n            );\r\n        }\r\n        _;\r\n    }\r\n\r\n    modifier withdrawWinChecks(){\r\n        require(block.timestamp > auctionEnd, \"This auction is not over!\"); \r\n        require(msg.sender ==  myNewAuction.owner, \"You are not the owner of the auction\"); \r\n        require(!ended, \"You have already withdrawn the highest bid.\");\r\n        _;\r\n    }\r\n\r\n    modifier withdrawBidChecks() {\r\n        require(msg.sender !=  myNewAuction.owner, \"Only bidders can perform this action\");\r\n        require(bids[msg.sender] > 0, \"There are no bids\");\r\n        _;\r\n    }\r\n\r\n    /**\r\n        Functions\r\n    */\r\n    function bid() public payable virtual returns (bool) {}\r\n    function withdrawWinnings () public virtual returns(bool) {}\r\n    function withdrawBid () public payable virtual returns(bool) {}\r\n    function getHighestBidder () public payable virtual returns (address) {}\r\n    function showSender() public virtual returns (address) {}\r\n    function returnTime() public virtual returns (uint256) {}\r\n    function returnContents() public virtual returns \r\n         (address, string memory, string memory, uint256, uint256, uint256, uint256, auctionState){}\r\n\r\n    \r\n    /**\r\n        Events\r\n    */\r\n    event CreatedEvent(string message, address payable owner, uint256 time);\r\n    event BidEvent(address indexed highestBidder, uint256 highestBid, address sender);\r\n    event AuctionDetailsEvent( string name,  string description, uint256 startingPrice, uint256 auctionDuration, \r\n                               uint256 minIncrement, uint256 auctionStart, uint256 auctionEnd, auctionState state);\r\n    event AuctionOverEvent( string message, string name, string description, uint256 auctionEnd, auctionState state);\r\n    event ProviderWithdrawsEvent(string message, uint256 highestBid, address sender);\r\n    event BidderWithdrawsEvent(string message, uint256 bid, address sender);\r\n    event HighestBidderEvent(string message, address sender);\r\n\r\n}\r\n\r\ncontract MyAuction is Auction {\r\n    constructor( address payable _owner, string memory _name, string memory _description, uint256 _startingPrice, uint256 _auctionDuration, uint256 _minIncrement) {\r\n        auctionOwner == _owner;\r\n\r\n        myNewAuction.owner = _owner;\r\n        myNewAuction.name = _name;\r\n        myNewAuction.description = _description;\r\n        myNewAuction.startingPrice = _startingPrice;\r\n        myNewAuction.auctionDuration = _auctionDuration;\r\n        myNewAuction.minIncrement = _minIncrement;\r\n\r\n        auctionStart = block.timestamp;\r\n        auctionEnd = auctionStart + (_auctionDuration * 3600);\r\n\r\n        STATE = auctionState.STARTED;\r\n        //emit CreatedEvent(\"Auction Created for: \" , auctionOwner , block.timestamp);\r\n        emit AuctionDetailsEvent(myNewAuction.name, myNewAuction.description,  myNewAuction.startingPrice, _auctionDuration,\r\n                                 myNewAuction.minIncrement, auctionStart, auctionEnd, STATE );\r\n    }\r\n\r\n    function bid() public payable override notOwner validAuction validBid returns (bool)\r\n    {\r\n        highestBidder = payable(msg.sender);\r\n        highestBid = msg.value;\r\n        bidders.push(msg.sender); // Add bidder's address to the array of participant\r\n        bids[msg.sender] = bids[msg.sender] + msg.value; // Update participant's bid in mapping bids\r\n        emit BidEvent(highestBidder, highestBid, msg.sender); // Announce new highest bid and bidder\r\n        return true; // Successful execution\r\n    }\r\n\r\n    function withdrawWinnings () public override withdrawWinChecks returns (bool)\r\n    {\r\n        ended = true;\r\n\r\n        recipient = myNewAuction.owner;\r\n        recipient.transfer(highestBid);\r\n\r\n        STATE = auctionState.FINALISED;\r\n        emit ProviderWithdrawsEvent(\"Provider withdraws: \", highestBid, msg.sender); // Announce winnings withdrawn\r\n        return true;\r\n    }\r\n\r\n    function withdrawBid() public payable override withdrawBidChecks returns (bool)\r\n    { \r\n        uint amount;\r\n        if (msg.sender == highestBidder){\r\n            recipient = highestBidder;\r\n            amount = bids[msg.sender] - highestBid;\r\n        }\r\n        else {\r\n            recipient = payable(msg.sender);\r\n            amount = bids[msg.sender];\r\n        }\r\n        bids[msg.sender] = 0;\r\n        payable(msg.sender).transfer(amount);\r\n        emit BidderWithdrawsEvent(\"Bidder withdraws bid: \", amount, msg.sender); // Announce bid withrawn\r\n        return true;\r\n    }\r\n\r\n    function getHighestBidder() public payable override returns(address)\r\n    {\r\n        emit HighestBidderEvent(\"The highest bidder and winner of the auction is\", highestBidder);\r\n        return highestBidder;     \r\n    }\r\n\r\n    function showSender() public view override returns (address) {\r\n        return (msg.sender);\r\n    }\r\n\r\n    function returnTime() public view override returns (uint256) {\r\n        return block.timestamp;\r\n    }\r\n\r\n    function returnContents() public view override\r\n        returns (address, string memory, string memory, uint256, uint256, uint256, uint256, auctionState)\r\n    {\r\n        return (myNewAuction.owner, myNewAuction.name, myNewAuction.description,  myNewAuction.startingPrice,\r\n                myNewAuction.auctionDuration, myNewAuction.minIncrement, auctionEnd, STATE );\r\n    }\r\n}\r\n",
  "sourcePath": "D:\\webdev projects\\flexibility\\ethereum-auction-app\\contracts\\Auction.sol",
  "compiler": {
    "name": "solc",
    "version": "0.8.11+commit.d7f03943.Emscripten.clang"
  },
  "schemaVersion": "3.4.4",
  "updatedAt": "2022-03-30T10:02:30.712Z",
  "networkType": "ethereum",
  "devdoc": {
    "kind": "dev",
    "methods": {},
    "version": 1
  },
  "userdoc": {
    "events": {
      "CreatedEvent(string,address,uint256)": {
        "notice": "Events"
      }
    },
    "kind": "user",
    "methods": {
      "bid()": {
        "notice": "Functions"
      }
    },
    "version": 1
  }
}