{
  "contractName": "Auction",
  "abi": [
    {
      "anonymous": false,
      "inputs": [
        {
          "indexed": false,
          "internalType": "string",
          "name": "name",
          "type": "string"
        },
        {
          "indexed": false,
          "internalType": "string",
          "name": "description",
          "type": "string"
        },
        {
          "indexed": false,
          "internalType": "uint256",
          "name": "startingPrice",
          "type": "uint256"
        },
        {
          "indexed": false,
          "internalType": "uint256",
          "name": "auctionDuration",
          "type": "uint256"
        },
        {
          "indexed": false,
          "internalType": "uint256",
          "name": "minIncrement",
          "type": "uint256"
        },
        {
          "indexed": false,
          "internalType": "uint256",
          "name": "auctionStart",
          "type": "uint256"
        },
        {
          "indexed": false,
          "internalType": "uint256",
          "name": "auctionEnd",
          "type": "uint256"
        },
        {
          "indexed": false,
          "internalType": "enum Auction.auctionState",
          "name": "state",
          "type": "uint8"
        }
      ],
      "name": "AuctionDetailsEvent",
      "type": "event"
    },
    {
      "anonymous": false,
      "inputs": [
        {
          "indexed": false,
          "internalType": "string",
          "name": "message",
          "type": "string"
        },
        {
          "indexed": false,
          "internalType": "string",
          "name": "name",
          "type": "string"
        },
        {
          "indexed": false,
          "internalType": "string",
          "name": "description",
          "type": "string"
        },
        {
          "indexed": false,
          "internalType": "uint256",
          "name": "auctionEnd",
          "type": "uint256"
        },
        {
          "indexed": false,
          "internalType": "enum Auction.auctionState",
          "name": "state",
          "type": "uint8"
        }
      ],
      "name": "AuctionOverEvent",
      "type": "event"
    },
    {
      "anonymous": false,
      "inputs": [
        {
          "indexed": true,
          "internalType": "address",
          "name": "highestBidder",
          "type": "address"
        },
        {
          "indexed": false,
          "internalType": "uint256",
          "name": "highestBid",
          "type": "uint256"
        },
        {
          "indexed": false,
          "internalType": "address",
          "name": "sender",
          "type": "address"
        }
      ],
      "name": "BidEvent",
      "type": "event"
    },
    {
      "anonymous": false,
      "inputs": [
        {
          "indexed": false,
          "internalType": "string",
          "name": "message",
          "type": "string"
        },
        {
          "indexed": false,
          "internalType": "uint256",
          "name": "bid",
          "type": "uint256"
        },
        {
          "indexed": false,
          "internalType": "address",
          "name": "sender",
          "type": "address"
        }
      ],
      "name": "BidderWithdrawsEvent",
      "type": "event"
    },
    {
      "anonymous": false,
      "inputs": [
        {
          "indexed": false,
          "internalType": "string",
          "name": "message",
          "type": "string"
        },
        {
          "indexed": false,
          "internalType": "address payable",
          "name": "owner",
          "type": "address"
        },
        {
          "indexed": false,
          "internalType": "uint256",
          "name": "time",
          "type": "uint256"
        }
      ],
      "name": "CreatedEvent",
      "type": "event"
    },
    {
      "anonymous": false,
      "inputs": [
        {
          "indexed": false,
          "internalType": "string",
          "name": "message",
          "type": "string"
        },
        {
          "indexed": false,
          "internalType": "address",
          "name": "sender",
          "type": "address"
        }
      ],
      "name": "HighestBidderEvent",
      "type": "event"
    },
    {
      "anonymous": false,
      "inputs": [
        {
          "indexed": false,
          "internalType": "string",
          "name": "message",
          "type": "string"
        },
        {
          "indexed": false,
          "internalType": "uint256",
          "name": "highestBid",
          "type": "uint256"
        },
        {
          "indexed": false,
          "internalType": "address",
          "name": "sender",
          "type": "address"
        }
      ],
      "name": "ProviderWithdrawsEvent",
      "type": "event"
    },
    {
      "inputs": [],
      "name": "STATE",
      "outputs": [
        {
          "internalType": "enum Auction.auctionState",
          "name": "",
          "type": "uint8"
        }
      ],
      "stateMutability": "view",
      "type": "function",
      "constant": true
    },
    {
      "inputs": [],
      "name": "auctionEnd",
      "outputs": [
        {
          "internalType": "uint256",
          "name": "",
          "type": "uint256"
        }
      ],
      "stateMutability": "view",
      "type": "function",
      "constant": true
    },
    {
      "inputs": [],
      "name": "auctionStart",
      "outputs": [
        {
          "internalType": "uint256",
          "name": "",
          "type": "uint256"
        }
      ],
      "stateMutability": "view",
      "type": "function",
      "constant": true
    },
    {
      "inputs": [
        {
          "internalType": "address",
          "name": "",
          "type": "address"
        }
      ],
      "name": "bids",
      "outputs": [
        {
          "internalType": "uint256",
          "name": "",
          "type": "uint256"
        }
      ],
      "stateMutability": "view",
      "type": "function",
      "constant": true
    },
    {
      "inputs": [],
      "name": "ended",
      "outputs": [
        {
          "internalType": "bool",
          "name": "",
          "type": "bool"
        }
      ],
      "stateMutability": "view",
      "type": "function",
      "constant": true
    },
    {
      "inputs": [],
      "name": "highestBid",
      "outputs": [
        {
          "internalType": "uint256",
          "name": "",
          "type": "uint256"
        }
      ],
      "stateMutability": "view",
      "type": "function",
      "constant": true
    },
    {
      "inputs": [],
      "name": "highestBidder",
      "outputs": [
        {
          "internalType": "address payable",
          "name": "",
          "type": "address"
        }
      ],
      "stateMutability": "view",
      "type": "function",
      "constant": true
    },
    {
      "inputs": [],
      "name": "myNewAuction",
      "outputs": [
        {
          "internalType": "address payable",
          "name": "owner",
          "type": "address"
        },
        {
          "internalType": "string",
          "name": "name",
          "type": "string"
        },
        {
          "internalType": "string",
          "name": "description",
          "type": "string"
        },
        {
          "internalType": "uint256",
          "name": "startingPrice",
          "type": "uint256"
        },
        {
          "internalType": "uint256",
          "name": "auctionDuration",
          "type": "uint256"
        },
        {
          "internalType": "uint256",
          "name": "minIncrement",
          "type": "uint256"
        }
      ],
      "stateMutability": "view",
      "type": "function",
      "constant": true
    },
    {
      "inputs": [],
      "name": "oneWei",
      "outputs": [
        {
          "internalType": "uint256",
          "name": "",
          "type": "uint256"
        }
      ],
      "stateMutability": "view",
      "type": "function",
      "constant": true
    },
    {
      "inputs": [],
      "name": "bid",
      "outputs": [
        {
          "internalType": "bool",
          "name": "",
          "type": "bool"
        }
      ],
      "stateMutability": "payable",
      "type": "function",
      "payable": true
    },
    {
      "inputs": [],
      "name": "withdrawWinnings",
      "outputs": [
        {
          "internalType": "bool",
          "name": "",
          "type": "bool"
        }
      ],
      "stateMutability": "nonpayable",
      "type": "function"
    },
    {
      "inputs": [],
      "name": "withdrawBid",
      "outputs": [
        {
          "internalType": "bool",
          "name": "",
          "type": "bool"
        }
      ],
      "stateMutability": "payable",
      "type": "function",
      "payable": true
    },
    {
      "inputs": [],
      "name": "getHighestBidder",
      "outputs": [
        {
          "internalType": "address",
          "name": "",
          "type": "address"
        }
      ],
      "stateMutability": "payable",
      "type": "function",
      "payable": true
    },
    {
      "inputs": [],
      "name": "showSender",
      "outputs": [
        {
          "internalType": "address",
          "name": "",
          "type": "address"
        }
      ],
      "stateMutability": "nonpayable",
      "type": "function"
    },
    {
      "inputs": [],
      "name": "returnTime",
      "outputs": [
        {
          "internalType": "uint256",
          "name": "",
          "type": "uint256"
        }
      ],
      "stateMutability": "nonpayable",
      "type": "function"
    },
    {
      "inputs": [],
      "name": "returnContents",
      "outputs": [
        {
          "internalType": "address",
          "name": "",
          "type": "address"
        },
        {
          "internalType": "string",
          "name": "",
          "type": "string"
        },
        {
          "internalType": "string",
          "name": "",
          "type": "string"
        },
        {
          "internalType": "uint256",
          "name": "",
          "type": "uint256"
        },
        {
          "internalType": "uint256",
          "name": "",
          "type": "uint256"
        },
        {
          "internalType": "uint256",
          "name": "",
          "type": "uint256"
        },
        {
          "internalType": "uint256",
          "name": "",
          "type": "uint256"
        },
        {
          "internalType": "enum Auction.auctionState",
          "name": "",
          "type": "uint8"
        }
      ],
      "stateMutability": "nonpayable",
      "type": "function"
    },
    {
      "inputs": [],
      "name": "transferHighestBid",
      "outputs": [
        {
          "internalType": "bool",
          "name": "",
          "type": "bool"
        }
      ],
      "stateMutability": "payable",
      "type": "function",
      "payable": true
    },
    {
      "inputs": [],
      "name": "refundBidders",
      "outputs": [
        {
          "internalType": "bool",
          "name": "",
          "type": "bool"
        }
      ],
      "stateMutability": "payable",
      "type": "function",
      "payable": true
    },
    {
      "inputs": [],
      "name": "setFinalised",
      "outputs": [
        {
          "internalType": "bool",
          "name": "",
          "type": "bool"
        }
      ],
      "stateMutability": "payable",
      "type": "function",
      "payable": true
    },
    {
      "inputs": [],
      "name": "returnState",
      "outputs": [
        {
          "internalType": "enum Auction.auctionState",
          "name": "",
          "type": "uint8"
        }
      ],
      "stateMutability": "nonpayable",
      "type": "function"
    }
  ],
  "bytecode": "0x6080604052670de0b6b3a764000060045534801561001c57600080fd5b50610b858061002c6000396000f3fe60806040526004361061011e5760003560e01c80634fb2e0be116100a0578063a4d64ff411610064578063a4d64ff414610371578063c486456c1461039c578063c8287b58146103c7578063cc42e83a146103f9578063d57bde79146104245761011e565b80634fb2e0be1461028857806358b45557146102b357806362ea82db146102de57806391f901571461031b57806398568366146103465761011e565b806323f4b3c8116100e757806323f4b3c8146101d85780632a24f46c146101f657806337271cc7146102215780634db838e01461023f5780634f245ef71461025d5761011e565b80623495a41461012357806303386bcd146101415780630d435b021461017157806312fa6feb1461018f5780631998aeef146101ba575b600080fd5b61012b61044f565b604051610138919061073d565b60405180910390f35b34801561014d57600080fd5b50610156610454565b6040516101689695949392919061082b565b60405180910390f35b6101796105ae565b60405161018691906108b5565b60405180910390f35b34801561019b57600080fd5b506101a46105fa565b6040516101b191906108b5565b60405180910390f35b6101c261060d565b6040516101cf91906108b5565b60405180910390f35b6101e0610612565b6040516101ed91906108b5565b60405180910390f35b34801561020257600080fd5b5061020b610617565b60405161021891906108d0565b60405180910390f35b61022961061d565b60405161023691906108b5565b60405180910390f35b610247610622565b60405161025491906108b5565b60405180910390f35b34801561026957600080fd5b5061027261066e565b60405161027f91906108d0565b60405180910390f35b34801561029457600080fd5b5061029d610674565b6040516102aa91906108d0565b60405180910390f35b3480156102bf57600080fd5b506102c861067a565b6040516102d59190610962565b60405180910390f35b3480156102ea57600080fd5b50610305600480360381019061030091906109ae565b61067f565b60405161031291906108d0565b60405180910390f35b34801561032757600080fd5b50610330610697565b60405161033d91906109db565b60405180910390f35b34801561035257600080fd5b5061035b6106bd565b60405161036891906108d0565b60405180910390f35b34801561037d57600080fd5b506103866106c2565b604051610393919061073d565b60405180910390f35b3480156103a857600080fd5b506103b16106c7565b6040516103be9190610962565b60405180910390f35b3480156103d357600080fd5b506103dc6106da565b6040516103f09897969594939291906109f6565b60405180910390f35b34801561040557600080fd5b5061040e6106f1565b60405161041b91906108b5565b60405180910390f35b34801561043057600080fd5b506104396106f6565b60405161044691906108d0565b60405180910390f35b600090565b600b8060000160009054906101000a900473ffffffffffffffffffffffffffffffffffffffff169080600101805461048b90610ab1565b80601f01602080910402602001604051908101604052809291908181526020018280546104b790610ab1565b80156105045780601f106104d957610100808354040283529160200191610504565b820191906000526020600020905b8154815290600101906020018083116104e757829003601f168201915b50505050509080600201805461051990610ab1565b80601f016020809104026020016040519081016040528092919081815260200182805461054590610ab1565b80156105925780601f1061056757610100808354040283529160200191610592565b820191906000526020600020905b81548152906001019060200180831161057557829003601f168201915b5050505050908060030154908060040154908060050154905086565b600080600880549050116105f7576040517f08c379a00000000000000000000000000000000000000000000000000000000081526004016105ee90610b2f565b60405180910390fd5b90565b600360009054906101000a900460ff1681565b600090565b600090565b60025481565b600090565b6000806008805490501161066b576040517f08c379a000000000000000000000000000000000000000000000000000000000815260040161066290610b2f565b60405180910390fd5b90565b60015481565b60045481565b600090565b60096020528060005260406000206000915090505481565b600660009054906101000a900473ffffffffffffffffffffffffffffffffffffffff1681565b600090565b600090565b600a60009054906101000a900460ff1681565b600060608060008060008060009091929394959697565b600090565b60055481565b600073ffffffffffffffffffffffffffffffffffffffff82169050919050565b6000610727826106fc565b9050919050565b6107378161071c565b82525050565b6000602082019050610752600083018461072e565b92915050565b6000610763826106fc565b9050919050565b61077381610758565b82525050565b600081519050919050565b600082825260208201905092915050565b60005b838110156107b3578082015181840152602081019050610798565b838111156107c2576000848401525b50505050565b6000601f19601f8301169050919050565b60006107e482610779565b6107ee8185610784565b93506107fe818560208601610795565b610807816107c8565b840191505092915050565b6000819050919050565b61082581610812565b82525050565b600060c082019050610840600083018961076a565b818103602083015261085281886107d9565b9050818103604083015261086681876107d9565b9050610875606083018661081c565b610882608083018561081c565b61088f60a083018461081c565b979650505050505050565b60008115159050919050565b6108af8161089a565b82525050565b60006020820190506108ca60008301846108a6565b92915050565b60006020820190506108e5600083018461081c565b92915050565b7f4e487b7100000000000000000000000000000000000000000000000000000000600052602160045260246000fd5b6004811061092b5761092a6108eb565b5b50565b600081905061093c8261091a565b919050565b600061094c8261092e565b9050919050565b61095c81610941565b82525050565b60006020820190506109776000830184610953565b92915050565b600080fd5b61098b8161071c565b811461099657600080fd5b50565b6000813590506109a881610982565b92915050565b6000602082840312156109c4576109c361097d565b5b60006109d284828501610999565b91505092915050565b60006020820190506109f0600083018461076a565b92915050565b600061010082019050610a0c600083018b61072e565b8181036020830152610a1e818a6107d9565b90508181036040830152610a3281896107d9565b9050610a41606083018861081c565b610a4e608083018761081c565b610a5b60a083018661081c565b610a6860c083018561081c565b610a7560e0830184610953565b9998505050505050505050565b7f4e487b7100000000000000000000000000000000000000000000000000000000600052602260045260246000fd5b60006002820490506001821680610ac957607f821691505b60208210811415610add57610adc610a82565b5b50919050565b7f7468657265206973206e6f206269646465727300000000000000000000000000600082015250565b6000610b19601383610784565b9150610b2482610ae3565b602082019050919050565b60006020820190508181036000830152610b4881610b0c565b905091905056fea26469706673582212207a9793ea2936243a09161ea5eb7f34826cf05ce9cb7620b0389458579f92041b64736f6c634300080b0033",
  "immutableReferences": {},
  "source": "// SPDX-License-Identifier: MIT\r\npragma solidity >=0.4.22 <=0.8.11;\r\n\r\ncontract Auction {\r\n    address payable internal auctionOwner; // Owner of the auctoin\r\n    uint256 public auctionStart; // Start epoch time\r\n    uint256 public auctionEnd; // End epoch time\r\n    bool public ended;\r\n\r\n    uint256 public oneWei = 1000000000000000000;\r\n    uint256 public highestBid; // Highest amount bid in Eth\r\n    address payable public  highestBidder; // Highest bidder\r\n\r\n    address payable recipient;\r\n\r\n    address[] bidders; // Array of bidders\r\n    mapping(address => uint256) public bids; // Mapping matching the address of bidder with their total bid\r\n\r\n    enum auctionState {STARTED, OVER, FINALISED, CANCELLED}\r\n    auctionState public STATE; // Auction state (STARTED)\r\n\r\n    struct NewAuction {\r\n        address payable owner;\r\n        string name;\r\n        string description;\r\n        uint256 startingPrice;\r\n        uint256 auctionDuration;\r\n        uint256 minIncrement;\r\n    }\r\n\r\n    NewAuction public myNewAuction;\r\n\r\n    /** \r\n        Modifiers\r\n        notOwner - Checks sender is not the owner of auction\r\n        validAuction - Checks if auction is still valid\r\n        validBid - Checks the bid is valid\r\n        withdrawWinChecks - Checks before a seller can withdraw highest bid\r\n        withdrawBidChecks - Checks before a bidder can withdraw their bid\r\n        auctionOver - Checks if auction is over\r\n\r\n    */\r\n    modifier notOwner() {\r\n        require(\r\n            msg.sender != myNewAuction.owner,\r\n            \"You are the owner, you cannot bid on your item\"\r\n        );\r\n        _;\r\n    }\r\n\r\n    modifier validAuction() {\r\n        if (block.timestamp >= auctionEnd) {\r\n            STATE = auctionState.OVER;\r\n            emit AuctionOverEvent( \"This auction is over\",  myNewAuction.name, myNewAuction.description, auctionEnd, STATE);\r\n        }\r\n        require(STATE != auctionState.OVER, \"This auction is over!\");\r\n        _;\r\n    }\r\n\r\n    modifier auctionBidders() {\r\n        require(bidders.length >0, \"there is no bidders\");\r\n        _;\r\n    }\r\n\r\n    modifier validBid() {\r\n        require(\r\n            msg.value > myNewAuction.startingPrice * oneWei,\r\n            \"Bid has to be more than starting price\"\r\n        );\r\n        require(\r\n            msg.value > highestBid,\r\n            \"Bid has to be more than the highest bid\"\r\n        );\r\n        if (highestBid != 0) {\r\n            require(\r\n                (msg.value - highestBid) >= myNewAuction.minIncrement * oneWei,\r\n                \"Bid has to be more than the bid increment\"\r\n            );\r\n        } else {\r\n            require(\r\n                (msg.value - (myNewAuction.startingPrice * oneWei)) >=\r\n                    myNewAuction.minIncrement * oneWei,\r\n                \"Bid has to be more than the bid increment\"\r\n            );\r\n        }\r\n        _;\r\n    }\r\n\r\n    modifier withdrawWinChecks(){\r\n        require(block.timestamp > auctionEnd, \"This auction is not over!\"); \r\n        require(msg.sender ==  myNewAuction.owner, \"You are not the owner of the auction\"); \r\n        require(!ended, \"You have already withdrawn the highest bid.\");\r\n        _;\r\n    }\r\n\r\n    modifier withdrawBidChecks() {\r\n        require(msg.sender !=  myNewAuction.owner, \"Only bidders can perform this action\");\r\n        require(bids[msg.sender] > 0, \"There are no bids\");\r\n        _;\r\n    }\r\n\r\n    /**\r\n        Functions\r\n    */\r\n    function bid() payable public virtual returns (bool) {}\r\n    function withdrawWinnings () public virtual returns(bool) {}\r\n    function withdrawBid () public payable virtual returns(bool) {}\r\n    function getHighestBidder () public payable virtual returns (address) {}\r\n    function showSender() public virtual returns (address) {}\r\n    function returnTime() public virtual returns (uint256) {}\r\n    function returnContents() public virtual returns \r\n         (address, string memory, string memory, uint256, uint256, uint256, uint256, auctionState){}\r\n    function transferHighestBid() payable public virtual auctionBidders returns(bool){}\r\n    function refundBidders() payable public virtual auctionBidders returns(bool){}\r\n    function setFinalised() payable public virtual returns(bool){}\r\n    function returnState() public virtual returns (auctionState) {}\r\n\r\n\r\n\r\n    \r\n    /**\r\n        Events\r\n    */\r\n    event CreatedEvent(string message, address payable owner, uint256 time);\r\n    event BidEvent(address indexed highestBidder, uint256 highestBid, address sender);\r\n    event AuctionDetailsEvent( string name,  string description, uint256 startingPrice, uint256 auctionDuration, \r\n                               uint256 minIncrement, uint256 auctionStart, uint256 auctionEnd, auctionState state);\r\n    event AuctionOverEvent( string message, string name, string description, uint256 auctionEnd, auctionState state);\r\n    event ProviderWithdrawsEvent(string message, uint256 highestBid, address sender);\r\n    event BidderWithdrawsEvent(string message, uint256 bid, address sender);\r\n    event HighestBidderEvent(string message, address sender);\r\n    \r\n}\r\n\r\ncontract MyAuction is Auction {\r\n    constructor( address payable _owner, string memory _name, string memory _description, uint256 _startingPrice, uint256 _auctionDuration, uint256 _minIncrement) {\r\n        auctionOwner == _owner;\r\n\r\n        myNewAuction.owner = _owner;\r\n        myNewAuction.name = _name;\r\n        myNewAuction.description = _description;\r\n        myNewAuction.startingPrice = _startingPrice;\r\n        myNewAuction.auctionDuration = _auctionDuration;\r\n        myNewAuction.minIncrement = _minIncrement;\r\n\r\n        auctionStart = block.timestamp;\r\n        auctionEnd = auctionStart + (_auctionDuration * 60);\r\n\r\n        STATE = auctionState.STARTED;\r\n        //emit CreatedEvent(\"Auction Created for: \" , auctionOwner , block.timestamp);\r\n        emit AuctionDetailsEvent(myNewAuction.name, myNewAuction.description,  myNewAuction.startingPrice, _auctionDuration,\r\n                                 myNewAuction.minIncrement, auctionStart, auctionEnd, STATE );\r\n    }\r\n\r\n    function bid() payable public override notOwner validAuction validBid returns (bool)\r\n    {\r\n        highestBidder = payable(msg.sender);\r\n        highestBid = msg.value;\r\n        bidders.push(msg.sender); // Add bidder's address to the array of participant\r\n        bids[msg.sender] = bids[msg.sender] + msg.value; // Update participant's bid in mapping bids\r\n        emit BidEvent(highestBidder, highestBid, msg.sender); // Announce new highest bid and bidder\r\n        return true; // Successful execution\r\n    }\r\n\r\n   /*function withdrawWinnings () public override withdrawWinChecks returns (bool)\r\n    {\r\n        ended = true;\r\n\r\n        recipient = myNewAuction.owner;\r\n        recipient.transfer(highestBid);\r\n\r\n        STATE = auctionState.FINALISED;\r\n        emit ProviderWithdrawsEvent(\"Provider withdraws: \", highestBid, msg.sender); // Announce winnings withdrawn\r\n        return true;\r\n    }*/\r\n\r\n    /*function withdrawBid() public payable override withdrawBidChecks returns (bool)\r\n    { \r\n        uint amount;\r\n        if (msg.sender == highestBidder){\r\n            recipient = highestBidder;\r\n            amount = bids[msg.sender] - highestBid;\r\n        }\r\n        else {\r\n            recipient = payable(msg.sender);\r\n            amount = bids[msg.sender];\r\n        }\r\n        bids[msg.sender] = 0;\r\n        payable(msg.sender).transfer(amount);\r\n        emit BidderWithdrawsEvent(\"Bidder withdraws bid: \", amount, msg.sender); // Announce bid withrawn\r\n        return true;\r\n    }*/\r\n\r\n    function getHighestBidder() public payable override returns(address)\r\n    {\r\n        emit HighestBidderEvent(\"The highest bidder and winner of the auction is\", highestBidder);\r\n        return highestBidder;     \r\n    }\r\n\r\n    function showSender() public view override returns (address) {\r\n        return (msg.sender);\r\n    }\r\n\r\n    function returnTime() public view override returns (uint256) {\r\n        return block.timestamp;\r\n    }\r\n\r\n    function returnContents() public view override\r\n        returns (address, string memory, string memory, uint256, uint256, uint256, uint256, auctionState)\r\n    {\r\n        return (myNewAuction.owner, myNewAuction.name, myNewAuction.description,  myNewAuction.startingPrice,\r\n                myNewAuction.auctionDuration, myNewAuction.minIncrement, auctionEnd, STATE );\r\n    }\r\n\r\n    function returnSenderBid(address _sender) public view returns(uint256){\r\n        return bids[_sender];\r\n    }\r\n\r\n    function transferHighestBid() payable public virtual override auctionBidders returns(bool){\r\n       \r\n        /*transfer highest bid to auction owner*/\r\n        ended = true;\r\n        \r\n        recipient = myNewAuction.owner;\r\n        recipient.transfer(highestBid);\r\n        STATE=auctionState.OVER;\r\n        emit ProviderWithdrawsEvent(\"Provider withdraws: \", highestBid, msg.sender); // Announce winnings withdrawn\r\n        return true;\r\n\r\n    }\r\n\r\n    function refundBidders() payable public virtual override auctionBidders returns(bool){\r\n         /*refund bidders*/\r\n        if (bidders.length> 1) {\r\n            for (uint256 i = 0; i < bidders.length - 1; i++) {\r\n                recipient = payable(bidders[i]);\r\n                recipient.transfer(\r\n                    bids[bidders[i]]\r\n                );\r\n            }\r\n        }\r\n        return true;\r\n    }\r\n\r\n    function setFinalised() payable public virtual override auctionBidders returns(bool){\r\n        STATE = auctionState.FINALISED;\r\n        return true;\r\n    }\r\n\r\n    function returnState() public view override returns (auctionState) {\r\n        return STATE;\r\n    }\r\n\r\n\r\n}\r\n",
  "sourcePath": "D:\\webdev projects\\flexibility\\ethereum-auction-app\\contracts\\Auction.sol",
  "compiler": {
    "name": "solc",
    "version": "0.8.11+commit.d7f03943.Emscripten.clang"
  },
  "schemaVersion": "3.4.4",
  "updatedAt": "2022-04-27T14:14:03.434Z",
  "networkType": "ethereum",
  "devdoc": {
    "kind": "dev",
    "methods": {},
    "version": 1
  },
  "userdoc": {
    "events": {
      "CreatedEvent(string,address,uint256)": {
        "notice": "Events"
      }
    },
    "kind": "user",
    "methods": {
      "bid()": {
        "notice": "Functions"
      }
    },
    "version": 1
  }
}