{
  "contractName": "AuctionList",
  "abi": [
    {
      "inputs": [
        {
          "internalType": "uint256",
          "name": "",
          "type": "uint256"
        }
      ],
      "name": "auctions",
      "outputs": [
        {
          "internalType": "contract MyAuction",
          "name": "",
          "type": "address"
        }
      ],
      "stateMutability": "view",
      "type": "function",
      "constant": true
    },
    {
      "inputs": [],
      "name": "newDetails",
      "outputs": [
        {
          "internalType": "address payable",
          "name": "owner",
          "type": "address"
        },
        {
          "internalType": "string",
          "name": "name",
          "type": "string"
        },
        {
          "internalType": "string",
          "name": "description",
          "type": "string"
        },
        {
          "internalType": "uint256",
          "name": "startingPrice",
          "type": "uint256"
        },
        {
          "internalType": "uint256",
          "name": "auctionDuration",
          "type": "uint256"
        },
        {
          "internalType": "uint256",
          "name": "minIncrement",
          "type": "uint256"
        },
        {
          "internalType": "string",
          "name": "ipfsHash",
          "type": "string"
        }
      ],
      "stateMutability": "view",
      "type": "function",
      "constant": true
    },
    {
      "inputs": [
        {
          "internalType": "address payable",
          "name": "_owner",
          "type": "address"
        },
        {
          "internalType": "string",
          "name": "_name",
          "type": "string"
        },
        {
          "internalType": "string",
          "name": "_description",
          "type": "string"
        },
        {
          "internalType": "uint256",
          "name": "_startingPrice",
          "type": "uint256"
        },
        {
          "internalType": "uint256",
          "name": "_auctionDuration",
          "type": "uint256"
        },
        {
          "internalType": "uint256",
          "name": "_minIncrement",
          "type": "uint256"
        },
        {
          "internalType": "string",
          "name": "_ipfsHash",
          "type": "string"
        }
      ],
      "name": "createAuctions",
      "outputs": [],
      "stateMutability": "payable",
      "type": "function",
      "payable": true
    },
    {
      "inputs": [],
      "name": "getAllAuctions",
      "outputs": [
        {
          "internalType": "contract MyAuction[]",
          "name": "",
          "type": "address[]"
        }
      ],
      "stateMutability": "view",
      "type": "function",
      "constant": true
    },
    {
      "inputs": [],
      "name": "getAllAuctionDetails",
      "outputs": [
        {
          "components": [
            {
              "internalType": "address payable",
              "name": "owner",
              "type": "address"
            },
            {
              "internalType": "string",
              "name": "name",
              "type": "string"
            },
            {
              "internalType": "string",
              "name": "description",
              "type": "string"
            },
            {
              "internalType": "uint256",
              "name": "startingPrice",
              "type": "uint256"
            },
            {
              "internalType": "uint256",
              "name": "auctionDuration",
              "type": "uint256"
            },
            {
              "internalType": "uint256",
              "name": "minIncrement",
              "type": "uint256"
            },
            {
              "internalType": "string",
              "name": "ipfsHash",
              "type": "string"
            }
          ],
          "internalType": "struct AuctionList.Details[]",
          "name": "",
          "type": "tuple[]"
        }
      ],
      "stateMutability": "view",
      "type": "function",
      "constant": true
    }
  ],
  "bytecode": "0x608060405234801561001057600080fd5b50613b45806100206000396000f3fe608060405260043610620000505760003560e01c806348bd86041462000055578063571a26a01462000085578063a3d8e9fd14620000c9578063bbd22aec14620000e9578063cbd2bdfd146200011f575b600080fd5b3480156200006257600080fd5b506200006d6200014f565b6040516200007c919062000d2f565b60405180910390f35b3480156200009257600080fd5b50620000b16004803603810190620000ab919062000d98565b620003f2565b604051620000c0919062000e35565b60405180910390f35b620000e76004803603810190620000e1919062000fd4565b62000432565b005b348015620000f657600080fd5b5062000101620006bd565b60405162000116979695949392919062001158565b60405180910390f35b3480156200012c57600080fd5b5062000137620008bd565b604051620001469190620012b8565b60405180910390f35b60606008805480602002602001604051908101604052809291908181526020016000905b82821015620003e957838290600052602060002090600702016040518060e00160405290816000820160009054906101000a900473ffffffffffffffffffffffffffffffffffffffff1673ffffffffffffffffffffffffffffffffffffffff1673ffffffffffffffffffffffffffffffffffffffff168152602001600182018054620001ff906200130b565b80601f01602080910402602001604051908101604052809291908181526020018280546200022d906200130b565b80156200027e5780601f1062000252576101008083540402835291602001916200027e565b820191906000526020600020905b8154815290600101906020018083116200026057829003601f168201915b5050505050815260200160028201805462000299906200130b565b80601f0160208091040260200160405190810160405280929190818152602001828054620002c7906200130b565b8015620003185780601f10620002ec5761010080835404028352916020019162000318565b820191906000526020600020905b815481529060010190602001808311620002fa57829003601f168201915b5050505050815260200160038201548152602001600482015481526020016005820154815260200160068201805462000351906200130b565b80601f01602080910402602001604051908101604052809291908181526020018280546200037f906200130b565b8015620003d05780601f10620003a457610100808354040283529160200191620003d0565b820191906000526020600020905b815481529060010190602001808311620003b257829003601f168201915b5050505050815250508152602001906001019062000173565b50505050905090565b600081815481106200040357600080fd5b906000526020600020016000915054906101000a900473ffffffffffffffffffffffffffffffffffffffff1681565b60008787878787878760405162000449906200094d565b6200045b979695949392919062001158565b604051809103906000f08015801562000478573d6000803e3d6000fd5b50905087600160000160006101000a81548173ffffffffffffffffffffffffffffffffffffffff021916908373ffffffffffffffffffffffffffffffffffffffff16021790555086600180019080519060200190620004d99291906200095b565b508560016002019080519060200190620004f59291906200095b565b5084600160030181905550836001600401819055508260016005018190555081600160060190805190602001906200052f9291906200095b565b506008600190806001815401808255809150506001900390600052602060002090600702016000909190919091506000820160009054906101000a900473ffffffffffffffffffffffffffffffffffffffff168160000160006101000a81548173ffffffffffffffffffffffffffffffffffffffff021916908373ffffffffffffffffffffffffffffffffffffffff1602179055506001820181600101908054620005da906200130b565b620005e7929190620009ec565b506002820181600201908054620005fe906200130b565b6200060b929190620009ec565b50600382015481600301556004820154816004015560058201548160050155600682018160060190805462000640906200130b565b6200064d929190620009ec565b5050506000819080600181540180825580915050600190039060005260206000200160009091909190916101000a81548173ffffffffffffffffffffffffffffffffffffffff021916908373ffffffffffffffffffffffffffffffffffffffff1602179055505050505050505050565b60018060000160009054906101000a900473ffffffffffffffffffffffffffffffffffffffff1690806001018054620006f6906200130b565b80601f016020809104026020016040519081016040528092919081815260200182805462000724906200130b565b8015620007755780601f10620007495761010080835404028352916020019162000775565b820191906000526020600020905b8154815290600101906020018083116200075757829003601f168201915b5050505050908060020180546200078c906200130b565b80601f0160208091040260200160405190810160405280929190818152602001828054620007ba906200130b565b80156200080b5780601f10620007df576101008083540402835291602001916200080b565b820191906000526020600020905b815481529060010190602001808311620007ed57829003601f168201915b50505050509080600301549080600401549080600501549080600601805462000834906200130b565b80601f016020809104026020016040519081016040528092919081815260200182805462000862906200130b565b8015620008b35780601f106200088757610100808354040283529160200191620008b3565b820191906000526020600020905b8154815290600101906020018083116200089557829003601f168201915b5050505050905087565b606060008054806020026020016040519081016040528092919081815260200182805480156200094357602002820191906000526020600020905b8160009054906101000a900473ffffffffffffffffffffffffffffffffffffffff1673ffffffffffffffffffffffffffffffffffffffff1681526020019060010190808311620008f8575b5050505050905090565b6127ce806200134283390190565b82805462000969906200130b565b90600052602060002090601f0160209004810192826200098d5760008555620009d9565b82601f10620009a857805160ff1916838001178555620009d9565b82800160010185558215620009d9579182015b82811115620009d8578251825591602001919060010190620009bb565b5b509050620009e8919062000a84565b5090565b828054620009fa906200130b565b90600052602060002090601f01602090048101928262000a1e576000855562000a71565b82601f1062000a31578054855562000a71565b8280016001018555821562000a7157600052602060002091601f016020900482015b8281111562000a7057825482559160010191906001019062000a53565b5b50905062000a80919062000a84565b5090565b5b8082111562000a9f57600081600090555060010162000a85565b5090565b600081519050919050565b600082825260208201905092915050565b6000819050602082019050919050565b600073ffffffffffffffffffffffffffffffffffffffff82169050919050565b600062000afc8262000acf565b9050919050565b62000b0e8162000aef565b82525050565b600081519050919050565b600082825260208201905092915050565b60005b8381101562000b5057808201518184015260208101905062000b33565b8381111562000b60576000848401525b50505050565b6000601f19601f8301169050919050565b600062000b848262000b14565b62000b90818562000b1f565b935062000ba281856020860162000b30565b62000bad8162000b66565b840191505092915050565b6000819050919050565b62000bcd8162000bb8565b82525050565b600060e08301600083015162000bed600086018262000b03565b506020830151848203602086015262000c07828262000b77565b9150506040830151848203604086015262000c23828262000b77565b915050606083015162000c3a606086018262000bc2565b50608083015162000c4f608086018262000bc2565b5060a083015162000c6460a086018262000bc2565b5060c083015184820360c086015262000c7e828262000b77565b9150508091505092915050565b600062000c99838362000bd3565b905092915050565b6000602082019050919050565b600062000cbb8262000aa3565b62000cc7818562000aae565b93508360208202850162000cdb8562000abf565b8060005b8581101562000d1d578484038952815162000cfb858262000c8b565b945062000d088362000ca1565b925060208a0199505060018101905062000cdf565b50829750879550505050505092915050565b6000602082019050818103600083015262000d4b818462000cae565b905092915050565b6000604051905090565b600080fd5b600080fd5b62000d728162000bb8565b811462000d7e57600080fd5b50565b60008135905062000d928162000d67565b92915050565b60006020828403121562000db15762000db062000d5d565b5b600062000dc18482850162000d81565b91505092915050565b6000819050919050565b600062000df562000def62000de98462000acf565b62000dca565b62000acf565b9050919050565b600062000e098262000dd4565b9050919050565b600062000e1d8262000dfc565b9050919050565b62000e2f8162000e10565b82525050565b600060208201905062000e4c600083018462000e24565b92915050565b62000e5d8162000aef565b811462000e6957600080fd5b50565b60008135905062000e7d8162000e52565b92915050565b600080fd5b600080fd5b7f4e487b7100000000000000000000000000000000000000000000000000000000600052604160045260246000fd5b62000ec78262000b66565b810181811067ffffffffffffffff8211171562000ee95762000ee862000e8d565b5b80604052505050565b600062000efe62000d53565b905062000f0c828262000ebc565b919050565b600067ffffffffffffffff82111562000f2f5762000f2e62000e8d565b5b62000f3a8262000b66565b9050602081019050919050565b82818337600083830152505050565b600062000f6d62000f678462000f11565b62000ef2565b90508281526020810184848401111562000f8c5762000f8b62000e88565b5b62000f9984828562000f47565b509392505050565b600082601f83011262000fb95762000fb862000e83565b5b813562000fcb84826020860162000f56565b91505092915050565b600080600080600080600060e0888a03121562000ff65762000ff562000d5d565b5b6000620010068a828b0162000e6c565b975050602088013567ffffffffffffffff8111156200102a576200102962000d62565b5b620010388a828b0162000fa1565b965050604088013567ffffffffffffffff8111156200105c576200105b62000d62565b5b6200106a8a828b0162000fa1565b95505060606200107d8a828b0162000d81565b9450506080620010908a828b0162000d81565b93505060a0620010a38a828b0162000d81565b92505060c088013567ffffffffffffffff811115620010c757620010c662000d62565b5b620010d58a828b0162000fa1565b91505092959891949750929550565b620010ef8162000aef565b82525050565b600082825260208201905092915050565b6000620011138262000b14565b6200111f8185620010f5565b93506200113181856020860162000b30565b6200113c8162000b66565b840191505092915050565b620011528162000bb8565b82525050565b600060e0820190506200116f600083018a620010e4565b818103602083015262001183818962001106565b9050818103604083015262001199818862001106565b9050620011aa606083018762001147565b620011b9608083018662001147565b620011c860a083018562001147565b81810360c0830152620011dc818462001106565b905098975050505050505050565b600081519050919050565b600082825260208201905092915050565b6000819050602082019050919050565b620012218162000e10565b82525050565b600062001235838362001216565b60208301905092915050565b6000602082019050919050565b60006200125b82620011ea565b620012678185620011f5565b9350620012748362001206565b8060005b83811015620012ab5781516200128f888262001227565b97506200129c8362001241565b92505060018101905062001278565b5085935050505092915050565b60006020820190508181036000830152620012d481846200124e565b905092915050565b7f4e487b7100000000000000000000000000000000000000000000000000000000600052602260045260246000fd5b600060028204905060018216806200132457607f821691505b602082108114156200133b576200133a620012dc565b5b5091905056fe6080604052670de0b6b3a76400006004553480156200001d57600080fd5b50604051620027ce380380620027ce8339818101604052810190620000439190620004e2565b8673ffffffffffffffffffffffffffffffffffffffff1660008054906101000a9050505086600c60000160006101000a81548173ffffffffffffffffffffffffffffffffffffffff021916908373ffffffffffffffffffffffffffffffffffffffff16021790555085600c6001019080519060200190620000c6929190620001f5565b5084600c6002019080519060200190620000e2929190620001f5565b5083600c6003018190555082600c6004018190555081600c6005018190555080600c60060190805190602001906200011c929190620001f5565b5042600181905550603c8362000133919062000621565b60015462000142919062000682565b6002819055506000600a60006101000a81548160ff02191690836003811115620001715762000170620006df565b5b02179055507fe8bad1521b78eb4ddc7e00a6ab119eea905c7d3745ba792692779906fdb212ff600c600101600c600201600c6003015486600c60050154600c600601600154600254600a60009054906101000a900460ff16604051620001e09998979695949392919062000887565b60405180910390a1505050505050506200093b565b82805462000203906200073d565b90600052602060002090601f01602090048101928262000227576000855562000273565b82601f106200024257805160ff191683800117855562000273565b8280016001018555821562000273579182015b828111156200027257825182559160200191906001019062000255565b5b50905062000282919062000286565b5090565b5b80821115620002a157600081600090555060010162000287565b5090565b6000604051905090565b600080fd5b600080fd5b600073ffffffffffffffffffffffffffffffffffffffff82169050919050565b6000620002e682620002b9565b9050919050565b620002f881620002d9565b81146200030457600080fd5b50565b6000815190506200031881620002ed565b92915050565b600080fd5b600080fd5b6000601f19601f8301169050919050565b7f4e487b7100000000000000000000000000000000000000000000000000000000600052604160045260246000fd5b620003738262000328565b810181811067ffffffffffffffff8211171562000395576200039462000339565b5b80604052505050565b6000620003aa620002a5565b9050620003b8828262000368565b919050565b600067ffffffffffffffff821115620003db57620003da62000339565b5b620003e68262000328565b9050602081019050919050565b60005b8381101562000413578082015181840152602081019050620003f6565b8381111562000423576000848401525b50505050565b6000620004406200043a84620003bd565b6200039e565b9050828152602081018484840111156200045f576200045e62000323565b5b6200046c848285620003f3565b509392505050565b600082601f8301126200048c576200048b6200031e565b5b81516200049e84826020860162000429565b91505092915050565b6000819050919050565b620004bc81620004a7565b8114620004c857600080fd5b50565b600081519050620004dc81620004b1565b92915050565b600080600080600080600060e0888a031215620005045762000503620002af565b5b6000620005148a828b0162000307565b975050602088015167ffffffffffffffff811115620005385762000537620002b4565b5b620005468a828b0162000474565b965050604088015167ffffffffffffffff8111156200056a5762000569620002b4565b5b620005788a828b0162000474565b95505060606200058b8a828b01620004cb565b94505060806200059e8a828b01620004cb565b93505060a0620005b18a828b01620004cb565b92505060c088015167ffffffffffffffff811115620005d557620005d4620002b4565b5b620005e38a828b0162000474565b91505092959891949750929550565b7f4e487b7100000000000000000000000000000000000000000000000000000000600052601160045260246000fd5b60006200062e82620004a7565b91506200063b83620004a7565b9250817fffffffffffffffffffffffffffffffffffffffffffffffffffffffffffffffff0483118215151615620006775762000676620005f2565b5b828202905092915050565b60006200068f82620004a7565b91506200069c83620004a7565b9250827fffffffffffffffffffffffffffffffffffffffffffffffffffffffffffffffff03821115620006d457620006d3620005f2565b5b828201905092915050565b7f4e487b7100000000000000000000000000000000000000000000000000000000600052602160045260246000fd5b7f4e487b7100000000000000000000000000000000000000000000000000000000600052602260045260246000fd5b600060028204905060018216806200075657607f821691505b602082108114156200076d576200076c6200070e565b5b50919050565b600082825260208201905092915050565b60008190508160005260206000209050919050565b60008154620007a8816200073d565b620007b4818662000773565b94506001821660008114620007d25760018114620007e5576200081c565b60ff19831686526020860193506200081c565b620007f08562000784565b60005b838110156200081457815481890152600182019150602081019050620007f3565b808801955050505b50505092915050565b6200083081620004a7565b82525050565b600481106200084a5762000849620006df565b5b50565b60008190506200085d8262000836565b919050565b60006200086f826200084d565b9050919050565b620008818162000862565b82525050565b6000610120820190508181036000830152620008a4818c62000799565b90508181036020830152620008ba818b62000799565b9050620008cb604083018a62000825565b620008da606083018962000825565b620008e9608083018862000825565b81810360a0830152620008fd818762000799565b90506200090e60c083018662000825565b6200091d60e083018562000825565b6200092d61010083018462000876565b9a9950505050505050505050565b611e83806200094b6000396000f3fe6080604052600436106101295760003560e01c80634fb2e0be116100ab578063a4d64ff41161006f578063a4d64ff41461039c578063c486456c146103c7578063c8287b58146103f2578063cc42e83a14610424578063d57bde791461044f578063dc9638c71461047a57610129565b80634fb2e0be146102b357806358b45557146102de57806362ea82db1461030957806391f9015714610346578063985683661461037157610129565b80632a24f46c116100f25780632a24f46c146101e457806337271cc71461020f5780633b64b6311461022d5780634db838e01461026a5780634f245ef71461028857610129565b80623495a41461012e57806303386bcd1461014c5780630d435b021461017d57806312fa6feb1461019b5780631998aeef146101c6575b600080fd5b6101366104a5565b60405161014391906112ce565b60405180910390f35b34801561015857600080fd5b50610161610528565b60405161017497969594939291906113bc565b60405180910390f35b610185610710565b604051610192919061145b565b60405180910390f35b3480156101a757600080fd5b506101b0610904565b6040516101bd919061145b565b60405180910390f35b6101ce610917565b6040516101db919061145b565b60405180910390f35b3480156101f057600080fd5b506101f9610ddf565b6040516102069190611476565b60405180910390f35b610217610de5565b604051610224919061145b565b60405180910390f35b34801561023957600080fd5b50610254600480360381019061024f91906114c2565b610dea565b6040516102619190611476565b60405180910390f35b610272610e33565b60405161027f919061145b565b60405180910390f35b34801561029457600080fd5b5061029d610fd5565b6040516102aa9190611476565b60405180910390f35b3480156102bf57600080fd5b506102c8610fdb565b6040516102d59190611476565b60405180910390f35b3480156102ea57600080fd5b506102f3610fe1565b6040516103009190611566565b60405180910390f35b34801561031557600080fd5b50610330600480360381019061032b91906114c2565b610ff8565b60405161033d9190611476565b60405180910390f35b34801561035257600080fd5b5061035b611010565b6040516103689190611581565b60405180910390f35b34801561037d57600080fd5b50610386611036565b6040516103939190611476565b60405180910390f35b3480156103a857600080fd5b506103b161103e565b6040516103be91906112ce565b60405180910390f35b3480156103d357600080fd5b506103dc611046565b6040516103e99190611566565b60405180910390f35b3480156103fe57600080fd5b50610407611059565b60405161041b98979695949392919061159c565b60405180910390f35b34801561043057600080fd5b506104396111ed565b604051610446919061145b565b60405180910390f35b34801561045b57600080fd5b506104646111f2565b6040516104719190611476565b60405180910390f35b34801561048657600080fd5b5061048f6111f8565b60405161049c9190611628565b60405180910390f35b60007f15b39dff2f0be4462e5c293c854b95502e922294fe9accbe6f16d4d561ed02e6600660009054906101000a900473ffffffffffffffffffffffffffffffffffffffff166040516104f8919061171b565b60405180910390a1600660009054906101000a900473ffffffffffffffffffffffffffffffffffffffff16905090565b600c8060000160009054906101000a900473ffffffffffffffffffffffffffffffffffffffff169080600101805461055f90611778565b80601f016020809104026020016040519081016040528092919081815260200182805461058b90611778565b80156105d85780601f106105ad576101008083540402835291602001916105d8565b820191906000526020600020905b8154815290600101906020018083116105bb57829003601f168201915b5050505050908060020180546105ed90611778565b80601f016020809104026020016040519081016040528092919081815260200182805461061990611778565b80156106665780601f1061063b57610100808354040283529160200191610666565b820191906000526020600020905b81548152906001019060200180831161064957829003601f168201915b50505050509080600301549080600401549080600501549080600601805461068d90611778565b80601f01602080910402602001604051908101604052809291908181526020018280546106b990611778565b80156107065780601f106106db57610100808354040283529160200191610706565b820191906000526020600020905b8154815290600101906020018083116106e957829003601f168201915b5050505050905087565b60008060088054905011610759576040517f08c379a0000000000000000000000000000000000000000000000000000000008152600401610750906117f6565b60405180910390fd5b600160088054905011156108fd5760005b600160088054905061077c9190611845565b8110156108fb576008818154811061079757610796611879565b5b9060005260206000200160009054906101000a900473ffffffffffffffffffffffffffffffffffffffff16600760006101000a81548173ffffffffffffffffffffffffffffffffffffffff021916908373ffffffffffffffffffffffffffffffffffffffff160217905550600760009054906101000a900473ffffffffffffffffffffffffffffffffffffffff1673ffffffffffffffffffffffffffffffffffffffff166108fc600960006008858154811061085657610855611879565b5b9060005260206000200160009054906101000a900473ffffffffffffffffffffffffffffffffffffffff1673ffffffffffffffffffffffffffffffffffffffff1673ffffffffffffffffffffffffffffffffffffffff168152602001908152602001600020549081150290604051600060405180830381858888f193505050501580156108e7573d6000803e3d6000fd5b5080806108f3906118a8565b91505061076a565b505b6001905090565b600360009054906101000a900460ff1681565b6000600c60000160009054906101000a900473ffffffffffffffffffffffffffffffffffffffff1673ffffffffffffffffffffffffffffffffffffffff163373ffffffffffffffffffffffffffffffffffffffff1614156109ad576040517f08c379a00000000000000000000000000000000000000000000000000000000081526004016109a490611963565b60405180910390fd5b6002544210610a38576001600a60006101000a81548160ff021916908360038111156109dc576109db6114ef565b5b02179055507f3ec28d860a01e5f49f8116d9ba38fd21b29575fe98055540ee30e52e35d91745600c600101600c600201600254600a60009054906101000a900460ff16604051610a2f9493929190611a64565b60405180910390a15b60016003811115610a4c57610a4b6114ef565b5b600a60009054906101000a900460ff166003811115610a6e57610a6d6114ef565b5b1415610aaf576040517f08c379a0000000000000000000000000000000000000000000000000000000008152600401610aa690611b16565b60405180910390fd5b600454600c60030154610ac29190611b36565b3411610b03576040517f08c379a0000000000000000000000000000000000000000000000000000000008152600401610afa90611c02565b60405180910390fd5b6005543411610b47576040517f08c379a0000000000000000000000000000000000000000000000000000000008152600401610b3e90611c94565b60405180910390fd5b600060055414610bb857600454600c60050154610b649190611b36565b60055434610b729190611845565b1015610bb3576040517f08c379a0000000000000000000000000000000000000000000000000000000008152600401610baa90611d26565b60405180910390fd5b610c2b565b600454600c60050154610bcb9190611b36565b600454600c60030154610bde9190611b36565b34610be99190611845565b1015610c2a576040517f08c379a0000000000000000000000000000000000000000000000000000000008152600401610c2190611d26565b60405180910390fd5b5b33600660006101000a81548173ffffffffffffffffffffffffffffffffffffffff021916908373ffffffffffffffffffffffffffffffffffffffff160217905550346005819055506008339080600181540180825580915050600190039060005260206000200160009091909190916101000a81548173ffffffffffffffffffffffffffffffffffffffff021916908373ffffffffffffffffffffffffffffffffffffffff16021790555034600960003373ffffffffffffffffffffffffffffffffffffffff1673ffffffffffffffffffffffffffffffffffffffff16815260200190815260200160002054610d219190611d46565b600960003373ffffffffffffffffffffffffffffffffffffffff1673ffffffffffffffffffffffffffffffffffffffff16815260200190815260200160002081905550600660009054906101000a900473ffffffffffffffffffffffffffffffffffffffff1673ffffffffffffffffffffffffffffffffffffffff167fb87b003ab57b357ac4ac215a3f1c756bd0adf8b876d2d347351a55b4586110e260055433604051610dd0929190611d9c565b60405180910390a26001905090565b60025481565b600090565b6000600960008373ffffffffffffffffffffffffffffffffffffffff1673ffffffffffffffffffffffffffffffffffffffff168152602001908152602001600020549050919050565b60008060088054905011610e7c576040517f08c379a0000000000000000000000000000000000000000000000000000000008152600401610e73906117f6565b60405180910390fd5b6001600360006101000a81548160ff021916908315150217905550600c60000160009054906101000a900473ffffffffffffffffffffffffffffffffffffffff16600760006101000a81548173ffffffffffffffffffffffffffffffffffffffff021916908373ffffffffffffffffffffffffffffffffffffffff160217905550600760009054906101000a900473ffffffffffffffffffffffffffffffffffffffff1673ffffffffffffffffffffffffffffffffffffffff166108fc6005549081150290604051600060405180830381858888f19350505050158015610f67573d6000803e3d6000fd5b506001600a60006101000a81548160ff02191690836003811115610f8e57610f8d6114ef565b5b02179055507f49fcb660036c8a3b59016bcf8a3aec949c34ca2466be2b3ec6372dbf6fed113660055433604051610fc6929190611e11565b60405180910390a16001905090565b60015481565b60045481565b6000600a60009054906101000a900460ff16905090565b60096020528060005260406000206000915090505481565b600660009054906101000a900473ffffffffffffffffffffffffffffffffffffffff1681565b600042905090565b600033905090565b600a60009054906101000a900460ff1681565b60006060806000806000806000600c60000160009054906101000a900473ffffffffffffffffffffffffffffffffffffffff16600c600101600c600201600c60030154600c60040154600c60050154600254600a60009054906101000a900460ff168680546110c790611778565b80601f01602080910402602001604051908101604052809291908181526020018280546110f390611778565b80156111405780601f1061111557610100808354040283529160200191611140565b820191906000526020600020905b81548152906001019060200180831161112357829003601f168201915b5050505050965085805461115390611778565b80601f016020809104026020016040519081016040528092919081815260200182805461117f90611778565b80156111cc5780601f106111a1576101008083540402835291602001916111cc565b820191906000526020600020905b8154815290600101906020018083116111af57829003601f168201915b50505050509550975097509750975097509750975097509091929394959697565b600090565b60055481565b6060600c600601805461120a90611778565b80601f016020809104026020016040519081016040528092919081815260200182805461123690611778565b80156112835780601f1061125857610100808354040283529160200191611283565b820191906000526020600020905b81548152906001019060200180831161126657829003601f168201915b5050505050905090565b600073ffffffffffffffffffffffffffffffffffffffff82169050919050565b60006112b88261128d565b9050919050565b6112c8816112ad565b82525050565b60006020820190506112e360008301846112bf565b92915050565b60006112f48261128d565b9050919050565b611304816112e9565b82525050565b600081519050919050565b600082825260208201905092915050565b60005b83811015611344578082015181840152602081019050611329565b83811115611353576000848401525b50505050565b6000601f19601f8301169050919050565b60006113758261130a565b61137f8185611315565b935061138f818560208601611326565b61139881611359565b840191505092915050565b6000819050919050565b6113b6816113a3565b82525050565b600060e0820190506113d1600083018a6112fb565b81810360208301526113e3818961136a565b905081810360408301526113f7818861136a565b905061140660608301876113ad565b61141360808301866113ad565b61142060a08301856113ad565b81810360c0830152611432818461136a565b905098975050505050505050565b60008115159050919050565b61145581611440565b82525050565b6000602082019050611470600083018461144c565b92915050565b600060208201905061148b60008301846113ad565b92915050565b600080fd5b61149f816112ad565b81146114aa57600080fd5b50565b6000813590506114bc81611496565b92915050565b6000602082840312156114d8576114d7611491565b5b60006114e6848285016114ad565b91505092915050565b7f4e487b7100000000000000000000000000000000000000000000000000000000600052602160045260246000fd5b6004811061152f5761152e6114ef565b5b50565b60008190506115408261151e565b919050565b600061155082611532565b9050919050565b61156081611545565b82525050565b600060208201905061157b6000830184611557565b92915050565b600060208201905061159660008301846112fb565b92915050565b6000610100820190506115b2600083018b6112bf565b81810360208301526115c4818a61136a565b905081810360408301526115d8818961136a565b90506115e760608301886113ad565b6115f460808301876113ad565b61160160a08301866113ad565b61160e60c08301856113ad565b61161b60e0830184611557565b9998505050505050505050565b60006020820190508181036000830152611642818461136a565b905092915050565b7f54686520686967686573742062696464657220616e642077696e6e6572206f6660008201527f207468652061756374696f6e2069730000000000000000000000000000000000602082015250565b60006116a6602f83611315565b91506116b18261164a565b604082019050919050565b6000819050919050565b60006116e16116dc6116d78461128d565b6116bc565b61128d565b9050919050565b60006116f3826116c6565b9050919050565b6000611705826116e8565b9050919050565b611715816116fa565b82525050565b6000604082019050818103600083015261173481611699565b9050611743602083018461170c565b92915050565b7f4e487b7100000000000000000000000000000000000000000000000000000000600052602260045260246000fd5b6000600282049050600182168061179057607f821691505b602082108114156117a4576117a3611749565b5b50919050565b7f7468657265206973206e6f206269646465727300000000000000000000000000600082015250565b60006117e0601383611315565b91506117eb826117aa565b602082019050919050565b6000602082019050818103600083015261180f816117d3565b9050919050565b7f4e487b7100000000000000000000000000000000000000000000000000000000600052601160045260246000fd5b6000611850826113a3565b915061185b836113a3565b92508282101561186e5761186d611816565b5b828203905092915050565b7f4e487b7100000000000000000000000000000000000000000000000000000000600052603260045260246000fd5b60006118b3826113a3565b91507fffffffffffffffffffffffffffffffffffffffffffffffffffffffffffffffff8214156118e6576118e5611816565b5b600182019050919050565b7f596f752061726520746865206f776e65722c20796f752063616e6e6f7420626960008201527f64206f6e20796f7572206974656d000000000000000000000000000000000000602082015250565b600061194d602e83611315565b9150611958826118f1565b604082019050919050565b6000602082019050818103600083015261197c81611940565b9050919050565b7f546869732061756374696f6e206973206f766572000000000000000000000000600082015250565b60006119b9601483611315565b91506119c482611983565b602082019050919050565b60008190508160005260206000209050919050565b600081546119f181611778565b6119fb8186611315565b94506001821660008114611a165760018114611a2857611a5b565b60ff1983168652602086019350611a5b565b611a31856119cf565b60005b83811015611a5357815481890152600182019150602081019050611a34565b808801955050505b50505092915050565b600060a0820190508181036000830152611a7d816119ac565b90508181036020830152611a9181876119e4565b90508181036040830152611aa581866119e4565b9050611ab460608301856113ad565b611ac16080830184611557565b95945050505050565b7f546869732061756374696f6e206973206f766572210000000000000000000000600082015250565b6000611b00601583611315565b9150611b0b82611aca565b602082019050919050565b60006020820190508181036000830152611b2f81611af3565b9050919050565b6000611b41826113a3565b9150611b4c836113a3565b9250817fffffffffffffffffffffffffffffffffffffffffffffffffffffffffffffffff0483118215151615611b8557611b84611816565b5b828202905092915050565b7f4269642068617320746f206265206d6f7265207468616e207374617274696e6760008201527f2070726963650000000000000000000000000000000000000000000000000000602082015250565b6000611bec602683611315565b9150611bf782611b90565b604082019050919050565b60006020820190508181036000830152611c1b81611bdf565b9050919050565b7f4269642068617320746f206265206d6f7265207468616e20746865206869676860008201527f6573742062696400000000000000000000000000000000000000000000000000602082015250565b6000611c7e602783611315565b9150611c8982611c22565b604082019050919050565b60006020820190508181036000830152611cad81611c71565b9050919050565b7f4269642068617320746f206265206d6f7265207468616e20746865206269642060008201527f696e6372656d656e740000000000000000000000000000000000000000000000602082015250565b6000611d10602983611315565b9150611d1b82611cb4565b604082019050919050565b60006020820190508181036000830152611d3f81611d03565b9050919050565b6000611d51826113a3565b9150611d5c836113a3565b9250827fffffffffffffffffffffffffffffffffffffffffffffffffffffffffffffffff03821115611d9157611d90611816565b5b828201905092915050565b6000604082019050611db160008301856113ad565b611dbe60208301846112bf565b9392505050565b7f50726f7669646572207769746864726177733a20000000000000000000000000600082015250565b6000611dfb601483611315565b9150611e0682611dc5565b602082019050919050565b60006060820190508181036000830152611e2a81611dee565b9050611e3960208301856113ad565b611e4660408301846112bf565b939250505056fea26469706673582212204d401c18a93e960e611b67c83ce25ced41b94dd07cda3ea0d7a90f32c620eebb64736f6c634300080b0033a2646970667358221220917cacb65cefe87237f789f73b1cb6d60fc8c1ad9cafee522daa9fcfd5fe883464736f6c634300080b0033",
  "immutableReferences": {},
  "source": "// SPDX-License-Identifier: MIT\r\npragma solidity >=0.4.22 <=0.8.11;\r\npragma experimental ABIEncoderV2;\r\nimport \"./Auction.sol\";\r\n\r\ncontract AuctionList {\r\n    MyAuction[] public auctions;\r\n\r\n    struct Details {\r\n        address payable owner;\r\n        string name;\r\n        string description;\r\n        uint256 startingPrice;\r\n        uint256 auctionDuration;\r\n        uint256 minIncrement;\r\n        string ipfsHash;\r\n    }\r\n    Details public newDetails;\r\n    Details[] details;\r\n\r\n    function createAuctions(\r\n        address payable _owner,\r\n        string memory _name,\r\n        string memory _description,\r\n        uint256 _startingPrice,\r\n        uint256 _auctionDuration,\r\n        uint256 _minIncrement,\r\n        string memory _ipfsHash\r\n    ) public payable{\r\n        MyAuction newAuction = new MyAuction(\r\n            _owner,\r\n            _name,\r\n            _description,\r\n            _startingPrice,\r\n            _auctionDuration,\r\n            _minIncrement,\r\n            _ipfsHash\r\n        );\r\n        newDetails.owner = _owner;\r\n        newDetails.name = _name;\r\n        newDetails.description = _description;\r\n        newDetails.startingPrice = _startingPrice;\r\n        newDetails.auctionDuration = _auctionDuration;\r\n        newDetails.minIncrement = _minIncrement;\r\n        newDetails.ipfsHash = _ipfsHash;\r\n\r\n\r\n        details.push(newDetails);\r\n        auctions.push(newAuction);\r\n    }\r\n\r\n    function getAllAuctions() public view returns (MyAuction[] memory) {\r\n        return auctions;\r\n    }\r\n\r\n    function getAllAuctionDetails() public view returns (Details[] memory) {\r\n        return details;\r\n    }\r\n}\r\n",
  "sourcePath": "D:\\webdev projects\\trading-app\\ethereum-auction-app\\contracts\\AuctionList.sol",
  "compiler": {
    "name": "solc",
    "version": "0.8.11+commit.d7f03943.Emscripten.clang"
  },
  "schemaVersion": "3.4.4",
  "updatedAt": "2022-07-19T17:15:32.878Z",
  "networkType": "ethereum",
  "devdoc": {
    "kind": "dev",
    "methods": {},
    "version": 1
  },
  "userdoc": {
    "kind": "user",
    "methods": {},
    "version": 1
  }
}