{
  "contractName": "Auction",
  "abi": [
    {
      "anonymous": false,
      "inputs": [
        {
          "indexed": false,
          "internalType": "string",
          "name": "name",
          "type": "string"
        },
        {
          "indexed": false,
          "internalType": "string",
          "name": "description",
          "type": "string"
        },
        {
          "indexed": false,
          "internalType": "uint256",
          "name": "startingPrice",
          "type": "uint256"
        },
        {
          "indexed": false,
          "internalType": "uint256",
          "name": "auctionDuration",
          "type": "uint256"
        },
        {
          "indexed": false,
          "internalType": "uint256",
          "name": "minIncrement",
          "type": "uint256"
        },
        {
          "indexed": false,
          "internalType": "string",
          "name": "ipfsHash",
          "type": "string"
        },
        {
          "indexed": false,
          "internalType": "uint256",
          "name": "auctionStart",
          "type": "uint256"
        },
        {
          "indexed": false,
          "internalType": "uint256",
          "name": "auctionEnd",
          "type": "uint256"
        },
        {
          "indexed": false,
          "internalType": "enum Auction.auctionState",
          "name": "state",
          "type": "uint8"
        }
      ],
      "name": "AuctionDetailsEvent",
      "type": "event"
    },
    {
      "anonymous": false,
      "inputs": [
        {
          "indexed": false,
          "internalType": "string",
          "name": "message",
          "type": "string"
        },
        {
          "indexed": false,
          "internalType": "string",
          "name": "name",
          "type": "string"
        },
        {
          "indexed": false,
          "internalType": "string",
          "name": "description",
          "type": "string"
        },
        {
          "indexed": false,
          "internalType": "uint256",
          "name": "auctionEnd",
          "type": "uint256"
        },
        {
          "indexed": false,
          "internalType": "enum Auction.auctionState",
          "name": "state",
          "type": "uint8"
        }
      ],
      "name": "AuctionOverEvent",
      "type": "event"
    },
    {
      "anonymous": false,
      "inputs": [
        {
          "indexed": true,
          "internalType": "address",
          "name": "highestBidder",
          "type": "address"
        },
        {
          "indexed": false,
          "internalType": "uint256",
          "name": "highestBid",
          "type": "uint256"
        },
        {
          "indexed": false,
          "internalType": "address",
          "name": "sender",
          "type": "address"
        }
      ],
      "name": "BidEvent",
      "type": "event"
    },
    {
      "anonymous": false,
      "inputs": [
        {
          "indexed": false,
          "internalType": "string",
          "name": "message",
          "type": "string"
        },
        {
          "indexed": false,
          "internalType": "uint256",
          "name": "bid",
          "type": "uint256"
        },
        {
          "indexed": false,
          "internalType": "address",
          "name": "sender",
          "type": "address"
        }
      ],
      "name": "BidderWithdrawsEvent",
      "type": "event"
    },
    {
      "anonymous": false,
      "inputs": [
        {
          "indexed": false,
          "internalType": "string",
          "name": "message",
          "type": "string"
        },
        {
          "indexed": false,
          "internalType": "address payable",
          "name": "owner",
          "type": "address"
        },
        {
          "indexed": false,
          "internalType": "uint256",
          "name": "time",
          "type": "uint256"
        }
      ],
      "name": "CreatedEvent",
      "type": "event"
    },
    {
      "anonymous": false,
      "inputs": [
        {
          "indexed": false,
          "internalType": "string",
          "name": "message",
          "type": "string"
        },
        {
          "indexed": false,
          "internalType": "address",
          "name": "sender",
          "type": "address"
        }
      ],
      "name": "HighestBidderEvent",
      "type": "event"
    },
    {
      "anonymous": false,
      "inputs": [
        {
          "indexed": false,
          "internalType": "string",
          "name": "message",
          "type": "string"
        },
        {
          "indexed": false,
          "internalType": "uint256",
          "name": "highestBid",
          "type": "uint256"
        },
        {
          "indexed": false,
          "internalType": "address",
          "name": "sender",
          "type": "address"
        }
      ],
      "name": "ProviderWithdrawsEvent",
      "type": "event"
    },
    {
      "inputs": [],
      "name": "STATE",
      "outputs": [
        {
          "internalType": "enum Auction.auctionState",
          "name": "",
          "type": "uint8"
        }
      ],
      "stateMutability": "view",
      "type": "function",
      "constant": true
    },
    {
      "inputs": [],
      "name": "auctionEnd",
      "outputs": [
        {
          "internalType": "uint256",
          "name": "",
          "type": "uint256"
        }
      ],
      "stateMutability": "view",
      "type": "function",
      "constant": true
    },
    {
      "inputs": [],
      "name": "auctionStart",
      "outputs": [
        {
          "internalType": "uint256",
          "name": "",
          "type": "uint256"
        }
      ],
      "stateMutability": "view",
      "type": "function",
      "constant": true
    },
    {
      "inputs": [
        {
          "internalType": "address",
          "name": "",
          "type": "address"
        }
      ],
      "name": "bids",
      "outputs": [
        {
          "internalType": "uint256",
          "name": "",
          "type": "uint256"
        }
      ],
      "stateMutability": "view",
      "type": "function",
      "constant": true
    },
    {
      "inputs": [],
      "name": "ended",
      "outputs": [
        {
          "internalType": "bool",
          "name": "",
          "type": "bool"
        }
      ],
      "stateMutability": "view",
      "type": "function",
      "constant": true
    },
    {
      "inputs": [],
      "name": "highestBid",
      "outputs": [
        {
          "internalType": "uint256",
          "name": "",
          "type": "uint256"
        }
      ],
      "stateMutability": "view",
      "type": "function",
      "constant": true
    },
    {
      "inputs": [],
      "name": "highestBidder",
      "outputs": [
        {
          "internalType": "address payable",
          "name": "",
          "type": "address"
        }
      ],
      "stateMutability": "view",
      "type": "function",
      "constant": true
    },
    {
      "inputs": [],
      "name": "myNewAuction",
      "outputs": [
        {
          "internalType": "address payable",
          "name": "owner",
          "type": "address"
        },
        {
          "internalType": "string",
          "name": "name",
          "type": "string"
        },
        {
          "internalType": "string",
          "name": "description",
          "type": "string"
        },
        {
          "internalType": "uint256",
          "name": "startingPrice",
          "type": "uint256"
        },
        {
          "internalType": "uint256",
          "name": "auctionDuration",
          "type": "uint256"
        },
        {
          "internalType": "uint256",
          "name": "minIncrement",
          "type": "uint256"
        },
        {
          "internalType": "string",
          "name": "ipfsHash",
          "type": "string"
        }
      ],
      "stateMutability": "view",
      "type": "function",
      "constant": true
    },
    {
      "inputs": [],
      "name": "oneWei",
      "outputs": [
        {
          "internalType": "uint256",
          "name": "",
          "type": "uint256"
        }
      ],
      "stateMutability": "view",
      "type": "function",
      "constant": true
    },
    {
      "inputs": [],
      "name": "bid",
      "outputs": [
        {
          "internalType": "bool",
          "name": "",
          "type": "bool"
        }
      ],
      "stateMutability": "payable",
      "type": "function",
      "payable": true
    },
    {
      "inputs": [],
      "name": "withdrawWinnings",
      "outputs": [
        {
          "internalType": "bool",
          "name": "",
          "type": "bool"
        }
      ],
      "stateMutability": "nonpayable",
      "type": "function"
    },
    {
      "inputs": [],
      "name": "withdrawBid",
      "outputs": [
        {
          "internalType": "bool",
          "name": "",
          "type": "bool"
        }
      ],
      "stateMutability": "payable",
      "type": "function",
      "payable": true
    },
    {
      "inputs": [],
      "name": "getHighestBidder",
      "outputs": [
        {
          "internalType": "address",
          "name": "",
          "type": "address"
        }
      ],
      "stateMutability": "payable",
      "type": "function",
      "payable": true
    },
    {
      "inputs": [],
      "name": "showSender",
      "outputs": [
        {
          "internalType": "address",
          "name": "",
          "type": "address"
        }
      ],
      "stateMutability": "nonpayable",
      "type": "function"
    },
    {
      "inputs": [],
      "name": "returnTime",
      "outputs": [
        {
          "internalType": "uint256",
          "name": "",
          "type": "uint256"
        }
      ],
      "stateMutability": "nonpayable",
      "type": "function"
    },
    {
      "inputs": [],
      "name": "returnContents",
      "outputs": [
        {
          "internalType": "address",
          "name": "",
          "type": "address"
        },
        {
          "internalType": "string",
          "name": "",
          "type": "string"
        },
        {
          "internalType": "string",
          "name": "",
          "type": "string"
        },
        {
          "internalType": "uint256",
          "name": "",
          "type": "uint256"
        },
        {
          "internalType": "uint256",
          "name": "",
          "type": "uint256"
        },
        {
          "internalType": "uint256",
          "name": "",
          "type": "uint256"
        },
        {
          "internalType": "uint256",
          "name": "",
          "type": "uint256"
        },
        {
          "internalType": "enum Auction.auctionState",
          "name": "",
          "type": "uint8"
        }
      ],
      "stateMutability": "nonpayable",
      "type": "function"
    },
    {
      "inputs": [],
      "name": "transferHighestBid",
      "outputs": [
        {
          "internalType": "bool",
          "name": "",
          "type": "bool"
        }
      ],
      "stateMutability": "payable",
      "type": "function",
      "payable": true
    },
    {
      "inputs": [],
      "name": "refundBidders",
      "outputs": [
        {
          "internalType": "bool",
          "name": "",
          "type": "bool"
        }
      ],
      "stateMutability": "payable",
      "type": "function",
      "payable": true
    },
    {
      "inputs": [],
      "name": "returnState",
      "outputs": [
        {
          "internalType": "enum Auction.auctionState",
          "name": "",
          "type": "uint8"
        }
      ],
      "stateMutability": "nonpayable",
      "type": "function"
    },
    {
      "inputs": [],
      "name": "getIpfsHash",
      "outputs": [
        {
          "internalType": "string",
          "name": "",
          "type": "string"
        }
      ],
      "stateMutability": "nonpayable",
      "type": "function"
    }
  ],
  "bytecode": "0x6080604052670de0b6b3a764000060045534801561001c57600080fd5b50610c588061002c6000396000f3fe60806040526004361061011e5760003560e01c806358b45557116100a0578063c486456c11610064578063c486456c1461037f578063c8287b58146103aa578063cc42e83a146103dc578063d57bde7914610407578063dc9638c7146104325761011e565b806358b455571461029657806362ea82db146102c157806391f90157146102fe5780639856836614610329578063a4d64ff4146103545761011e565b80632a24f46c116100e75780632a24f46c146101d957806337271cc7146102045780634db838e0146102225780634f245ef7146102405780634fb2e0be1461026b5761011e565b80623495a41461012357806303386bcd146101415780630d435b021461017257806312fa6feb146101905780631998aeef146101bb575b600080fd5b61012b61045d565b60405161013891906107d9565b60405180910390f35b34801561014d57600080fd5b50610156610462565b60405161016997969594939291906108c7565b60405180910390f35b61017a61064a565b6040516101879190610966565b60405180910390f35b34801561019c57600080fd5b506101a5610696565b6040516101b29190610966565b60405180910390f35b6101c36106a9565b6040516101d09190610966565b60405180910390f35b3480156101e557600080fd5b506101ee6106ae565b6040516101fb9190610981565b60405180910390f35b61020c6106b4565b6040516102199190610966565b60405180910390f35b61022a6106b9565b6040516102379190610966565b60405180910390f35b34801561024c57600080fd5b50610255610705565b6040516102629190610981565b60405180910390f35b34801561027757600080fd5b5061028061070b565b60405161028d9190610981565b60405180910390f35b3480156102a257600080fd5b506102ab610711565b6040516102b89190610a13565b60405180910390f35b3480156102cd57600080fd5b506102e860048036038101906102e39190610a5f565b610716565b6040516102f59190610981565b60405180910390f35b34801561030a57600080fd5b5061031361072e565b6040516103209190610a8c565b60405180910390f35b34801561033557600080fd5b5061033e610754565b60405161034b9190610981565b60405180910390f35b34801561036057600080fd5b50610369610759565b60405161037691906107d9565b60405180910390f35b34801561038b57600080fd5b5061039461075e565b6040516103a19190610a13565b60405180910390f35b3480156103b657600080fd5b506103bf610771565b6040516103d3989796959493929190610aa7565b60405180910390f35b3480156103e857600080fd5b506103f1610788565b6040516103fe9190610966565b60405180910390f35b34801561041357600080fd5b5061041c61078d565b6040516104299190610981565b60405180910390f35b34801561043e57600080fd5b50610447610793565b6040516104549190610b33565b60405180910390f35b600090565b600c8060000160009054906101000a900473ffffffffffffffffffffffffffffffffffffffff169080600101805461049990610b84565b80601f01602080910402602001604051908101604052809291908181526020018280546104c590610b84565b80156105125780601f106104e757610100808354040283529160200191610512565b820191906000526020600020905b8154815290600101906020018083116104f557829003601f168201915b50505050509080600201805461052790610b84565b80601f016020809104026020016040519081016040528092919081815260200182805461055390610b84565b80156105a05780601f10610575576101008083540402835291602001916105a0565b820191906000526020600020905b81548152906001019060200180831161058357829003601f168201915b5050505050908060030154908060040154908060050154908060060180546105c790610b84565b80601f01602080910402602001604051908101604052809291908181526020018280546105f390610b84565b80156106405780601f1061061557610100808354040283529160200191610640565b820191906000526020600020905b81548152906001019060200180831161062357829003601f168201915b5050505050905087565b60008060088054905011610693576040517f08c379a000000000000000000000000000000000000000000000000000000000815260040161068a90610c02565b60405180910390fd5b90565b600360009054906101000a900460ff1681565b600090565b60025481565b600090565b60008060088054905011610702576040517f08c379a00000000000000000000000000000000000000000000000000000000081526004016106f990610c02565b60405180910390fd5b90565b60015481565b60045481565b600090565b60096020528060005260406000206000915090505481565b600660009054906101000a900473ffffffffffffffffffffffffffffffffffffffff1681565b600090565b600090565b600a60009054906101000a900460ff1681565b600060608060008060008060009091929394959697565b600090565b60055481565b606090565b600073ffffffffffffffffffffffffffffffffffffffff82169050919050565b60006107c382610798565b9050919050565b6107d3816107b8565b82525050565b60006020820190506107ee60008301846107ca565b92915050565b60006107ff82610798565b9050919050565b61080f816107f4565b82525050565b600081519050919050565b600082825260208201905092915050565b60005b8381101561084f578082015181840152602081019050610834565b8381111561085e576000848401525b50505050565b6000601f19601f8301169050919050565b600061088082610815565b61088a8185610820565b935061089a818560208601610831565b6108a381610864565b840191505092915050565b6000819050919050565b6108c1816108ae565b82525050565b600060e0820190506108dc600083018a610806565b81810360208301526108ee8189610875565b905081810360408301526109028188610875565b905061091160608301876108b8565b61091e60808301866108b8565b61092b60a08301856108b8565b81810360c083015261093d8184610875565b905098975050505050505050565b60008115159050919050565b6109608161094b565b82525050565b600060208201905061097b6000830184610957565b92915050565b600060208201905061099660008301846108b8565b92915050565b7f4e487b7100000000000000000000000000000000000000000000000000000000600052602160045260246000fd5b600481106109dc576109db61099c565b5b50565b60008190506109ed826109cb565b919050565b60006109fd826109df565b9050919050565b610a0d816109f2565b82525050565b6000602082019050610a286000830184610a04565b92915050565b600080fd5b610a3c816107b8565b8114610a4757600080fd5b50565b600081359050610a5981610a33565b92915050565b600060208284031215610a7557610a74610a2e565b5b6000610a8384828501610a4a565b91505092915050565b6000602082019050610aa16000830184610806565b92915050565b600061010082019050610abd600083018b6107ca565b8181036020830152610acf818a610875565b90508181036040830152610ae38189610875565b9050610af260608301886108b8565b610aff60808301876108b8565b610b0c60a08301866108b8565b610b1960c08301856108b8565b610b2660e0830184610a04565b9998505050505050505050565b60006020820190508181036000830152610b4d8184610875565b905092915050565b7f4e487b7100000000000000000000000000000000000000000000000000000000600052602260045260246000fd5b60006002820490506001821680610b9c57607f821691505b60208210811415610bb057610baf610b55565b5b50919050565b7f7468657265206973206e6f206269646465727300000000000000000000000000600082015250565b6000610bec601383610820565b9150610bf782610bb6565b602082019050919050565b60006020820190508181036000830152610c1b81610bdf565b905091905056fea2646970667358221220f0fac6554689625b886b213afd94fbef55cb7ec642a2b794647f4778c0ffbd2064736f6c634300080b0033",
  "immutableReferences": {},
  "source": "// SPDX-License-Identifier: MIT\r\npragma solidity >=0.4.22 <=0.8.11;\r\n\r\ncontract Auction {\r\n    address payable internal auctionOwner; // Owner of the auctoin\r\n    uint256 public auctionStart; // Start epoch time\r\n    uint256 public auctionEnd; // End epoch time\r\n    bool public ended;\r\n\r\n\r\n    uint256 public oneWei = 1000000000000000000;\r\n    uint256 public highestBid; // Highest amount bid in Eth\r\n    address payable public  highestBidder; // Highest bidder\r\n\r\n    address payable recipient;\r\n\r\n    address[] bidders; // Array of bidders\r\n    mapping(address => uint256) public bids; // Mapping matching the address of bidder with their total bid\r\n\r\n    enum auctionState {STARTED, OVER, FINALISED, CANCELLED}\r\n    auctionState public STATE; // Auction state (STARTED)\r\n\r\n    string ipfs;\r\n\r\n    struct NewAuction {\r\n        address payable owner;\r\n        string name;\r\n        string description;\r\n        uint256 startingPrice;\r\n        uint256 auctionDuration;\r\n        uint256 minIncrement;\r\n        string ipfsHash;\r\n    }\r\n\r\n    NewAuction public myNewAuction;\r\n\r\n    /** \r\n        Modifiers\r\n        notOwner - Checks sender is not the owner of auction\r\n        validAuction - Checks if auction is still valid\r\n        validBid - Checks the bid is valid\r\n        withdrawWinChecks - Checks before a seller can withdraw highest bid\r\n        withdrawBidChecks - Checks before a bidder can withdraw their bid\r\n        auctionOver - Checks if auction is over\r\n\r\n    */\r\n    modifier notOwner() {\r\n        require(\r\n            msg.sender != myNewAuction.owner,\r\n            \"You are the owner, you cannot bid on your item\"\r\n        );\r\n        _;\r\n    }\r\n\r\n    modifier validAuction() {\r\n        if (block.timestamp >= auctionEnd) {\r\n            STATE = auctionState.OVER;\r\n            emit AuctionOverEvent( \"This auction is over\",  myNewAuction.name, myNewAuction.description, auctionEnd, STATE);\r\n        }\r\n        require(STATE != auctionState.OVER, \"This auction is over!\");\r\n        _;\r\n    }\r\n\r\n    modifier auctionBidders() {\r\n        require(bidders.length >0, \"there is no bidders\");\r\n        _;\r\n    }\r\n\r\n    modifier validBid() {\r\n        require(\r\n            msg.value > myNewAuction.startingPrice * oneWei,\r\n            \"Bid has to be more than starting price\"\r\n        );\r\n        require(\r\n            msg.value > highestBid,\r\n            \"Bid has to be more than the highest bid\"\r\n        );\r\n        if (highestBid != 0) {\r\n            require(\r\n                (msg.value - highestBid) >= myNewAuction.minIncrement * oneWei,\r\n                \"Bid has to be more than the bid increment\"\r\n            );\r\n        } else {\r\n            require(\r\n                (msg.value - (myNewAuction.startingPrice * oneWei)) >=\r\n                    myNewAuction.minIncrement * oneWei,\r\n                \"Bid has to be more than the bid increment\"\r\n            );\r\n        }\r\n        _;\r\n    }\r\n\r\n    modifier withdrawWinChecks(){\r\n        require(block.timestamp > auctionEnd, \"This auction is not over!\"); \r\n        require(msg.sender ==  myNewAuction.owner, \"You are not the owner of the auction\"); \r\n        require(!ended, \"You have already withdrawn the highest bid.\");\r\n        _;\r\n    }\r\n\r\n    modifier withdrawBidChecks() {\r\n        require(msg.sender !=  myNewAuction.owner, \"Only bidders can perform this action\");\r\n        require(bids[msg.sender] > 0, \"There are no bids\");\r\n        _;\r\n    }\r\n\r\n    /**\r\n        Functions\r\n    */\r\n    function bid() payable public virtual returns (bool) {}\r\n    function withdrawWinnings () public virtual returns(bool) {}\r\n    function withdrawBid () public payable virtual returns(bool) {}\r\n    function getHighestBidder () public payable virtual returns (address) {}\r\n    function showSender() public virtual returns (address) {}\r\n    function returnTime() public virtual returns (uint256) {}\r\n    function returnContents() public virtual returns \r\n         (address, string memory, string memory, uint256, uint256, uint256, uint256, auctionState){}\r\n    function transferHighestBid() payable public virtual auctionBidders returns(bool){}\r\n    function refundBidders() payable public virtual auctionBidders returns(bool){}\r\n    function returnState() public virtual returns (auctionState) {}\r\n    function getIpfsHash() public virtual returns(string memory){}\r\n    \r\n    /**\r\n        Events\r\n    */\r\n    event CreatedEvent(string message, address payable owner, uint256 time);\r\n    event BidEvent(address indexed highestBidder, uint256 highestBid, address sender);\r\n    event AuctionDetailsEvent( string name,  string description, uint256 startingPrice, uint256 auctionDuration, \r\n                               uint256 minIncrement, string ipfsHash, uint256 auctionStart, uint256 auctionEnd, auctionState state);\r\n    event AuctionOverEvent( string message, string name, string description, uint256 auctionEnd, auctionState state);\r\n    event ProviderWithdrawsEvent(string message, uint256 highestBid, address sender);\r\n    event BidderWithdrawsEvent(string message, uint256 bid, address sender);\r\n    event HighestBidderEvent(string message, address sender);\r\n    \r\n}\r\n\r\ncontract MyAuction is Auction {\r\n    constructor( address payable _owner, string memory _name, string memory _description, uint256 _startingPrice, uint256 _auctionDuration, uint256 _minIncrement, string memory _ipfsHash) {\r\n        auctionOwner == _owner;\r\n\r\n        myNewAuction.owner = _owner;\r\n        myNewAuction.name = _name;\r\n        myNewAuction.description = _description;\r\n        myNewAuction.startingPrice = _startingPrice;\r\n        myNewAuction.auctionDuration = _auctionDuration;\r\n        myNewAuction.minIncrement = _minIncrement;\r\n        myNewAuction.ipfsHash = _ipfsHash;\r\n\r\n        auctionStart = block.timestamp;\r\n        auctionEnd = auctionStart + (_auctionDuration * 60);\r\n\r\n        STATE = auctionState.STARTED;\r\n        //emit CreatedEvent(\"Auction Created for: \" , auctionOwner , block.timestamp);\r\n        emit AuctionDetailsEvent(myNewAuction.name, myNewAuction.description,  myNewAuction.startingPrice, _auctionDuration,\r\n                                 myNewAuction.minIncrement, myNewAuction.ipfsHash, auctionStart, auctionEnd, STATE );\r\n    }\r\n\r\n    function bid() payable public override notOwner validAuction validBid returns (bool)\r\n    {\r\n        highestBidder = payable(msg.sender);\r\n        highestBid = msg.value;\r\n        bidders.push(msg.sender); // Add bidder's address to the array of participant\r\n        bids[msg.sender] = bids[msg.sender] + msg.value; // Update participant's bid in mapping bids\r\n        emit BidEvent(highestBidder, highestBid, msg.sender); // Announce new highest bid and bidder\r\n        return true; // Successful execution\r\n    }\r\n\r\n   /*function withdrawWinnings () public override withdrawWinChecks returns (bool)\r\n    {\r\n        ended = true;\r\n\r\n        recipient = myNewAuction.owner;\r\n        recipient.transfer(highestBid);\r\n\r\n        STATE = auctionState.FINALISED;\r\n        emit ProviderWithdrawsEvent(\"Provider withdraws: \", highestBid, msg.sender); // Announce winnings withdrawn\r\n        return true;\r\n    }*/\r\n\r\n    /*function withdrawBid() public payable override withdrawBidChecks returns (bool)\r\n    { \r\n        uint amount;\r\n        if (msg.sender == highestBidder){\r\n            recipient = highestBidder;\r\n            amount = bids[msg.sender] - highestBid;\r\n        }\r\n        else {\r\n            recipient = payable(msg.sender);\r\n            amount = bids[msg.sender];\r\n        }\r\n        bids[msg.sender] = 0;\r\n        payable(msg.sender).transfer(amount);\r\n        emit BidderWithdrawsEvent(\"Bidder withdraws bid: \", amount, msg.sender); // Announce bid withrawn\r\n        return true;\r\n    }*/\r\n\r\n    function getHighestBidder() public payable override returns(address)\r\n    {\r\n        emit HighestBidderEvent(\"The highest bidder and winner of the auction is\", highestBidder);\r\n        return highestBidder;     \r\n    }\r\n\r\n    function showSender() public view override returns (address) {\r\n        return (msg.sender);\r\n    }\r\n\r\n    function returnTime() public view override returns (uint256) {\r\n        return block.timestamp;\r\n    }\r\n\r\n    function returnContents() public view override\r\n        returns (address, string memory, string memory, uint256, uint256, uint256, uint256, auctionState)\r\n    {\r\n        return (myNewAuction.owner, myNewAuction.name, myNewAuction.description,  myNewAuction.startingPrice,\r\n                myNewAuction.auctionDuration, myNewAuction.minIncrement, auctionEnd, STATE);\r\n    }\r\n\r\n    function returnSenderBid(address _sender) public view returns(uint256){\r\n        return bids[_sender];\r\n    }\r\n\r\n    function transferHighestBid() payable public virtual override auctionBidders returns(bool){\r\n       \r\n        /*transfer highest bid to auction owner*/\r\n        ended = true;\r\n        \r\n        recipient = myNewAuction.owner;\r\n        recipient.transfer(highestBid);\r\n        STATE=auctionState.OVER;\r\n        emit ProviderWithdrawsEvent(\"Provider withdraws: \", highestBid, msg.sender); // Announce winnings withdrawn\r\n        return true;\r\n\r\n    }\r\n\r\n    function refundBidders() payable public virtual override auctionBidders returns(bool){\r\n         /*refund bidders*/\r\n        if (bidders.length> 1) {\r\n            for (uint256 i = 0; i < bidders.length - 1; i++) {\r\n                recipient = payable(bidders[i]);\r\n                recipient.transfer(\r\n                    bids[bidders[i]]\r\n                );\r\n            }\r\n        }\r\n        return true;\r\n    }\r\n\r\n    function returnState() public view override returns (auctionState) {\r\n        return STATE;\r\n    }\r\n\r\n    function getIpfsHash() public view override returns (string memory){\r\n        return myNewAuction.ipfsHash;\r\n     \r\n    }\r\n\r\n}\r\n",
  "sourcePath": "D:\\webdev projects\\trading-app\\ethereum-auction-app\\contracts\\Auction.sol",
  "compiler": {
    "name": "solc",
    "version": "0.8.11+commit.d7f03943.Emscripten.clang"
  },
  "schemaVersion": "3.4.4",
  "updatedAt": "2022-07-19T17:15:32.890Z",
  "networkType": "ethereum",
  "devdoc": {
    "kind": "dev",
    "methods": {},
    "version": 1
  },
  "userdoc": {
    "events": {
      "CreatedEvent(string,address,uint256)": {
        "notice": "Events"
      }
    },
    "kind": "user",
    "methods": {
      "bid()": {
        "notice": "Functions"
      }
    },
    "version": 1
  }
}