{
  "contractName": "AuctionList",
  "abi": [
    {
      "inputs": [
        {
          "internalType": "uint256",
          "name": "",
          "type": "uint256"
        }
      ],
      "name": "auctions",
      "outputs": [
        {
          "internalType": "contract MyAuction",
          "name": "",
          "type": "address"
        }
      ],
      "stateMutability": "view",
      "type": "function",
      "constant": true
    },
    {
      "inputs": [],
      "name": "newDetails",
      "outputs": [
        {
          "internalType": "address payable",
          "name": "owner",
          "type": "address"
        },
        {
          "internalType": "string",
          "name": "name",
          "type": "string"
        },
        {
          "internalType": "string",
          "name": "description",
          "type": "string"
        },
        {
          "internalType": "uint256",
          "name": "startingPrice",
          "type": "uint256"
        },
        {
          "internalType": "uint256",
          "name": "auctionDuration",
          "type": "uint256"
        },
        {
          "internalType": "uint256",
          "name": "minIncrement",
          "type": "uint256"
        }
      ],
      "stateMutability": "view",
      "type": "function",
      "constant": true
    },
    {
      "inputs": [
        {
          "internalType": "address payable",
          "name": "_owner",
          "type": "address"
        },
        {
          "internalType": "string",
          "name": "_name",
          "type": "string"
        },
        {
          "internalType": "string",
          "name": "_description",
          "type": "string"
        },
        {
          "internalType": "uint256",
          "name": "_startingPrice",
          "type": "uint256"
        },
        {
          "internalType": "uint256",
          "name": "_auctionDuration",
          "type": "uint256"
        },
        {
          "internalType": "uint256",
          "name": "_minIncrement",
          "type": "uint256"
        }
      ],
      "name": "createAuctions",
      "outputs": [],
      "stateMutability": "payable",
      "type": "function",
      "payable": true
    },
    {
      "inputs": [],
      "name": "getAllAuctions",
      "outputs": [
        {
          "internalType": "contract MyAuction[]",
          "name": "",
          "type": "address[]"
        }
      ],
      "stateMutability": "view",
      "type": "function",
      "constant": true
    },
    {
      "inputs": [],
      "name": "getAllAuctionDetails",
      "outputs": [
        {
          "components": [
            {
              "internalType": "address payable",
              "name": "owner",
              "type": "address"
            },
            {
              "internalType": "string",
              "name": "name",
              "type": "string"
            },
            {
              "internalType": "string",
              "name": "description",
              "type": "string"
            },
            {
              "internalType": "uint256",
              "name": "startingPrice",
              "type": "uint256"
            },
            {
              "internalType": "uint256",
              "name": "auctionDuration",
              "type": "uint256"
            },
            {
              "internalType": "uint256",
              "name": "minIncrement",
              "type": "uint256"
            }
          ],
          "internalType": "struct AuctionList.Details[]",
          "name": "",
          "type": "tuple[]"
        }
      ],
      "stateMutability": "view",
      "type": "function",
      "constant": true
    }
  ],
  "bytecode": "0x608060405234801561001057600080fd5b5061373b806100206000396000f3fe608060405260043610620000505760003560e01c806348bd86041462000055578063571a26a0146200008557806357b518a914620000c9578063bbd22aec14620000e9578063cbd2bdfd146200011e575b600080fd5b3480156200006257600080fd5b506200006d6200014e565b6040516200007c919062000b9f565b60405180910390f35b3480156200009257600080fd5b50620000b16004803603810190620000ab919062000c08565b62000357565b604051620000c0919062000ca5565b60405180910390f35b620000e76004803603810190620000e1919062000e44565b62000397565b005b348015620000f657600080fd5b5062000101620005df565b604051620001159695949392919062000f92565b60405180910390f35b3480156200012b57600080fd5b506200013662000749565b604051620001459190620010db565b60405180910390f35b60606007805480602002602001604051908101604052809291908181526020016000905b828210156200034e57838290600052602060002090600602016040518060c00160405290816000820160009054906101000a900473ffffffffffffffffffffffffffffffffffffffff1673ffffffffffffffffffffffffffffffffffffffff1673ffffffffffffffffffffffffffffffffffffffff168152602001600182018054620001fe906200112e565b80601f01602080910402602001604051908101604052809291908181526020018280546200022c906200112e565b80156200027d5780601f1062000251576101008083540402835291602001916200027d565b820191906000526020600020905b8154815290600101906020018083116200025f57829003601f168201915b5050505050815260200160028201805462000298906200112e565b80601f0160208091040260200160405190810160405280929190818152602001828054620002c6906200112e565b8015620003175780601f10620002eb5761010080835404028352916020019162000317565b820191906000526020600020905b815481529060010190602001808311620002f957829003601f168201915b5050505050815260200160038201548152602001600482015481526020016005820154815250508152602001906001019062000172565b50505050905090565b600081815481106200036857600080fd5b906000526020600020016000915054906101000a900473ffffffffffffffffffffffffffffffffffffffff1681565b6000868686868686604051620003ad90620007d9565b620003be9695949392919062000f92565b604051809103906000f080158015620003db573d6000803e3d6000fd5b50905086600160000160006101000a81548173ffffffffffffffffffffffffffffffffffffffff021916908373ffffffffffffffffffffffffffffffffffffffff160217905550856001800190805190602001906200043c929190620007e7565b50846001600201908051906020019062000458929190620007e7565b508360016003018190555082600160040181905550816001600501819055506007600190806001815401808255809150506001900390600052602060002090600602016000909190919091506000820160009054906101000a900473ffffffffffffffffffffffffffffffffffffffff168160000160006101000a81548173ffffffffffffffffffffffffffffffffffffffff021916908373ffffffffffffffffffffffffffffffffffffffff160217905550600182018160010190805462000521906200112e565b6200052e92919062000878565b50600282018160020190805462000545906200112e565b6200055292919062000878565b5060038201548160030155600482015481600401556005820154816005015550506000819080600181540180825580915050600190039060005260206000200160009091909190916101000a81548173ffffffffffffffffffffffffffffffffffffffff021916908373ffffffffffffffffffffffffffffffffffffffff16021790555050505050505050565b60018060000160009054906101000a900473ffffffffffffffffffffffffffffffffffffffff169080600101805462000618906200112e565b80601f016020809104026020016040519081016040528092919081815260200182805462000646906200112e565b8015620006975780601f106200066b5761010080835404028352916020019162000697565b820191906000526020600020905b8154815290600101906020018083116200067957829003601f168201915b505050505090806002018054620006ae906200112e565b80601f0160208091040260200160405190810160405280929190818152602001828054620006dc906200112e565b80156200072d5780601f1062000701576101008083540402835291602001916200072d565b820191906000526020600020905b8154815290600101906020018083116200070f57829003601f168201915b5050505050908060030154908060040154908060050154905086565b60606000805480602002602001604051908101604052809291908181526020018280548015620007cf57602002820191906000526020600020905b8160009054906101000a900473ffffffffffffffffffffffffffffffffffffffff1673ffffffffffffffffffffffffffffffffffffffff168152602001906001019080831162000784575b5050505050905090565b6125a1806200116583390190565b828054620007f5906200112e565b90600052602060002090601f01602090048101928262000819576000855562000865565b82601f106200083457805160ff191683800117855562000865565b8280016001018555821562000865579182015b828111156200086457825182559160200191906001019062000847565b5b50905062000874919062000910565b5090565b82805462000886906200112e565b90600052602060002090601f016020900481019282620008aa5760008555620008fd565b82601f10620008bd5780548555620008fd565b82800160010185558215620008fd57600052602060002091601f016020900482015b82811115620008fc578254825591600101919060010190620008df565b5b5090506200090c919062000910565b5090565b5b808211156200092b57600081600090555060010162000911565b5090565b600081519050919050565b600082825260208201905092915050565b6000819050602082019050919050565b600073ffffffffffffffffffffffffffffffffffffffff82169050919050565b600062000988826200095b565b9050919050565b6200099a816200097b565b82525050565b600081519050919050565b600082825260208201905092915050565b60005b83811015620009dc578082015181840152602081019050620009bf565b83811115620009ec576000848401525b50505050565b6000601f19601f8301169050919050565b600062000a1082620009a0565b62000a1c8185620009ab565b935062000a2e818560208601620009bc565b62000a3981620009f2565b840191505092915050565b6000819050919050565b62000a598162000a44565b82525050565b600060c08301600083015162000a7960008601826200098f565b506020830151848203602086015262000a93828262000a03565b9150506040830151848203604086015262000aaf828262000a03565b915050606083015162000ac6606086018262000a4e565b50608083015162000adb608086018262000a4e565b5060a083015162000af060a086018262000a4e565b508091505092915050565b600062000b09838362000a5f565b905092915050565b6000602082019050919050565b600062000b2b826200092f565b62000b3781856200093a565b93508360208202850162000b4b856200094b565b8060005b8581101562000b8d578484038952815162000b6b858262000afb565b945062000b788362000b11565b925060208a0199505060018101905062000b4f565b50829750879550505050505092915050565b6000602082019050818103600083015262000bbb818462000b1e565b905092915050565b6000604051905090565b600080fd5b600080fd5b62000be28162000a44565b811462000bee57600080fd5b50565b60008135905062000c028162000bd7565b92915050565b60006020828403121562000c215762000c2062000bcd565b5b600062000c318482850162000bf1565b91505092915050565b6000819050919050565b600062000c6562000c5f62000c59846200095b565b62000c3a565b6200095b565b9050919050565b600062000c798262000c44565b9050919050565b600062000c8d8262000c6c565b9050919050565b62000c9f8162000c80565b82525050565b600060208201905062000cbc600083018462000c94565b92915050565b62000ccd816200097b565b811462000cd957600080fd5b50565b60008135905062000ced8162000cc2565b92915050565b600080fd5b600080fd5b7f4e487b7100000000000000000000000000000000000000000000000000000000600052604160045260246000fd5b62000d3782620009f2565b810181811067ffffffffffffffff8211171562000d595762000d5862000cfd565b5b80604052505050565b600062000d6e62000bc3565b905062000d7c828262000d2c565b919050565b600067ffffffffffffffff82111562000d9f5762000d9e62000cfd565b5b62000daa82620009f2565b9050602081019050919050565b82818337600083830152505050565b600062000ddd62000dd78462000d81565b62000d62565b90508281526020810184848401111562000dfc5762000dfb62000cf8565b5b62000e0984828562000db7565b509392505050565b600082601f83011262000e295762000e2862000cf3565b5b813562000e3b84826020860162000dc6565b91505092915050565b60008060008060008060c0878903121562000e645762000e6362000bcd565b5b600062000e7489828a0162000cdc565b965050602087013567ffffffffffffffff81111562000e985762000e9762000bd2565b5b62000ea689828a0162000e11565b955050604087013567ffffffffffffffff81111562000eca5762000ec962000bd2565b5b62000ed889828a0162000e11565b945050606062000eeb89828a0162000bf1565b935050608062000efe89828a0162000bf1565b92505060a062000f1189828a0162000bf1565b9150509295509295509295565b62000f29816200097b565b82525050565b600082825260208201905092915050565b600062000f4d82620009a0565b62000f59818562000f2f565b935062000f6b818560208601620009bc565b62000f7681620009f2565b840191505092915050565b62000f8c8162000a44565b82525050565b600060c08201905062000fa9600083018962000f1e565b818103602083015262000fbd818862000f40565b9050818103604083015262000fd3818762000f40565b905062000fe4606083018662000f81565b62000ff3608083018562000f81565b6200100260a083018462000f81565b979650505050505050565b600081519050919050565b600082825260208201905092915050565b6000819050602082019050919050565b620010448162000c80565b82525050565b600062001058838362001039565b60208301905092915050565b6000602082019050919050565b60006200107e826200100d565b6200108a818562001018565b9350620010978362001029565b8060005b83811015620010ce578151620010b288826200104a565b9750620010bf8362001064565b9250506001810190506200109b565b5085935050505092915050565b60006020820190508181036000830152620010f7818462001071565b905092915050565b7f4e487b7100000000000000000000000000000000000000000000000000000000600052602260045260246000fd5b600060028204905060018216806200114757607f821691505b602082108114156200115e576200115d620010ff565b5b5091905056fe6080604052670de0b6b3a76400006004553480156200001d57600080fd5b50604051620025a1380380620025a18339818101604052810190620000439190620004c0565b8573ffffffffffffffffffffffffffffffffffffffff1660008054906101000a9050505085600b60000160006101000a81548173ffffffffffffffffffffffffffffffffffffffff021916908373ffffffffffffffffffffffffffffffffffffffff16021790555084600b6001019080519060200190620000c6929190620001d3565b5083600b6002019080519060200190620000e2929190620001d3565b5082600b6003018190555081600b6004018190555080600b6005018190555042600181905550610e1082620001189190620005c9565b6001546200012791906200062a565b6002819055506000600a60006101000a81548160ff0219169083600381111562000156576200015562000687565b5b02179055507fc426e11486dc129ccdc635299776199c0d16796852239706f543ecc91654a9b6600b600101600b600201600b6003015485600b60050154600154600254600a60009054906101000a900460ff16604051620001bf9897969594939291906200082f565b60405180910390a1505050505050620008cb565b828054620001e190620006e5565b90600052602060002090601f01602090048101928262000205576000855562000251565b82601f106200022057805160ff191683800117855562000251565b8280016001018555821562000251579182015b828111156200025057825182559160200191906001019062000233565b5b50905062000260919062000264565b5090565b5b808211156200027f57600081600090555060010162000265565b5090565b6000604051905090565b600080fd5b600080fd5b600073ffffffffffffffffffffffffffffffffffffffff82169050919050565b6000620002c48262000297565b9050919050565b620002d681620002b7565b8114620002e257600080fd5b50565b600081519050620002f681620002cb565b92915050565b600080fd5b600080fd5b6000601f19601f8301169050919050565b7f4e487b7100000000000000000000000000000000000000000000000000000000600052604160045260246000fd5b620003518262000306565b810181811067ffffffffffffffff8211171562000373576200037262000317565b5b80604052505050565b60006200038862000283565b905062000396828262000346565b919050565b600067ffffffffffffffff821115620003b957620003b862000317565b5b620003c48262000306565b9050602081019050919050565b60005b83811015620003f1578082015181840152602081019050620003d4565b8381111562000401576000848401525b50505050565b60006200041e62000418846200039b565b6200037c565b9050828152602081018484840111156200043d576200043c62000301565b5b6200044a848285620003d1565b509392505050565b600082601f8301126200046a5762000469620002fc565b5b81516200047c84826020860162000407565b91505092915050565b6000819050919050565b6200049a8162000485565b8114620004a657600080fd5b50565b600081519050620004ba816200048f565b92915050565b60008060008060008060c08789031215620004e057620004df6200028d565b5b6000620004f089828a01620002e5565b965050602087015167ffffffffffffffff81111562000514576200051362000292565b5b6200052289828a0162000452565b955050604087015167ffffffffffffffff81111562000546576200054562000292565b5b6200055489828a0162000452565b94505060606200056789828a01620004a9565b93505060806200057a89828a01620004a9565b92505060a06200058d89828a01620004a9565b9150509295509295509295565b7f4e487b7100000000000000000000000000000000000000000000000000000000600052601160045260246000fd5b6000620005d68262000485565b9150620005e38362000485565b9250817fffffffffffffffffffffffffffffffffffffffffffffffffffffffffffffffff04831182151516156200061f576200061e6200059a565b5b828202905092915050565b6000620006378262000485565b9150620006448362000485565b9250827fffffffffffffffffffffffffffffffffffffffffffffffffffffffffffffffff038211156200067c576200067b6200059a565b5b828201905092915050565b7f4e487b7100000000000000000000000000000000000000000000000000000000600052602160045260246000fd5b7f4e487b7100000000000000000000000000000000000000000000000000000000600052602260045260246000fd5b60006002820490506001821680620006fe57607f821691505b60208210811415620007155762000714620006b6565b5b50919050565b600082825260208201905092915050565b60008190508160005260206000209050919050565b600081546200075081620006e5565b6200075c81866200071b565b945060018216600081146200077a57600181146200078d57620007c4565b60ff1983168652602086019350620007c4565b62000798856200072c565b60005b83811015620007bc578154818901526001820191506020810190506200079b565b808801955050505b50505092915050565b620007d88162000485565b82525050565b60048110620007f257620007f162000687565b5b50565b60008190506200080582620007de565b919050565b60006200081782620007f5565b9050919050565b62000829816200080a565b82525050565b60006101008201905081810360008301526200084c818b62000741565b9050818103602083015262000862818a62000741565b9050620008736040830189620007cd565b620008826060830188620007cd565b620008916080830187620007cd565b620008a060a0830186620007cd565b620008af60c0830185620007cd565b620008be60e08301846200081e565b9998505050505050505050565b611cc680620008db6000396000f3fe6080604052600436106101135760003560e01c80634fb2e0be116100a0578063c486456c11610064578063c486456c14610367578063c8287b5814610392578063cc42e83a146103c4578063d57bde79146103ef578063fe67a54b1461041a57610113565b80634fb2e0be1461027e57806362ea82db146102a957806391f90157146102e65780639856836614610311578063a4d64ff41461033c57610113565b80632a24f46c116100e75780632a24f46c146101af5780632cf8d127146101da57806337271cc7146101f85780633b64b631146102165780634f245ef71461025357610113565b80623495a41461011857806303386bcd1461013657806312fa6feb146101665780631998aeef14610191575b600080fd5b610120610438565b60405161012d91906110ea565b60405180910390f35b34801561014257600080fd5b5061014b6104bb565b60405161015d969594939291906111d8565b60405180910390f35b34801561017257600080fd5b5061017b610615565b6040516101889190611262565b60405180910390f35b610199610628565b6040516101a69190611262565b60405180910390f35b3480156101bb57600080fd5b506101c4610af0565b6040516101d1919061127d565b60405180910390f35b6101e2610af6565b6040516101ef91906110ea565b60405180910390f35b610200610afb565b60405161020d9190611262565b60405180910390f35b34801561022257600080fd5b5061023d600480360381019061023891906112c9565b610b00565b60405161024a919061127d565b60405180910390f35b34801561025f57600080fd5b50610268610b49565b604051610275919061127d565b60405180910390f35b34801561028a57600080fd5b50610293610b4f565b6040516102a0919061127d565b60405180910390f35b3480156102b557600080fd5b506102d060048036038101906102cb91906112c9565b610b55565b6040516102dd919061127d565b60405180910390f35b3480156102f257600080fd5b506102fb610b6d565b60405161030891906112f6565b60405180910390f35b34801561031d57600080fd5b50610326610b93565b604051610333919061127d565b60405180910390f35b34801561034857600080fd5b50610351610b9b565b60405161035e91906110ea565b60405180910390f35b34801561037357600080fd5b5061037c610ba3565b6040516103899190611388565b60405180910390f35b34801561039e57600080fd5b506103a7610bb6565b6040516103bb9897969594939291906113a3565b60405180910390f35b3480156103d057600080fd5b506103d9610d4a565b6040516103e69190611262565b60405180910390f35b3480156103fb57600080fd5b50610404610d4f565b604051610411919061127d565b60405180910390f35b610422610d55565b60405161042f91906110ea565b60405180910390f35b60007f15b39dff2f0be4462e5c293c854b95502e922294fe9accbe6f16d4d561ed02e6600660009054906101000a900473ffffffffffffffffffffffffffffffffffffffff1660405161048b9190611500565b60405180910390a1600660009054906101000a900473ffffffffffffffffffffffffffffffffffffffff16905090565b600b8060000160009054906101000a900473ffffffffffffffffffffffffffffffffffffffff16908060010180546104f29061155d565b80601f016020809104026020016040519081016040528092919081815260200182805461051e9061155d565b801561056b5780601f106105405761010080835404028352916020019161056b565b820191906000526020600020905b81548152906001019060200180831161054e57829003601f168201915b5050505050908060020180546105809061155d565b80601f01602080910402602001604051908101604052809291908181526020018280546105ac9061155d565b80156105f95780601f106105ce576101008083540402835291602001916105f9565b820191906000526020600020905b8154815290600101906020018083116105dc57829003601f168201915b5050505050908060030154908060040154908060050154905086565b600360009054906101000a900460ff1681565b6000600b60000160009054906101000a900473ffffffffffffffffffffffffffffffffffffffff1673ffffffffffffffffffffffffffffffffffffffff163373ffffffffffffffffffffffffffffffffffffffff1614156106be576040517f08c379a00000000000000000000000000000000000000000000000000000000081526004016106b590611601565b60405180910390fd5b6002544210610749576001600a60006101000a81548160ff021916908360038111156106ed576106ec611311565b5b02179055507f3ec28d860a01e5f49f8116d9ba38fd21b29575fe98055540ee30e52e35d91745600b600101600b600201600254600a60009054906101000a900460ff166040516107409493929190611702565b60405180910390a15b6001600381111561075d5761075c611311565b5b600a60009054906101000a900460ff16600381111561077f5761077e611311565b5b14156107c0576040517f08c379a00000000000000000000000000000000000000000000000000000000081526004016107b7906117b4565b60405180910390fd5b600454600b600301546107d39190611803565b3411610814576040517f08c379a000000000000000000000000000000000000000000000000000000000815260040161080b906118cf565b60405180910390fd5b6005543411610858576040517f08c379a000000000000000000000000000000000000000000000000000000000815260040161084f90611961565b60405180910390fd5b6000600554146108c957600454600b600501546108759190611803565b600554346108839190611981565b10156108c4576040517f08c379a00000000000000000000000000000000000000000000000000000000081526004016108bb90611a27565b60405180910390fd5b61093c565b600454600b600501546108dc9190611803565b600454600b600301546108ef9190611803565b346108fa9190611981565b101561093b576040517f08c379a000000000000000000000000000000000000000000000000000000000815260040161093290611a27565b60405180910390fd5b5b33600660006101000a81548173ffffffffffffffffffffffffffffffffffffffff021916908373ffffffffffffffffffffffffffffffffffffffff160217905550346005819055506008339080600181540180825580915050600190039060005260206000200160009091909190916101000a81548173ffffffffffffffffffffffffffffffffffffffff021916908373ffffffffffffffffffffffffffffffffffffffff16021790555034600960003373ffffffffffffffffffffffffffffffffffffffff1673ffffffffffffffffffffffffffffffffffffffff16815260200190815260200160002054610a329190611a47565b600960003373ffffffffffffffffffffffffffffffffffffffff1673ffffffffffffffffffffffffffffffffffffffff16815260200190815260200160002081905550600660009054906101000a900473ffffffffffffffffffffffffffffffffffffffff1673ffffffffffffffffffffffffffffffffffffffff167fb87b003ab57b357ac4ac215a3f1c756bd0adf8b876d2d347351a55b4586110e260055433604051610ae1929190611a9d565b60405180910390a26001905090565b60025481565b600090565b600090565b6000600960008373ffffffffffffffffffffffffffffffffffffffff1673ffffffffffffffffffffffffffffffffffffffff168152602001908152602001600020549050919050565b60015481565b60045481565b60096020528060005260406000206000915090505481565b600660009054906101000a900473ffffffffffffffffffffffffffffffffffffffff1681565b600042905090565b600033905090565b600a60009054906101000a900460ff1681565b60006060806000806000806000600b60000160009054906101000a900473ffffffffffffffffffffffffffffffffffffffff16600b600101600b600201600b60030154600b60040154600b60050154600254600a60009054906101000a900460ff16868054610c249061155d565b80601f0160208091040260200160405190810160405280929190818152602001828054610c509061155d565b8015610c9d5780601f10610c7257610100808354040283529160200191610c9d565b820191906000526020600020905b815481529060010190602001808311610c8057829003601f168201915b50505050509650858054610cb09061155d565b80601f0160208091040260200160405190810160405280929190818152602001828054610cdc9061155d565b8015610d295780601f10610cfe57610100808354040283529160200191610d29565b820191906000526020600020905b815481529060010190602001808311610d0c57829003601f168201915b50505050509550975097509750975097509750975097509091929394959697565b600090565b60055481565b60006002544210610de2576001600a60006101000a81548160ff02191690836003811115610d8657610d85611311565b5b02179055507f3ec28d860a01e5f49f8116d9ba38fd21b29575fe98055540ee30e52e35d91745600b600101600b600201600254600a60009054906101000a900460ff16604051610dd99493929190611702565b60405180910390a15b600254421015610e27576040517f08c379a0000000000000000000000000000000000000000000000000000000008152600401610e1e90611b12565b60405180910390fd5b600060088054905011610e6f576040517f08c379a0000000000000000000000000000000000000000000000000000000008152600401610e6690611b7e565b60405180910390fd5b60016008805490501115610fb05760005b6002600880549050610e929190611981565b811015610fae5760088181548110610ead57610eac611b9e565b5b9060005260206000200160009054906101000a900473ffffffffffffffffffffffffffffffffffffffff1673ffffffffffffffffffffffffffffffffffffffff166108fc6009600060088581548110610f0957610f08611b9e565b5b9060005260206000200160009054906101000a900473ffffffffffffffffffffffffffffffffffffffff1673ffffffffffffffffffffffffffffffffffffffff1673ffffffffffffffffffffffffffffffffffffffff168152602001908152602001600020549081150290604051600060405180830381858888f19350505050158015610f9a573d6000803e3d6000fd5b508080610fa690611bcd565b915050610e80565b505b600060088054905011156110285760008054906101000a900473ffffffffffffffffffffffffffffffffffffffff1673ffffffffffffffffffffffffffffffffffffffff166108fc6005549081150290604051600060405180830381858888f19350505050158015611026573d6000803e3d6000fd5b505b7f18512995cecfd313ff86292d988df8fd29652a19a748c6226e59574b3d2a9ea5600660009054906101000a900473ffffffffffffffffffffffffffffffffffffffff166040516110799190611c62565b60405180910390a1600660009054906101000a900473ffffffffffffffffffffffffffffffffffffffff16905090565b600073ffffffffffffffffffffffffffffffffffffffff82169050919050565b60006110d4826110a9565b9050919050565b6110e4816110c9565b82525050565b60006020820190506110ff60008301846110db565b92915050565b6000611110826110a9565b9050919050565b61112081611105565b82525050565b600081519050919050565b600082825260208201905092915050565b60005b83811015611160578082015181840152602081019050611145565b8381111561116f576000848401525b50505050565b6000601f19601f8301169050919050565b600061119182611126565b61119b8185611131565b93506111ab818560208601611142565b6111b481611175565b840191505092915050565b6000819050919050565b6111d2816111bf565b82525050565b600060c0820190506111ed6000830189611117565b81810360208301526111ff8188611186565b905081810360408301526112138187611186565b905061122260608301866111c9565b61122f60808301856111c9565b61123c60a08301846111c9565b979650505050505050565b60008115159050919050565b61125c81611247565b82525050565b60006020820190506112776000830184611253565b92915050565b600060208201905061129260008301846111c9565b92915050565b600080fd5b6112a6816110c9565b81146112b157600080fd5b50565b6000813590506112c38161129d565b92915050565b6000602082840312156112df576112de611298565b5b60006112ed848285016112b4565b91505092915050565b600060208201905061130b6000830184611117565b92915050565b7f4e487b7100000000000000000000000000000000000000000000000000000000600052602160045260246000fd5b6004811061135157611350611311565b5b50565b600081905061136282611340565b919050565b600061137282611354565b9050919050565b61138281611367565b82525050565b600060208201905061139d6000830184611379565b92915050565b6000610100820190506113b9600083018b6110db565b81810360208301526113cb818a611186565b905081810360408301526113df8189611186565b90506113ee60608301886111c9565b6113fb60808301876111c9565b61140860a08301866111c9565b61141560c08301856111c9565b61142260e0830184611379565b9998505050505050505050565b7f54686520686967686573742062696464657220616e642077696e6e6572206f6660008201527f207468652061756374696f6e2069730000000000000000000000000000000000602082015250565b600061148b602f83611131565b91506114968261142f565b604082019050919050565b6000819050919050565b60006114c66114c16114bc846110a9565b6114a1565b6110a9565b9050919050565b60006114d8826114ab565b9050919050565b60006114ea826114cd565b9050919050565b6114fa816114df565b82525050565b600060408201905081810360008301526115198161147e565b905061152860208301846114f1565b92915050565b7f4e487b7100000000000000000000000000000000000000000000000000000000600052602260045260246000fd5b6000600282049050600182168061157557607f821691505b602082108114156115895761158861152e565b5b50919050565b7f596f752061726520746865206f776e65722c20796f752063616e6e6f7420626960008201527f64206f6e20796f7572206974656d000000000000000000000000000000000000602082015250565b60006115eb602e83611131565b91506115f68261158f565b604082019050919050565b6000602082019050818103600083015261161a816115de565b9050919050565b7f546869732061756374696f6e206973206f766572000000000000000000000000600082015250565b6000611657601483611131565b915061166282611621565b602082019050919050565b60008190508160005260206000209050919050565b6000815461168f8161155d565b6116998186611131565b945060018216600081146116b457600181146116c6576116f9565b60ff19831686526020860193506116f9565b6116cf8561166d565b60005b838110156116f1578154818901526001820191506020810190506116d2565b808801955050505b50505092915050565b600060a082019050818103600083015261171b8161164a565b9050818103602083015261172f8187611682565b905081810360408301526117438186611682565b905061175260608301856111c9565b61175f6080830184611379565b95945050505050565b7f546869732061756374696f6e206973206f766572210000000000000000000000600082015250565b600061179e601583611131565b91506117a982611768565b602082019050919050565b600060208201905081810360008301526117cd81611791565b9050919050565b7f4e487b7100000000000000000000000000000000000000000000000000000000600052601160045260246000fd5b600061180e826111bf565b9150611819836111bf565b9250817fffffffffffffffffffffffffffffffffffffffffffffffffffffffffffffffff0483118215151615611852576118516117d4565b5b828202905092915050565b7f4269642068617320746f206265206d6f7265207468616e207374617274696e6760008201527f2070726963650000000000000000000000000000000000000000000000000000602082015250565b60006118b9602683611131565b91506118c48261185d565b604082019050919050565b600060208201905081810360008301526118e8816118ac565b9050919050565b7f4269642068617320746f206265206d6f7265207468616e20746865206869676860008201527f6573742062696400000000000000000000000000000000000000000000000000602082015250565b600061194b602783611131565b9150611956826118ef565b604082019050919050565b6000602082019050818103600083015261197a8161193e565b9050919050565b600061198c826111bf565b9150611997836111bf565b9250828210156119aa576119a96117d4565b5b828203905092915050565b7f4269642068617320746f206265206d6f7265207468616e20746865206269642060008201527f696e6372656d656e740000000000000000000000000000000000000000000000602082015250565b6000611a11602983611131565b9150611a1c826119b5565b604082019050919050565b60006020820190508181036000830152611a4081611a04565b9050919050565b6000611a52826111bf565b9150611a5d836111bf565b9250827fffffffffffffffffffffffffffffffffffffffffffffffffffffffffffffffff03821115611a9257611a916117d4565b5b828201905092915050565b6000604082019050611ab260008301856111c9565b611abf60208301846110db565b9392505050565b7f746869732061756374696f6e206973207374696c6c2072756e6e696e67000000600082015250565b6000611afc601d83611131565b9150611b0782611ac6565b602082019050919050565b60006020820190508181036000830152611b2b81611aef565b9050919050565b7f7468657265206973206e6f206269646465727300000000000000000000000000600082015250565b6000611b68601383611131565b9150611b7382611b32565b602082019050919050565b60006020820190508181036000830152611b9781611b5b565b9050919050565b7f4e487b7100000000000000000000000000000000000000000000000000000000600052603260045260246000fd5b6000611bd8826111bf565b91507fffffffffffffffffffffffffffffffffffffffffffffffffffffffffffffffff821415611c0b57611c0a6117d4565b5b600182019050919050565b7f5468652077696e6e6572206f66207468652061756374696f6e20697300000000600082015250565b6000611c4c601c83611131565b9150611c5782611c16565b602082019050919050565b60006040820190508181036000830152611c7b81611c3f565b9050611c8a60208301846114f1565b9291505056fea2646970667358221220eb8925218c2df9e5f6f21a3ed849dc99e243913fd42bdce0c6c2c5dc68dc95f964736f6c634300080b0033a2646970667358221220c8fc6c2f4faa3e23710132a301893cff8732b7ffefbd09d0fde65034290db5a764736f6c634300080b0033",
  "immutableReferences": {},
  "source": "// SPDX-License-Identifier: MIT\r\npragma solidity >=0.4.22 <=0.8.11;\r\npragma experimental ABIEncoderV2;\r\nimport \"./Auction.sol\";\r\n\r\ncontract AuctionList {\r\n    MyAuction[] public auctions;\r\n\r\n    struct Details {\r\n        address payable owner;\r\n        string name;\r\n        string description;\r\n        uint256 startingPrice;\r\n        uint256 auctionDuration;\r\n        uint256 minIncrement;\r\n    }\r\n    Details public newDetails;\r\n    Details[] details;\r\n\r\n    function createAuctions(\r\n        address payable _owner,\r\n        string memory _name,\r\n        string memory _description,\r\n        uint256 _startingPrice,\r\n        uint256 _auctionDuration,\r\n        uint256 _minIncrement\r\n    ) public payable{\r\n        MyAuction newAuction = new MyAuction(\r\n            _owner,\r\n            _name,\r\n            _description,\r\n            _startingPrice,\r\n            _auctionDuration,\r\n            _minIncrement\r\n        );\r\n        newDetails.owner = _owner;\r\n        newDetails.name = _name;\r\n        newDetails.description = _description;\r\n        newDetails.startingPrice = _startingPrice;\r\n        newDetails.auctionDuration = _auctionDuration;\r\n        newDetails.minIncrement = _minIncrement;\r\n\r\n\r\n        details.push(newDetails);\r\n        auctions.push(newAuction);\r\n    }\r\n\r\n    function getAllAuctions() public view returns (MyAuction[] memory) {\r\n        return auctions;\r\n    }\r\n\r\n    function getAllAuctionDetails() public view returns (Details[] memory) {\r\n        return details;\r\n    }\r\n}\r\n",
  "sourcePath": "D:\\webdev projects\\flexibility\\ethereum-auction-app\\contracts\\AuctionList.sol",
  "compiler": {
    "name": "solc",
    "version": "0.8.11+commit.d7f03943.Emscripten.clang"
  },
  "schemaVersion": "3.4.4",
  "updatedAt": "2022-04-05T12:21:18.810Z",
  "networkType": "ethereum",
  "devdoc": {
    "kind": "dev",
    "methods": {},
    "version": 1
  },
  "userdoc": {
    "kind": "user",
    "methods": {},
    "version": 1
  }
}