{
  "contractName": "MyAuction",
  "abi": [
    {
      "inputs": [
        {
          "internalType": "address payable",
          "name": "_owner",
          "type": "address"
        },
        {
          "internalType": "string",
          "name": "_name",
          "type": "string"
        },
        {
          "internalType": "string",
          "name": "_description",
          "type": "string"
        },
        {
          "internalType": "uint256",
          "name": "_startingPrice",
          "type": "uint256"
        },
        {
          "internalType": "uint256",
          "name": "_auctionDuration",
          "type": "uint256"
        },
        {
          "internalType": "uint256",
          "name": "_minIncrement",
          "type": "uint256"
        },
        {
          "internalType": "string",
          "name": "_ipfsHash",
          "type": "string"
        }
      ],
      "stateMutability": "nonpayable",
      "type": "constructor"
    },
    {
      "anonymous": false,
      "inputs": [
        {
          "indexed": false,
          "internalType": "string",
          "name": "name",
          "type": "string"
        },
        {
          "indexed": false,
          "internalType": "string",
          "name": "description",
          "type": "string"
        },
        {
          "indexed": false,
          "internalType": "uint256",
          "name": "startingPrice",
          "type": "uint256"
        },
        {
          "indexed": false,
          "internalType": "uint256",
          "name": "auctionDuration",
          "type": "uint256"
        },
        {
          "indexed": false,
          "internalType": "uint256",
          "name": "minIncrement",
          "type": "uint256"
        },
        {
          "indexed": false,
          "internalType": "string",
          "name": "ipfsHash",
          "type": "string"
        },
        {
          "indexed": false,
          "internalType": "uint256",
          "name": "auctionStart",
          "type": "uint256"
        },
        {
          "indexed": false,
          "internalType": "uint256",
          "name": "auctionEnd",
          "type": "uint256"
        },
        {
          "indexed": false,
          "internalType": "enum Auction.auctionState",
          "name": "state",
          "type": "uint8"
        }
      ],
      "name": "AuctionDetailsEvent",
      "type": "event"
    },
    {
      "anonymous": false,
      "inputs": [
        {
          "indexed": false,
          "internalType": "string",
          "name": "message",
          "type": "string"
        },
        {
          "indexed": false,
          "internalType": "string",
          "name": "name",
          "type": "string"
        },
        {
          "indexed": false,
          "internalType": "string",
          "name": "description",
          "type": "string"
        },
        {
          "indexed": false,
          "internalType": "uint256",
          "name": "auctionEnd",
          "type": "uint256"
        },
        {
          "indexed": false,
          "internalType": "enum Auction.auctionState",
          "name": "state",
          "type": "uint8"
        }
      ],
      "name": "AuctionOverEvent",
      "type": "event"
    },
    {
      "anonymous": false,
      "inputs": [
        {
          "indexed": true,
          "internalType": "address",
          "name": "highestBidder",
          "type": "address"
        },
        {
          "indexed": false,
          "internalType": "uint256",
          "name": "highestBid",
          "type": "uint256"
        },
        {
          "indexed": false,
          "internalType": "address",
          "name": "sender",
          "type": "address"
        }
      ],
      "name": "BidEvent",
      "type": "event"
    },
    {
      "anonymous": false,
      "inputs": [
        {
          "indexed": false,
          "internalType": "string",
          "name": "message",
          "type": "string"
        },
        {
          "indexed": false,
          "internalType": "uint256",
          "name": "bid",
          "type": "uint256"
        },
        {
          "indexed": false,
          "internalType": "address",
          "name": "sender",
          "type": "address"
        }
      ],
      "name": "BidderWithdrawsEvent",
      "type": "event"
    },
    {
      "anonymous": false,
      "inputs": [
        {
          "indexed": false,
          "internalType": "string",
          "name": "message",
          "type": "string"
        },
        {
          "indexed": false,
          "internalType": "address payable",
          "name": "owner",
          "type": "address"
        },
        {
          "indexed": false,
          "internalType": "uint256",
          "name": "time",
          "type": "uint256"
        }
      ],
      "name": "CreatedEvent",
      "type": "event"
    },
    {
      "anonymous": false,
      "inputs": [
        {
          "indexed": false,
          "internalType": "string",
          "name": "message",
          "type": "string"
        },
        {
          "indexed": false,
          "internalType": "address",
          "name": "sender",
          "type": "address"
        }
      ],
      "name": "HighestBidderEvent",
      "type": "event"
    },
    {
      "anonymous": false,
      "inputs": [
        {
          "indexed": false,
          "internalType": "string",
          "name": "message",
          "type": "string"
        },
        {
          "indexed": false,
          "internalType": "uint256",
          "name": "highestBid",
          "type": "uint256"
        },
        {
          "indexed": false,
          "internalType": "address",
          "name": "sender",
          "type": "address"
        }
      ],
      "name": "ProviderWithdrawsEvent",
      "type": "event"
    },
    {
      "inputs": [],
      "name": "STATE",
      "outputs": [
        {
          "internalType": "enum Auction.auctionState",
          "name": "",
          "type": "uint8"
        }
      ],
      "stateMutability": "view",
      "type": "function"
    },
    {
      "inputs": [],
      "name": "auctionEnd",
      "outputs": [
        {
          "internalType": "uint256",
          "name": "",
          "type": "uint256"
        }
      ],
      "stateMutability": "view",
      "type": "function"
    },
    {
      "inputs": [],
      "name": "auctionStart",
      "outputs": [
        {
          "internalType": "uint256",
          "name": "",
          "type": "uint256"
        }
      ],
      "stateMutability": "view",
      "type": "function"
    },
    {
      "inputs": [
        {
          "internalType": "address",
          "name": "",
          "type": "address"
        }
      ],
      "name": "bids",
      "outputs": [
        {
          "internalType": "uint256",
          "name": "",
          "type": "uint256"
        }
      ],
      "stateMutability": "view",
      "type": "function"
    },
    {
      "inputs": [],
      "name": "ended",
      "outputs": [
        {
          "internalType": "bool",
          "name": "",
          "type": "bool"
        }
      ],
      "stateMutability": "view",
      "type": "function"
    },
    {
      "inputs": [],
      "name": "highestBid",
      "outputs": [
        {
          "internalType": "uint256",
          "name": "",
          "type": "uint256"
        }
      ],
      "stateMutability": "view",
      "type": "function"
    },
    {
      "inputs": [],
      "name": "highestBidder",
      "outputs": [
        {
          "internalType": "address payable",
          "name": "",
          "type": "address"
        }
      ],
      "stateMutability": "view",
      "type": "function"
    },
    {
      "inputs": [],
      "name": "myNewAuction",
      "outputs": [
        {
          "internalType": "address payable",
          "name": "owner",
          "type": "address"
        },
        {
          "internalType": "string",
          "name": "name",
          "type": "string"
        },
        {
          "internalType": "string",
          "name": "description",
          "type": "string"
        },
        {
          "internalType": "uint256",
          "name": "startingPrice",
          "type": "uint256"
        },
        {
          "internalType": "uint256",
          "name": "auctionDuration",
          "type": "uint256"
        },
        {
          "internalType": "uint256",
          "name": "minIncrement",
          "type": "uint256"
        },
        {
          "internalType": "string",
          "name": "ipfsHash",
          "type": "string"
        }
      ],
      "stateMutability": "view",
      "type": "function"
    },
    {
      "inputs": [],
      "name": "oneWei",
      "outputs": [
        {
          "internalType": "uint256",
          "name": "",
          "type": "uint256"
        }
      ],
      "stateMutability": "view",
      "type": "function"
    },
    {
      "inputs": [],
      "name": "withdrawBid",
      "outputs": [
        {
          "internalType": "bool",
          "name": "",
          "type": "bool"
        }
      ],
      "stateMutability": "payable",
      "type": "function"
    },
    {
      "inputs": [],
      "name": "withdrawWinnings",
      "outputs": [
        {
          "internalType": "bool",
          "name": "",
          "type": "bool"
        }
      ],
      "stateMutability": "nonpayable",
      "type": "function"
    },
    {
      "inputs": [],
      "name": "bid",
      "outputs": [
        {
          "internalType": "bool",
          "name": "",
          "type": "bool"
        }
      ],
      "stateMutability": "payable",
      "type": "function"
    },
    {
      "inputs": [],
      "name": "getHighestBidder",
      "outputs": [
        {
          "internalType": "address",
          "name": "",
          "type": "address"
        }
      ],
      "stateMutability": "payable",
      "type": "function"
    },
    {
      "inputs": [],
      "name": "showSender",
      "outputs": [
        {
          "internalType": "address",
          "name": "",
          "type": "address"
        }
      ],
      "stateMutability": "view",
      "type": "function"
    },
    {
      "inputs": [],
      "name": "returnTime",
      "outputs": [
        {
          "internalType": "uint256",
          "name": "",
          "type": "uint256"
        }
      ],
      "stateMutability": "view",
      "type": "function"
    },
    {
      "inputs": [],
      "name": "returnContents",
      "outputs": [
        {
          "internalType": "address",
          "name": "",
          "type": "address"
        },
        {
          "internalType": "string",
          "name": "",
          "type": "string"
        },
        {
          "internalType": "string",
          "name": "",
          "type": "string"
        },
        {
          "internalType": "uint256",
          "name": "",
          "type": "uint256"
        },
        {
          "internalType": "uint256",
          "name": "",
          "type": "uint256"
        },
        {
          "internalType": "uint256",
          "name": "",
          "type": "uint256"
        },
        {
          "internalType": "uint256",
          "name": "",
          "type": "uint256"
        },
        {
          "internalType": "enum Auction.auctionState",
          "name": "",
          "type": "uint8"
        }
      ],
      "stateMutability": "view",
      "type": "function"
    },
    {
      "inputs": [
        {
          "internalType": "address",
          "name": "_sender",
          "type": "address"
        }
      ],
      "name": "returnSenderBid",
      "outputs": [
        {
          "internalType": "uint256",
          "name": "",
          "type": "uint256"
        }
      ],
      "stateMutability": "view",
      "type": "function"
    },
    {
      "inputs": [],
      "name": "transferHighestBid",
      "outputs": [
        {
          "internalType": "bool",
          "name": "",
          "type": "bool"
        }
      ],
      "stateMutability": "payable",
      "type": "function"
    },
    {
      "inputs": [],
      "name": "refundBidders",
      "outputs": [
        {
          "internalType": "bool",
          "name": "",
          "type": "bool"
        }
      ],
      "stateMutability": "payable",
      "type": "function"
    },
    {
      "inputs": [],
      "name": "returnState",
      "outputs": [
        {
          "internalType": "enum Auction.auctionState",
          "name": "",
          "type": "uint8"
        }
      ],
      "stateMutability": "view",
      "type": "function"
    },
    {
      "inputs": [],
      "name": "getIpfsHash",
      "outputs": [
        {
          "internalType": "string",
          "name": "",
          "type": "string"
        }
      ],
      "stateMutability": "view",
      "type": "function"
    }
  ],
  "bytecode": "0x6080604052670de0b6b3a76400006004553480156200001d57600080fd5b50604051620027ce380380620027ce8339818101604052810190620000439190620004e2565b8673ffffffffffffffffffffffffffffffffffffffff1660008054906101000a9050505086600c60000160006101000a81548173ffffffffffffffffffffffffffffffffffffffff021916908373ffffffffffffffffffffffffffffffffffffffff16021790555085600c6001019080519060200190620000c6929190620001f5565b5084600c6002019080519060200190620000e2929190620001f5565b5083600c6003018190555082600c6004018190555081600c6005018190555080600c60060190805190602001906200011c929190620001f5565b5042600181905550603c8362000133919062000621565b60015462000142919062000682565b6002819055506000600a60006101000a81548160ff02191690836003811115620001715762000170620006df565b5b02179055507fe8bad1521b78eb4ddc7e00a6ab119eea905c7d3745ba792692779906fdb212ff600c600101600c600201600c6003015486600c60050154600c600601600154600254600a60009054906101000a900460ff16604051620001e09998979695949392919062000887565b60405180910390a1505050505050506200093b565b82805462000203906200073d565b90600052602060002090601f01602090048101928262000227576000855562000273565b82601f106200024257805160ff191683800117855562000273565b8280016001018555821562000273579182015b828111156200027257825182559160200191906001019062000255565b5b50905062000282919062000286565b5090565b5b80821115620002a157600081600090555060010162000287565b5090565b6000604051905090565b600080fd5b600080fd5b600073ffffffffffffffffffffffffffffffffffffffff82169050919050565b6000620002e682620002b9565b9050919050565b620002f881620002d9565b81146200030457600080fd5b50565b6000815190506200031881620002ed565b92915050565b600080fd5b600080fd5b6000601f19601f8301169050919050565b7f4e487b7100000000000000000000000000000000000000000000000000000000600052604160045260246000fd5b620003738262000328565b810181811067ffffffffffffffff8211171562000395576200039462000339565b5b80604052505050565b6000620003aa620002a5565b9050620003b8828262000368565b919050565b600067ffffffffffffffff821115620003db57620003da62000339565b5b620003e68262000328565b9050602081019050919050565b60005b8381101562000413578082015181840152602081019050620003f6565b8381111562000423576000848401525b50505050565b6000620004406200043a84620003bd565b6200039e565b9050828152602081018484840111156200045f576200045e62000323565b5b6200046c848285620003f3565b509392505050565b600082601f8301126200048c576200048b6200031e565b5b81516200049e84826020860162000429565b91505092915050565b6000819050919050565b620004bc81620004a7565b8114620004c857600080fd5b50565b600081519050620004dc81620004b1565b92915050565b600080600080600080600060e0888a031215620005045762000503620002af565b5b6000620005148a828b0162000307565b975050602088015167ffffffffffffffff811115620005385762000537620002b4565b5b620005468a828b0162000474565b965050604088015167ffffffffffffffff8111156200056a5762000569620002b4565b5b620005788a828b0162000474565b95505060606200058b8a828b01620004cb565b94505060806200059e8a828b01620004cb565b93505060a0620005b18a828b01620004cb565b92505060c088015167ffffffffffffffff811115620005d557620005d4620002b4565b5b620005e38a828b0162000474565b91505092959891949750929550565b7f4e487b7100000000000000000000000000000000000000000000000000000000600052601160045260246000fd5b60006200062e82620004a7565b91506200063b83620004a7565b9250817fffffffffffffffffffffffffffffffffffffffffffffffffffffffffffffffff0483118215151615620006775762000676620005f2565b5b828202905092915050565b60006200068f82620004a7565b91506200069c83620004a7565b9250827fffffffffffffffffffffffffffffffffffffffffffffffffffffffffffffffff03821115620006d457620006d3620005f2565b5b828201905092915050565b7f4e487b7100000000000000000000000000000000000000000000000000000000600052602160045260246000fd5b7f4e487b7100000000000000000000000000000000000000000000000000000000600052602260045260246000fd5b600060028204905060018216806200075657607f821691505b602082108114156200076d576200076c6200070e565b5b50919050565b600082825260208201905092915050565b60008190508160005260206000209050919050565b60008154620007a8816200073d565b620007b4818662000773565b94506001821660008114620007d25760018114620007e5576200081c565b60ff19831686526020860193506200081c565b620007f08562000784565b60005b838110156200081457815481890152600182019150602081019050620007f3565b808801955050505b50505092915050565b6200083081620004a7565b82525050565b600481106200084a5762000849620006df565b5b50565b60008190506200085d8262000836565b919050565b60006200086f826200084d565b9050919050565b620008818162000862565b82525050565b6000610120820190508181036000830152620008a4818c62000799565b90508181036020830152620008ba818b62000799565b9050620008cb604083018a62000825565b620008da606083018962000825565b620008e9608083018862000825565b81810360a0830152620008fd818762000799565b90506200090e60c083018662000825565b6200091d60e083018562000825565b6200092d61010083018462000876565b9a9950505050505050505050565b611e83806200094b6000396000f3fe6080604052600436106101295760003560e01c80634fb2e0be116100ab578063a4d64ff41161006f578063a4d64ff41461039c578063c486456c146103c7578063c8287b58146103f2578063cc42e83a14610424578063d57bde791461044f578063dc9638c71461047a57610129565b80634fb2e0be146102b357806358b45557146102de57806362ea82db1461030957806391f9015714610346578063985683661461037157610129565b80632a24f46c116100f25780632a24f46c146101e457806337271cc71461020f5780633b64b6311461022d5780634db838e01461026a5780634f245ef71461028857610129565b80623495a41461012e57806303386bcd1461014c5780630d435b021461017d57806312fa6feb1461019b5780631998aeef146101c6575b600080fd5b6101366104a5565b60405161014391906112ce565b60405180910390f35b34801561015857600080fd5b50610161610528565b60405161017497969594939291906113bc565b60405180910390f35b610185610710565b604051610192919061145b565b60405180910390f35b3480156101a757600080fd5b506101b0610904565b6040516101bd919061145b565b60405180910390f35b6101ce610917565b6040516101db919061145b565b60405180910390f35b3480156101f057600080fd5b506101f9610ddf565b6040516102069190611476565b60405180910390f35b610217610de5565b604051610224919061145b565b60405180910390f35b34801561023957600080fd5b50610254600480360381019061024f91906114c2565b610dea565b6040516102619190611476565b60405180910390f35b610272610e33565b60405161027f919061145b565b60405180910390f35b34801561029457600080fd5b5061029d610fd5565b6040516102aa9190611476565b60405180910390f35b3480156102bf57600080fd5b506102c8610fdb565b6040516102d59190611476565b60405180910390f35b3480156102ea57600080fd5b506102f3610fe1565b6040516103009190611566565b60405180910390f35b34801561031557600080fd5b50610330600480360381019061032b91906114c2565b610ff8565b60405161033d9190611476565b60405180910390f35b34801561035257600080fd5b5061035b611010565b6040516103689190611581565b60405180910390f35b34801561037d57600080fd5b50610386611036565b6040516103939190611476565b60405180910390f35b3480156103a857600080fd5b506103b161103e565b6040516103be91906112ce565b60405180910390f35b3480156103d357600080fd5b506103dc611046565b6040516103e99190611566565b60405180910390f35b3480156103fe57600080fd5b50610407611059565b60405161041b98979695949392919061159c565b60405180910390f35b34801561043057600080fd5b506104396111ed565b604051610446919061145b565b60405180910390f35b34801561045b57600080fd5b506104646111f2565b6040516104719190611476565b60405180910390f35b34801561048657600080fd5b5061048f6111f8565b60405161049c9190611628565b60405180910390f35b60007f15b39dff2f0be4462e5c293c854b95502e922294fe9accbe6f16d4d561ed02e6600660009054906101000a900473ffffffffffffffffffffffffffffffffffffffff166040516104f8919061171b565b60405180910390a1600660009054906101000a900473ffffffffffffffffffffffffffffffffffffffff16905090565b600c8060000160009054906101000a900473ffffffffffffffffffffffffffffffffffffffff169080600101805461055f90611778565b80601f016020809104026020016040519081016040528092919081815260200182805461058b90611778565b80156105d85780601f106105ad576101008083540402835291602001916105d8565b820191906000526020600020905b8154815290600101906020018083116105bb57829003601f168201915b5050505050908060020180546105ed90611778565b80601f016020809104026020016040519081016040528092919081815260200182805461061990611778565b80156106665780601f1061063b57610100808354040283529160200191610666565b820191906000526020600020905b81548152906001019060200180831161064957829003601f168201915b50505050509080600301549080600401549080600501549080600601805461068d90611778565b80601f01602080910402602001604051908101604052809291908181526020018280546106b990611778565b80156107065780601f106106db57610100808354040283529160200191610706565b820191906000526020600020905b8154815290600101906020018083116106e957829003601f168201915b5050505050905087565b60008060088054905011610759576040517f08c379a0000000000000000000000000000000000000000000000000000000008152600401610750906117f6565b60405180910390fd5b600160088054905011156108fd5760005b600160088054905061077c9190611845565b8110156108fb576008818154811061079757610796611879565b5b9060005260206000200160009054906101000a900473ffffffffffffffffffffffffffffffffffffffff16600760006101000a81548173ffffffffffffffffffffffffffffffffffffffff021916908373ffffffffffffffffffffffffffffffffffffffff160217905550600760009054906101000a900473ffffffffffffffffffffffffffffffffffffffff1673ffffffffffffffffffffffffffffffffffffffff166108fc600960006008858154811061085657610855611879565b5b9060005260206000200160009054906101000a900473ffffffffffffffffffffffffffffffffffffffff1673ffffffffffffffffffffffffffffffffffffffff1673ffffffffffffffffffffffffffffffffffffffff168152602001908152602001600020549081150290604051600060405180830381858888f193505050501580156108e7573d6000803e3d6000fd5b5080806108f3906118a8565b91505061076a565b505b6001905090565b600360009054906101000a900460ff1681565b6000600c60000160009054906101000a900473ffffffffffffffffffffffffffffffffffffffff1673ffffffffffffffffffffffffffffffffffffffff163373ffffffffffffffffffffffffffffffffffffffff1614156109ad576040517f08c379a00000000000000000000000000000000000000000000000000000000081526004016109a490611963565b60405180910390fd5b6002544210610a38576001600a60006101000a81548160ff021916908360038111156109dc576109db6114ef565b5b02179055507f3ec28d860a01e5f49f8116d9ba38fd21b29575fe98055540ee30e52e35d91745600c600101600c600201600254600a60009054906101000a900460ff16604051610a2f9493929190611a64565b60405180910390a15b60016003811115610a4c57610a4b6114ef565b5b600a60009054906101000a900460ff166003811115610a6e57610a6d6114ef565b5b1415610aaf576040517f08c379a0000000000000000000000000000000000000000000000000000000008152600401610aa690611b16565b60405180910390fd5b600454600c60030154610ac29190611b36565b3411610b03576040517f08c379a0000000000000000000000000000000000000000000000000000000008152600401610afa90611c02565b60405180910390fd5b6005543411610b47576040517f08c379a0000000000000000000000000000000000000000000000000000000008152600401610b3e90611c94565b60405180910390fd5b600060055414610bb857600454600c60050154610b649190611b36565b60055434610b729190611845565b1015610bb3576040517f08c379a0000000000000000000000000000000000000000000000000000000008152600401610baa90611d26565b60405180910390fd5b610c2b565b600454600c60050154610bcb9190611b36565b600454600c60030154610bde9190611b36565b34610be99190611845565b1015610c2a576040517f08c379a0000000000000000000000000000000000000000000000000000000008152600401610c2190611d26565b60405180910390fd5b5b33600660006101000a81548173ffffffffffffffffffffffffffffffffffffffff021916908373ffffffffffffffffffffffffffffffffffffffff160217905550346005819055506008339080600181540180825580915050600190039060005260206000200160009091909190916101000a81548173ffffffffffffffffffffffffffffffffffffffff021916908373ffffffffffffffffffffffffffffffffffffffff16021790555034600960003373ffffffffffffffffffffffffffffffffffffffff1673ffffffffffffffffffffffffffffffffffffffff16815260200190815260200160002054610d219190611d46565b600960003373ffffffffffffffffffffffffffffffffffffffff1673ffffffffffffffffffffffffffffffffffffffff16815260200190815260200160002081905550600660009054906101000a900473ffffffffffffffffffffffffffffffffffffffff1673ffffffffffffffffffffffffffffffffffffffff167fb87b003ab57b357ac4ac215a3f1c756bd0adf8b876d2d347351a55b4586110e260055433604051610dd0929190611d9c565b60405180910390a26001905090565b60025481565b600090565b6000600960008373ffffffffffffffffffffffffffffffffffffffff1673ffffffffffffffffffffffffffffffffffffffff168152602001908152602001600020549050919050565b60008060088054905011610e7c576040517f08c379a0000000000000000000000000000000000000000000000000000000008152600401610e73906117f6565b60405180910390fd5b6001600360006101000a81548160ff021916908315150217905550600c60000160009054906101000a900473ffffffffffffffffffffffffffffffffffffffff16600760006101000a81548173ffffffffffffffffffffffffffffffffffffffff021916908373ffffffffffffffffffffffffffffffffffffffff160217905550600760009054906101000a900473ffffffffffffffffffffffffffffffffffffffff1673ffffffffffffffffffffffffffffffffffffffff166108fc6005549081150290604051600060405180830381858888f19350505050158015610f67573d6000803e3d6000fd5b506001600a60006101000a81548160ff02191690836003811115610f8e57610f8d6114ef565b5b02179055507f49fcb660036c8a3b59016bcf8a3aec949c34ca2466be2b3ec6372dbf6fed113660055433604051610fc6929190611e11565b60405180910390a16001905090565b60015481565b60045481565b6000600a60009054906101000a900460ff16905090565b60096020528060005260406000206000915090505481565b600660009054906101000a900473ffffffffffffffffffffffffffffffffffffffff1681565b600042905090565b600033905090565b600a60009054906101000a900460ff1681565b60006060806000806000806000600c60000160009054906101000a900473ffffffffffffffffffffffffffffffffffffffff16600c600101600c600201600c60030154600c60040154600c60050154600254600a60009054906101000a900460ff168680546110c790611778565b80601f01602080910402602001604051908101604052809291908181526020018280546110f390611778565b80156111405780601f1061111557610100808354040283529160200191611140565b820191906000526020600020905b81548152906001019060200180831161112357829003601f168201915b5050505050965085805461115390611778565b80601f016020809104026020016040519081016040528092919081815260200182805461117f90611778565b80156111cc5780601f106111a1576101008083540402835291602001916111cc565b820191906000526020600020905b8154815290600101906020018083116111af57829003601f168201915b50505050509550975097509750975097509750975097509091929394959697565b600090565b60055481565b6060600c600601805461120a90611778565b80601f016020809104026020016040519081016040528092919081815260200182805461123690611778565b80156112835780601f1061125857610100808354040283529160200191611283565b820191906000526020600020905b81548152906001019060200180831161126657829003601f168201915b5050505050905090565b600073ffffffffffffffffffffffffffffffffffffffff82169050919050565b60006112b88261128d565b9050919050565b6112c8816112ad565b82525050565b60006020820190506112e360008301846112bf565b92915050565b60006112f48261128d565b9050919050565b611304816112e9565b82525050565b600081519050919050565b600082825260208201905092915050565b60005b83811015611344578082015181840152602081019050611329565b83811115611353576000848401525b50505050565b6000601f19601f8301169050919050565b60006113758261130a565b61137f8185611315565b935061138f818560208601611326565b61139881611359565b840191505092915050565b6000819050919050565b6113b6816113a3565b82525050565b600060e0820190506113d1600083018a6112fb565b81810360208301526113e3818961136a565b905081810360408301526113f7818861136a565b905061140660608301876113ad565b61141360808301866113ad565b61142060a08301856113ad565b81810360c0830152611432818461136a565b905098975050505050505050565b60008115159050919050565b61145581611440565b82525050565b6000602082019050611470600083018461144c565b92915050565b600060208201905061148b60008301846113ad565b92915050565b600080fd5b61149f816112ad565b81146114aa57600080fd5b50565b6000813590506114bc81611496565b92915050565b6000602082840312156114d8576114d7611491565b5b60006114e6848285016114ad565b91505092915050565b7f4e487b7100000000000000000000000000000000000000000000000000000000600052602160045260246000fd5b6004811061152f5761152e6114ef565b5b50565b60008190506115408261151e565b919050565b600061155082611532565b9050919050565b61156081611545565b82525050565b600060208201905061157b6000830184611557565b92915050565b600060208201905061159660008301846112fb565b92915050565b6000610100820190506115b2600083018b6112bf565b81810360208301526115c4818a61136a565b905081810360408301526115d8818961136a565b90506115e760608301886113ad565b6115f460808301876113ad565b61160160a08301866113ad565b61160e60c08301856113ad565b61161b60e0830184611557565b9998505050505050505050565b60006020820190508181036000830152611642818461136a565b905092915050565b7f54686520686967686573742062696464657220616e642077696e6e6572206f6660008201527f207468652061756374696f6e2069730000000000000000000000000000000000602082015250565b60006116a6602f83611315565b91506116b18261164a565b604082019050919050565b6000819050919050565b60006116e16116dc6116d78461128d565b6116bc565b61128d565b9050919050565b60006116f3826116c6565b9050919050565b6000611705826116e8565b9050919050565b611715816116fa565b82525050565b6000604082019050818103600083015261173481611699565b9050611743602083018461170c565b92915050565b7f4e487b7100000000000000000000000000000000000000000000000000000000600052602260045260246000fd5b6000600282049050600182168061179057607f821691505b602082108114156117a4576117a3611749565b5b50919050565b7f7468657265206973206e6f206269646465727300000000000000000000000000600082015250565b60006117e0601383611315565b91506117eb826117aa565b602082019050919050565b6000602082019050818103600083015261180f816117d3565b9050919050565b7f4e487b7100000000000000000000000000000000000000000000000000000000600052601160045260246000fd5b6000611850826113a3565b915061185b836113a3565b92508282101561186e5761186d611816565b5b828203905092915050565b7f4e487b7100000000000000000000000000000000000000000000000000000000600052603260045260246000fd5b60006118b3826113a3565b91507fffffffffffffffffffffffffffffffffffffffffffffffffffffffffffffffff8214156118e6576118e5611816565b5b600182019050919050565b7f596f752061726520746865206f776e65722c20796f752063616e6e6f7420626960008201527f64206f6e20796f7572206974656d000000000000000000000000000000000000602082015250565b600061194d602e83611315565b9150611958826118f1565b604082019050919050565b6000602082019050818103600083015261197c81611940565b9050919050565b7f546869732061756374696f6e206973206f766572000000000000000000000000600082015250565b60006119b9601483611315565b91506119c482611983565b602082019050919050565b60008190508160005260206000209050919050565b600081546119f181611778565b6119fb8186611315565b94506001821660008114611a165760018114611a2857611a5b565b60ff1983168652602086019350611a5b565b611a31856119cf565b60005b83811015611a5357815481890152600182019150602081019050611a34565b808801955050505b50505092915050565b600060a0820190508181036000830152611a7d816119ac565b90508181036020830152611a9181876119e4565b90508181036040830152611aa581866119e4565b9050611ab460608301856113ad565b611ac16080830184611557565b95945050505050565b7f546869732061756374696f6e206973206f766572210000000000000000000000600082015250565b6000611b00601583611315565b9150611b0b82611aca565b602082019050919050565b60006020820190508181036000830152611b2f81611af3565b9050919050565b6000611b41826113a3565b9150611b4c836113a3565b9250817fffffffffffffffffffffffffffffffffffffffffffffffffffffffffffffffff0483118215151615611b8557611b84611816565b5b828202905092915050565b7f4269642068617320746f206265206d6f7265207468616e207374617274696e6760008201527f2070726963650000000000000000000000000000000000000000000000000000602082015250565b6000611bec602683611315565b9150611bf782611b90565b604082019050919050565b60006020820190508181036000830152611c1b81611bdf565b9050919050565b7f4269642068617320746f206265206d6f7265207468616e20746865206869676860008201527f6573742062696400000000000000000000000000000000000000000000000000602082015250565b6000611c7e602783611315565b9150611c8982611c22565b604082019050919050565b60006020820190508181036000830152611cad81611c71565b9050919050565b7f4269642068617320746f206265206d6f7265207468616e20746865206269642060008201527f696e6372656d656e740000000000000000000000000000000000000000000000602082015250565b6000611d10602983611315565b9150611d1b82611cb4565b604082019050919050565b60006020820190508181036000830152611d3f81611d03565b9050919050565b6000611d51826113a3565b9150611d5c836113a3565b9250827fffffffffffffffffffffffffffffffffffffffffffffffffffffffffffffffff03821115611d9157611d90611816565b5b828201905092915050565b6000604082019050611db160008301856113ad565b611dbe60208301846112bf565b9392505050565b7f50726f7669646572207769746864726177733a20000000000000000000000000600082015250565b6000611dfb601483611315565b9150611e0682611dc5565b602082019050919050565b60006060820190508181036000830152611e2a81611dee565b9050611e3960208301856113ad565b611e4660408301846112bf565b939250505056fea26469706673582212204d401c18a93e960e611b67c83ce25ced41b94dd07cda3ea0d7a90f32c620eebb64736f6c634300080b0033",
  "immutableReferences": {},
  "source": "// SPDX-License-Identifier: MIT\r\npragma solidity >=0.4.22 <=0.8.11;\r\n\r\ncontract Auction {\r\n    address payable internal auctionOwner; // Owner of the auctoin\r\n    uint256 public auctionStart; // Start epoch time\r\n    uint256 public auctionEnd; // End epoch time\r\n    bool public ended;\r\n\r\n\r\n    uint256 public oneWei = 1000000000000000000;\r\n    uint256 public highestBid; // Highest amount bid in Eth\r\n    address payable public  highestBidder; // Highest bidder\r\n\r\n    address payable recipient;\r\n\r\n    address[] bidders; // Array of bidders\r\n    mapping(address => uint256) public bids; // Mapping matching the address of bidder with their total bid\r\n\r\n    enum auctionState {STARTED, OVER, FINALISED, CANCELLED}\r\n    auctionState public STATE; // Auction state (STARTED)\r\n\r\n    string ipfs;\r\n\r\n    struct NewAuction {\r\n        address payable owner;\r\n        string name;\r\n        string description;\r\n        uint256 startingPrice;\r\n        uint256 auctionDuration;\r\n        uint256 minIncrement;\r\n        string ipfsHash;\r\n    }\r\n\r\n    NewAuction public myNewAuction;\r\n\r\n    /** \r\n        Modifiers\r\n        notOwner - Checks sender is not the owner of auction\r\n        validAuction - Checks if auction is still valid\r\n        validBid - Checks the bid is valid\r\n        withdrawWinChecks - Checks before a seller can withdraw highest bid\r\n        withdrawBidChecks - Checks before a bidder can withdraw their bid\r\n        auctionOver - Checks if auction is over\r\n\r\n    */\r\n    modifier notOwner() {\r\n        require(\r\n            msg.sender != myNewAuction.owner,\r\n            \"You are the owner, you cannot bid on your item\"\r\n        );\r\n        _;\r\n    }\r\n\r\n    modifier validAuction() {\r\n        if (block.timestamp >= auctionEnd) {\r\n            STATE = auctionState.OVER;\r\n            emit AuctionOverEvent( \"This auction is over\",  myNewAuction.name, myNewAuction.description, auctionEnd, STATE);\r\n        }\r\n        require(STATE != auctionState.OVER, \"This auction is over!\");\r\n        _;\r\n    }\r\n\r\n    modifier auctionBidders() {\r\n        require(bidders.length >0, \"there is no bidders\");\r\n        _;\r\n    }\r\n\r\n    modifier validBid() {\r\n        require(\r\n            msg.value > myNewAuction.startingPrice * oneWei,\r\n            \"Bid has to be more than starting price\"\r\n        );\r\n        require(\r\n            msg.value > highestBid,\r\n            \"Bid has to be more than the highest bid\"\r\n        );\r\n        if (highestBid != 0) {\r\n            require(\r\n                (msg.value - highestBid) >= myNewAuction.minIncrement * oneWei,\r\n                \"Bid has to be more than the bid increment\"\r\n            );\r\n        } else {\r\n            require(\r\n                (msg.value - (myNewAuction.startingPrice * oneWei)) >=\r\n                    myNewAuction.minIncrement * oneWei,\r\n                \"Bid has to be more than the bid increment\"\r\n            );\r\n        }\r\n        _;\r\n    }\r\n\r\n    modifier withdrawWinChecks(){\r\n        require(block.timestamp > auctionEnd, \"This auction is not over!\"); \r\n        require(msg.sender ==  myNewAuction.owner, \"You are not the owner of the auction\"); \r\n        require(!ended, \"You have already withdrawn the highest bid.\");\r\n        _;\r\n    }\r\n\r\n    modifier withdrawBidChecks() {\r\n        require(msg.sender !=  myNewAuction.owner, \"Only bidders can perform this action\");\r\n        require(bids[msg.sender] > 0, \"There are no bids\");\r\n        _;\r\n    }\r\n\r\n    /**\r\n        Functions\r\n    */\r\n    function bid() payable public virtual returns (bool) {}\r\n    function withdrawWinnings () public virtual returns(bool) {}\r\n    function withdrawBid () public payable virtual returns(bool) {}\r\n    function getHighestBidder () public payable virtual returns (address) {}\r\n    function showSender() public virtual returns (address) {}\r\n    function returnTime() public virtual returns (uint256) {}\r\n    function returnContents() public virtual returns \r\n         (address, string memory, string memory, uint256, uint256, uint256, uint256, auctionState){}\r\n    function transferHighestBid() payable public virtual auctionBidders returns(bool){}\r\n    function refundBidders() payable public virtual auctionBidders returns(bool){}\r\n    function returnState() public virtual returns (auctionState) {}\r\n    function getIpfsHash() public virtual returns(string memory){}\r\n    \r\n    /**\r\n        Events\r\n    */\r\n    event CreatedEvent(string message, address payable owner, uint256 time);\r\n    event BidEvent(address indexed highestBidder, uint256 highestBid, address sender);\r\n    event AuctionDetailsEvent( string name,  string description, uint256 startingPrice, uint256 auctionDuration, \r\n                               uint256 minIncrement, string ipfsHash, uint256 auctionStart, uint256 auctionEnd, auctionState state);\r\n    event AuctionOverEvent( string message, string name, string description, uint256 auctionEnd, auctionState state);\r\n    event ProviderWithdrawsEvent(string message, uint256 highestBid, address sender);\r\n    event BidderWithdrawsEvent(string message, uint256 bid, address sender);\r\n    event HighestBidderEvent(string message, address sender);\r\n    \r\n}\r\n\r\ncontract MyAuction is Auction {\r\n    constructor( address payable _owner, string memory _name, string memory _description, uint256 _startingPrice, uint256 _auctionDuration, uint256 _minIncrement, string memory _ipfsHash) {\r\n        auctionOwner == _owner;\r\n\r\n        myNewAuction.owner = _owner;\r\n        myNewAuction.name = _name;\r\n        myNewAuction.description = _description;\r\n        myNewAuction.startingPrice = _startingPrice;\r\n        myNewAuction.auctionDuration = _auctionDuration;\r\n        myNewAuction.minIncrement = _minIncrement;\r\n        myNewAuction.ipfsHash = _ipfsHash;\r\n\r\n        auctionStart = block.timestamp;\r\n        auctionEnd = auctionStart + (_auctionDuration * 60);\r\n\r\n        STATE = auctionState.STARTED;\r\n        //emit CreatedEvent(\"Auction Created for: \" , auctionOwner , block.timestamp);\r\n        emit AuctionDetailsEvent(myNewAuction.name, myNewAuction.description,  myNewAuction.startingPrice, _auctionDuration,\r\n                                 myNewAuction.minIncrement, myNewAuction.ipfsHash, auctionStart, auctionEnd, STATE );\r\n    }\r\n\r\n    function bid() payable public override notOwner validAuction validBid returns (bool)\r\n    {\r\n        highestBidder = payable(msg.sender);\r\n        highestBid = msg.value;\r\n        bidders.push(msg.sender); // Add bidder's address to the array of participant\r\n        bids[msg.sender] = bids[msg.sender] + msg.value; // Update participant's bid in mapping bids\r\n        emit BidEvent(highestBidder, highestBid, msg.sender); // Announce new highest bid and bidder\r\n        return true; // Successful execution\r\n    }\r\n\r\n   /*function withdrawWinnings () public override withdrawWinChecks returns (bool)\r\n    {\r\n        ended = true;\r\n\r\n        recipient = myNewAuction.owner;\r\n        recipient.transfer(highestBid);\r\n\r\n        STATE = auctionState.FINALISED;\r\n        emit ProviderWithdrawsEvent(\"Provider withdraws: \", highestBid, msg.sender); // Announce winnings withdrawn\r\n        return true;\r\n    }*/\r\n\r\n    /*function withdrawBid() public payable override withdrawBidChecks returns (bool)\r\n    { \r\n        uint amount;\r\n        if (msg.sender == highestBidder){\r\n            recipient = highestBidder;\r\n            amount = bids[msg.sender] - highestBid;\r\n        }\r\n        else {\r\n            recipient = payable(msg.sender);\r\n            amount = bids[msg.sender];\r\n        }\r\n        bids[msg.sender] = 0;\r\n        payable(msg.sender).transfer(amount);\r\n        emit BidderWithdrawsEvent(\"Bidder withdraws bid: \", amount, msg.sender); // Announce bid withrawn\r\n        return true;\r\n    }*/\r\n\r\n    function getHighestBidder() public payable override returns(address)\r\n    {\r\n        emit HighestBidderEvent(\"The highest bidder and winner of the auction is\", highestBidder);\r\n        return highestBidder;     \r\n    }\r\n\r\n    function showSender() public view override returns (address) {\r\n        return (msg.sender);\r\n    }\r\n\r\n    function returnTime() public view override returns (uint256) {\r\n        return block.timestamp;\r\n    }\r\n\r\n    function returnContents() public view override\r\n        returns (address, string memory, string memory, uint256, uint256, uint256, uint256, auctionState)\r\n    {\r\n        return (myNewAuction.owner, myNewAuction.name, myNewAuction.description,  myNewAuction.startingPrice,\r\n                myNewAuction.auctionDuration, myNewAuction.minIncrement, auctionEnd, STATE);\r\n    }\r\n\r\n    function returnSenderBid(address _sender) public view returns(uint256){\r\n        return bids[_sender];\r\n    }\r\n\r\n    function transferHighestBid() payable public virtual override auctionBidders returns(bool){\r\n       \r\n        /*transfer highest bid to auction owner*/\r\n        ended = true;\r\n        \r\n        recipient = myNewAuction.owner;\r\n        recipient.transfer(highestBid);\r\n        STATE=auctionState.OVER;\r\n        emit ProviderWithdrawsEvent(\"Provider withdraws: \", highestBid, msg.sender); // Announce winnings withdrawn\r\n        return true;\r\n\r\n    }\r\n\r\n    function refundBidders() payable public virtual override auctionBidders returns(bool){\r\n         /*refund bidders*/\r\n        if (bidders.length> 1) {\r\n            for (uint256 i = 0; i < bidders.length - 1; i++) {\r\n                recipient = payable(bidders[i]);\r\n                recipient.transfer(\r\n                    bids[bidders[i]]\r\n                );\r\n            }\r\n        }\r\n        return true;\r\n    }\r\n\r\n    function returnState() public view override returns (auctionState) {\r\n        return STATE;\r\n    }\r\n\r\n    function getIpfsHash() public view override returns (string memory){\r\n        return myNewAuction.ipfsHash;\r\n     \r\n    }\r\n\r\n}\r\n",
  "sourcePath": "D:\\webdev projects\\trading-app\\ethereum-auction-app\\contracts\\Auction.sol",
  "compiler": {
    "name": "solc",
    "version": "0.8.11+commit.d7f03943.Emscripten.clang"
  },
  "schemaVersion": "3.4.4",
  "updatedAt": "2022-07-19T17:15:32.907Z",
  "networkType": "ethereum",
  "devdoc": {
    "kind": "dev",
    "methods": {},
    "version": 1
  },
  "userdoc": {
    "events": {
      "CreatedEvent(string,address,uint256)": {
        "notice": "Events"
      }
    },
    "kind": "user",
    "methods": {
      "bid()": {
        "notice": "Functions"
      }
    },
    "version": 1
  }
}