{
  "contractName": "MyAuction",
  "abi": [
    {
      "inputs": [
        {
          "internalType": "address payable",
          "name": "_owner",
          "type": "address"
        },
        {
          "internalType": "string",
          "name": "_name",
          "type": "string"
        },
        {
          "internalType": "string",
          "name": "_description",
          "type": "string"
        },
        {
          "internalType": "uint256",
          "name": "_startingPrice",
          "type": "uint256"
        },
        {
          "internalType": "uint256",
          "name": "_auctionDuration",
          "type": "uint256"
        },
        {
          "internalType": "uint256",
          "name": "_minIncrement",
          "type": "uint256"
        }
      ],
      "stateMutability": "nonpayable",
      "type": "constructor"
    },
    {
      "anonymous": false,
      "inputs": [
        {
          "indexed": false,
          "internalType": "string",
          "name": "name",
          "type": "string"
        },
        {
          "indexed": false,
          "internalType": "string",
          "name": "description",
          "type": "string"
        },
        {
          "indexed": false,
          "internalType": "uint256",
          "name": "startingPrice",
          "type": "uint256"
        },
        {
          "indexed": false,
          "internalType": "uint256",
          "name": "auctionDuration",
          "type": "uint256"
        },
        {
          "indexed": false,
          "internalType": "uint256",
          "name": "minIncrement",
          "type": "uint256"
        },
        {
          "indexed": false,
          "internalType": "uint256",
          "name": "auctionStart",
          "type": "uint256"
        },
        {
          "indexed": false,
          "internalType": "uint256",
          "name": "auctionEnd",
          "type": "uint256"
        },
        {
          "indexed": false,
          "internalType": "enum Auction.auctionState",
          "name": "state",
          "type": "uint8"
        }
      ],
      "name": "AuctionDetailsEvent",
      "type": "event"
    },
    {
      "anonymous": false,
      "inputs": [
        {
          "indexed": false,
          "internalType": "string",
          "name": "message",
          "type": "string"
        },
        {
          "indexed": false,
          "internalType": "string",
          "name": "name",
          "type": "string"
        },
        {
          "indexed": false,
          "internalType": "string",
          "name": "description",
          "type": "string"
        },
        {
          "indexed": false,
          "internalType": "uint256",
          "name": "auctionEnd",
          "type": "uint256"
        },
        {
          "indexed": false,
          "internalType": "enum Auction.auctionState",
          "name": "state",
          "type": "uint8"
        }
      ],
      "name": "AuctionOverEvent",
      "type": "event"
    },
    {
      "anonymous": false,
      "inputs": [
        {
          "indexed": true,
          "internalType": "address",
          "name": "highestBidder",
          "type": "address"
        },
        {
          "indexed": false,
          "internalType": "uint256",
          "name": "highestBid",
          "type": "uint256"
        },
        {
          "indexed": false,
          "internalType": "address",
          "name": "sender",
          "type": "address"
        }
      ],
      "name": "BidEvent",
      "type": "event"
    },
    {
      "anonymous": false,
      "inputs": [
        {
          "indexed": false,
          "internalType": "string",
          "name": "message",
          "type": "string"
        },
        {
          "indexed": false,
          "internalType": "uint256",
          "name": "bid",
          "type": "uint256"
        },
        {
          "indexed": false,
          "internalType": "address",
          "name": "sender",
          "type": "address"
        }
      ],
      "name": "BidderWithdrawsEvent",
      "type": "event"
    },
    {
      "anonymous": false,
      "inputs": [
        {
          "indexed": false,
          "internalType": "string",
          "name": "message",
          "type": "string"
        },
        {
          "indexed": false,
          "internalType": "address payable",
          "name": "owner",
          "type": "address"
        },
        {
          "indexed": false,
          "internalType": "uint256",
          "name": "time",
          "type": "uint256"
        }
      ],
      "name": "CreatedEvent",
      "type": "event"
    },
    {
      "anonymous": false,
      "inputs": [
        {
          "indexed": false,
          "internalType": "string",
          "name": "message",
          "type": "string"
        },
        {
          "indexed": false,
          "internalType": "address",
          "name": "sender",
          "type": "address"
        }
      ],
      "name": "HighestBidderEvent",
      "type": "event"
    },
    {
      "anonymous": false,
      "inputs": [
        {
          "indexed": false,
          "internalType": "string",
          "name": "message",
          "type": "string"
        },
        {
          "indexed": false,
          "internalType": "uint256",
          "name": "highestBid",
          "type": "uint256"
        },
        {
          "indexed": false,
          "internalType": "address",
          "name": "sender",
          "type": "address"
        }
      ],
      "name": "ProviderWithdrawsEvent",
      "type": "event"
    },
    {
      "inputs": [],
      "name": "STATE",
      "outputs": [
        {
          "internalType": "enum Auction.auctionState",
          "name": "",
          "type": "uint8"
        }
      ],
      "stateMutability": "view",
      "type": "function"
    },
    {
      "inputs": [],
      "name": "auctionEnd",
      "outputs": [
        {
          "internalType": "uint256",
          "name": "",
          "type": "uint256"
        }
      ],
      "stateMutability": "view",
      "type": "function"
    },
    {
      "inputs": [],
      "name": "auctionStart",
      "outputs": [
        {
          "internalType": "uint256",
          "name": "",
          "type": "uint256"
        }
      ],
      "stateMutability": "view",
      "type": "function"
    },
    {
      "inputs": [
        {
          "internalType": "address",
          "name": "",
          "type": "address"
        }
      ],
      "name": "bids",
      "outputs": [
        {
          "internalType": "uint256",
          "name": "",
          "type": "uint256"
        }
      ],
      "stateMutability": "view",
      "type": "function"
    },
    {
      "inputs": [],
      "name": "ended",
      "outputs": [
        {
          "internalType": "bool",
          "name": "",
          "type": "bool"
        }
      ],
      "stateMutability": "view",
      "type": "function"
    },
    {
      "inputs": [],
      "name": "highestBid",
      "outputs": [
        {
          "internalType": "uint256",
          "name": "",
          "type": "uint256"
        }
      ],
      "stateMutability": "view",
      "type": "function"
    },
    {
      "inputs": [],
      "name": "highestBidder",
      "outputs": [
        {
          "internalType": "address payable",
          "name": "",
          "type": "address"
        }
      ],
      "stateMutability": "view",
      "type": "function"
    },
    {
      "inputs": [],
      "name": "myNewAuction",
      "outputs": [
        {
          "internalType": "address payable",
          "name": "owner",
          "type": "address"
        },
        {
          "internalType": "string",
          "name": "name",
          "type": "string"
        },
        {
          "internalType": "string",
          "name": "description",
          "type": "string"
        },
        {
          "internalType": "uint256",
          "name": "startingPrice",
          "type": "uint256"
        },
        {
          "internalType": "uint256",
          "name": "auctionDuration",
          "type": "uint256"
        },
        {
          "internalType": "uint256",
          "name": "minIncrement",
          "type": "uint256"
        }
      ],
      "stateMutability": "view",
      "type": "function"
    },
    {
      "inputs": [],
      "name": "oneWei",
      "outputs": [
        {
          "internalType": "uint256",
          "name": "",
          "type": "uint256"
        }
      ],
      "stateMutability": "view",
      "type": "function"
    },
    {
      "inputs": [],
      "name": "withdrawBid",
      "outputs": [
        {
          "internalType": "bool",
          "name": "",
          "type": "bool"
        }
      ],
      "stateMutability": "payable",
      "type": "function"
    },
    {
      "inputs": [],
      "name": "withdrawWinnings",
      "outputs": [
        {
          "internalType": "bool",
          "name": "",
          "type": "bool"
        }
      ],
      "stateMutability": "nonpayable",
      "type": "function"
    },
    {
      "inputs": [],
      "name": "bid",
      "outputs": [
        {
          "internalType": "bool",
          "name": "",
          "type": "bool"
        }
      ],
      "stateMutability": "payable",
      "type": "function"
    },
    {
      "inputs": [],
      "name": "getHighestBidder",
      "outputs": [
        {
          "internalType": "address",
          "name": "",
          "type": "address"
        }
      ],
      "stateMutability": "payable",
      "type": "function"
    },
    {
      "inputs": [],
      "name": "showSender",
      "outputs": [
        {
          "internalType": "address",
          "name": "",
          "type": "address"
        }
      ],
      "stateMutability": "view",
      "type": "function"
    },
    {
      "inputs": [],
      "name": "returnTime",
      "outputs": [
        {
          "internalType": "uint256",
          "name": "",
          "type": "uint256"
        }
      ],
      "stateMutability": "view",
      "type": "function"
    },
    {
      "inputs": [],
      "name": "returnContents",
      "outputs": [
        {
          "internalType": "address",
          "name": "",
          "type": "address"
        },
        {
          "internalType": "string",
          "name": "",
          "type": "string"
        },
        {
          "internalType": "string",
          "name": "",
          "type": "string"
        },
        {
          "internalType": "uint256",
          "name": "",
          "type": "uint256"
        },
        {
          "internalType": "uint256",
          "name": "",
          "type": "uint256"
        },
        {
          "internalType": "uint256",
          "name": "",
          "type": "uint256"
        },
        {
          "internalType": "uint256",
          "name": "",
          "type": "uint256"
        },
        {
          "internalType": "enum Auction.auctionState",
          "name": "",
          "type": "uint8"
        }
      ],
      "stateMutability": "view",
      "type": "function"
    },
    {
      "inputs": [
        {
          "internalType": "address",
          "name": "_sender",
          "type": "address"
        }
      ],
      "name": "returnSenderBid",
      "outputs": [
        {
          "internalType": "uint256",
          "name": "",
          "type": "uint256"
        }
      ],
      "stateMutability": "view",
      "type": "function"
    },
    {
      "inputs": [],
      "name": "transferHighestBid",
      "outputs": [
        {
          "internalType": "bool",
          "name": "",
          "type": "bool"
        }
      ],
      "stateMutability": "payable",
      "type": "function"
    },
    {
      "inputs": [],
      "name": "refundBidders",
      "outputs": [
        {
          "internalType": "bool",
          "name": "",
          "type": "bool"
        }
      ],
      "stateMutability": "payable",
      "type": "function"
    },
    {
      "inputs": [],
      "name": "setFinalised",
      "outputs": [
        {
          "internalType": "bool",
          "name": "",
          "type": "bool"
        }
      ],
      "stateMutability": "payable",
      "type": "function"
    },
    {
      "inputs": [],
      "name": "returnState",
      "outputs": [
        {
          "internalType": "enum Auction.auctionState",
          "name": "",
          "type": "uint8"
        }
      ],
      "stateMutability": "view",
      "type": "function"
    }
  ],
  "bytecode": "0x6080604052670de0b6b3a76400006004553480156200001d57600080fd5b5060405162002670380380620026708339818101604052810190620000439190620004bf565b8573ffffffffffffffffffffffffffffffffffffffff1660008054906101000a9050505085600b60000160006101000a81548173ffffffffffffffffffffffffffffffffffffffff021916908373ffffffffffffffffffffffffffffffffffffffff16021790555084600b6001019080519060200190620000c6929190620001d2565b5083600b6002019080519060200190620000e2929190620001d2565b5082600b6003018190555081600b6004018190555080600b6005018190555042600181905550603c82620001179190620005c8565b60015462000126919062000629565b6002819055506000600a60006101000a81548160ff0219169083600381111562000155576200015462000686565b5b02179055507fc426e11486dc129ccdc635299776199c0d16796852239706f543ecc91654a9b6600b600101600b600201600b6003015485600b60050154600154600254600a60009054906101000a900460ff16604051620001be9897969594939291906200082e565b60405180910390a1505050505050620008ca565b828054620001e090620006e4565b90600052602060002090601f01602090048101928262000204576000855562000250565b82601f106200021f57805160ff191683800117855562000250565b8280016001018555821562000250579182015b828111156200024f57825182559160200191906001019062000232565b5b5090506200025f919062000263565b5090565b5b808211156200027e57600081600090555060010162000264565b5090565b6000604051905090565b600080fd5b600080fd5b600073ffffffffffffffffffffffffffffffffffffffff82169050919050565b6000620002c38262000296565b9050919050565b620002d581620002b6565b8114620002e157600080fd5b50565b600081519050620002f581620002ca565b92915050565b600080fd5b600080fd5b6000601f19601f8301169050919050565b7f4e487b7100000000000000000000000000000000000000000000000000000000600052604160045260246000fd5b620003508262000305565b810181811067ffffffffffffffff8211171562000372576200037162000316565b5b80604052505050565b60006200038762000282565b905062000395828262000345565b919050565b600067ffffffffffffffff821115620003b857620003b762000316565b5b620003c38262000305565b9050602081019050919050565b60005b83811015620003f0578082015181840152602081019050620003d3565b8381111562000400576000848401525b50505050565b60006200041d62000417846200039a565b6200037b565b9050828152602081018484840111156200043c576200043b62000300565b5b62000449848285620003d0565b509392505050565b600082601f830112620004695762000468620002fb565b5b81516200047b84826020860162000406565b91505092915050565b6000819050919050565b620004998162000484565b8114620004a557600080fd5b50565b600081519050620004b9816200048e565b92915050565b60008060008060008060c08789031215620004df57620004de6200028c565b5b6000620004ef89828a01620002e4565b965050602087015167ffffffffffffffff81111562000513576200051262000291565b5b6200052189828a0162000451565b955050604087015167ffffffffffffffff81111562000545576200054462000291565b5b6200055389828a0162000451565b94505060606200056689828a01620004a8565b93505060806200057989828a01620004a8565b92505060a06200058c89828a01620004a8565b9150509295509295509295565b7f4e487b7100000000000000000000000000000000000000000000000000000000600052601160045260246000fd5b6000620005d58262000484565b9150620005e28362000484565b9250817fffffffffffffffffffffffffffffffffffffffffffffffffffffffffffffffff04831182151516156200061e576200061d62000599565b5b828202905092915050565b6000620006368262000484565b9150620006438362000484565b9250827fffffffffffffffffffffffffffffffffffffffffffffffffffffffffffffffff038211156200067b576200067a62000599565b5b828201905092915050565b7f4e487b7100000000000000000000000000000000000000000000000000000000600052602160045260246000fd5b7f4e487b7100000000000000000000000000000000000000000000000000000000600052602260045260246000fd5b60006002820490506001821680620006fd57607f821691505b60208210811415620007145762000713620006b5565b5b50919050565b600082825260208201905092915050565b60008190508160005260206000209050919050565b600081546200074f81620006e4565b6200075b81866200071a565b945060018216600081146200077957600181146200078c57620007c3565b60ff1983168652602086019350620007c3565b62000797856200072b565b60005b83811015620007bb578154818901526001820191506020810190506200079a565b808801955050505b50505092915050565b620007d78162000484565b82525050565b60048110620007f157620007f062000686565b5b50565b60008190506200080482620007dd565b919050565b60006200081682620007f4565b9050919050565b620008288162000809565b82525050565b60006101008201905081810360008301526200084b818b62000740565b9050818103602083015262000861818a62000740565b9050620008726040830189620007cc565b620008816060830188620007cc565b620008906080830187620007cc565b6200089f60a0830186620007cc565b620008ae60c0830185620007cc565b620008bd60e08301846200081d565b9998505050505050505050565b611d9680620008da6000396000f3fe6080604052600436106101295760003560e01c80634f245ef7116100ab578063985683661161006f578063985683661461038e578063a4d64ff4146103b9578063c486456c146103e4578063c8287b581461040f578063cc42e83a14610441578063d57bde791461046c57610129565b80634f245ef7146102a55780634fb2e0be146102d057806358b45557146102fb57806362ea82db1461032657806391f901571461036357610129565b806323f4b3c8116100f257806323f4b3c8146101e35780632a24f46c1461020157806337271cc71461022c5780633b64b6311461024a5780634db838e01461028757610129565b80623495a41461012e57806303386bcd1461014c5780630d435b021461017c57806312fa6feb1461019a5780631998aeef146101c5575b600080fd5b610136610497565b6040516101439190611218565b60405180910390f35b34801561015857600080fd5b5061016161051a565b60405161017396959493929190611306565b60405180910390f35b610184610674565b6040516101919190611390565b60405180910390f35b3480156101a657600080fd5b506101af610868565b6040516101bc9190611390565b60405180910390f35b6101cd61087b565b6040516101da9190611390565b60405180910390f35b6101eb610d43565b6040516101f89190611390565b60405180910390f35b34801561020d57600080fd5b50610216610dbe565b60405161022391906113ab565b60405180910390f35b610234610dc4565b6040516102419190611390565b60405180910390f35b34801561025657600080fd5b50610271600480360381019061026c91906113f7565b610dc9565b60405161027e91906113ab565b60405180910390f35b61028f610e12565b60405161029c9190611390565b60405180910390f35b3480156102b157600080fd5b506102ba610fb4565b6040516102c791906113ab565b60405180910390f35b3480156102dc57600080fd5b506102e5610fba565b6040516102f291906113ab565b60405180910390f35b34801561030757600080fd5b50610310610fc0565b60405161031d919061149b565b60405180910390f35b34801561033257600080fd5b5061034d600480360381019061034891906113f7565b610fd7565b60405161035a91906113ab565b60405180910390f35b34801561036f57600080fd5b50610378610fef565b60405161038591906114b6565b60405180910390f35b34801561039a57600080fd5b506103a3611015565b6040516103b091906113ab565b60405180910390f35b3480156103c557600080fd5b506103ce61101d565b6040516103db9190611218565b60405180910390f35b3480156103f057600080fd5b506103f9611025565b604051610406919061149b565b60405180910390f35b34801561041b57600080fd5b50610424611038565b6040516104389897969594939291906114d1565b60405180910390f35b34801561044d57600080fd5b506104566111cc565b6040516104639190611390565b60405180910390f35b34801561047857600080fd5b506104816111d1565b60405161048e91906113ab565b60405180910390f35b60007f15b39dff2f0be4462e5c293c854b95502e922294fe9accbe6f16d4d561ed02e6600660009054906101000a900473ffffffffffffffffffffffffffffffffffffffff166040516104ea919061162e565b60405180910390a1600660009054906101000a900473ffffffffffffffffffffffffffffffffffffffff16905090565b600b8060000160009054906101000a900473ffffffffffffffffffffffffffffffffffffffff16908060010180546105519061168b565b80601f016020809104026020016040519081016040528092919081815260200182805461057d9061168b565b80156105ca5780601f1061059f576101008083540402835291602001916105ca565b820191906000526020600020905b8154815290600101906020018083116105ad57829003601f168201915b5050505050908060020180546105df9061168b565b80601f016020809104026020016040519081016040528092919081815260200182805461060b9061168b565b80156106585780601f1061062d57610100808354040283529160200191610658565b820191906000526020600020905b81548152906001019060200180831161063b57829003601f168201915b5050505050908060030154908060040154908060050154905086565b600080600880549050116106bd576040517f08c379a00000000000000000000000000000000000000000000000000000000081526004016106b490611709565b60405180910390fd5b600160088054905011156108615760005b60016008805490506106e09190611758565b81101561085f57600881815481106106fb576106fa61178c565b5b9060005260206000200160009054906101000a900473ffffffffffffffffffffffffffffffffffffffff16600760006101000a81548173ffffffffffffffffffffffffffffffffffffffff021916908373ffffffffffffffffffffffffffffffffffffffff160217905550600760009054906101000a900473ffffffffffffffffffffffffffffffffffffffff1673ffffffffffffffffffffffffffffffffffffffff166108fc60096000600885815481106107ba576107b961178c565b5b9060005260206000200160009054906101000a900473ffffffffffffffffffffffffffffffffffffffff1673ffffffffffffffffffffffffffffffffffffffff1673ffffffffffffffffffffffffffffffffffffffff168152602001908152602001600020549081150290604051600060405180830381858888f1935050505015801561084b573d6000803e3d6000fd5b508080610857906117bb565b9150506106ce565b505b6001905090565b600360009054906101000a900460ff1681565b6000600b60000160009054906101000a900473ffffffffffffffffffffffffffffffffffffffff1673ffffffffffffffffffffffffffffffffffffffff163373ffffffffffffffffffffffffffffffffffffffff161415610911576040517f08c379a000000000000000000000000000000000000000000000000000000000815260040161090890611876565b60405180910390fd5b600254421061099c576001600a60006101000a81548160ff021916908360038111156109405761093f611424565b5b02179055507f3ec28d860a01e5f49f8116d9ba38fd21b29575fe98055540ee30e52e35d91745600b600101600b600201600254600a60009054906101000a900460ff166040516109939493929190611977565b60405180910390a15b600160038111156109b0576109af611424565b5b600a60009054906101000a900460ff1660038111156109d2576109d1611424565b5b1415610a13576040517f08c379a0000000000000000000000000000000000000000000000000000000008152600401610a0a90611a29565b60405180910390fd5b600454600b60030154610a269190611a49565b3411610a67576040517f08c379a0000000000000000000000000000000000000000000000000000000008152600401610a5e90611b15565b60405180910390fd5b6005543411610aab576040517f08c379a0000000000000000000000000000000000000000000000000000000008152600401610aa290611ba7565b60405180910390fd5b600060055414610b1c57600454600b60050154610ac89190611a49565b60055434610ad69190611758565b1015610b17576040517f08c379a0000000000000000000000000000000000000000000000000000000008152600401610b0e90611c39565b60405180910390fd5b610b8f565b600454600b60050154610b2f9190611a49565b600454600b60030154610b429190611a49565b34610b4d9190611758565b1015610b8e576040517f08c379a0000000000000000000000000000000000000000000000000000000008152600401610b8590611c39565b60405180910390fd5b5b33600660006101000a81548173ffffffffffffffffffffffffffffffffffffffff021916908373ffffffffffffffffffffffffffffffffffffffff160217905550346005819055506008339080600181540180825580915050600190039060005260206000200160009091909190916101000a81548173ffffffffffffffffffffffffffffffffffffffff021916908373ffffffffffffffffffffffffffffffffffffffff16021790555034600960003373ffffffffffffffffffffffffffffffffffffffff1673ffffffffffffffffffffffffffffffffffffffff16815260200190815260200160002054610c859190611c59565b600960003373ffffffffffffffffffffffffffffffffffffffff1673ffffffffffffffffffffffffffffffffffffffff16815260200190815260200160002081905550600660009054906101000a900473ffffffffffffffffffffffffffffffffffffffff1673ffffffffffffffffffffffffffffffffffffffff167fb87b003ab57b357ac4ac215a3f1c756bd0adf8b876d2d347351a55b4586110e260055433604051610d34929190611caf565b60405180910390a26001905090565b60008060088054905011610d8c576040517f08c379a0000000000000000000000000000000000000000000000000000000008152600401610d8390611709565b60405180910390fd5b6002600a60006101000a81548160ff02191690836003811115610db257610db1611424565b5b02179055506001905090565b60025481565b600090565b6000600960008373ffffffffffffffffffffffffffffffffffffffff1673ffffffffffffffffffffffffffffffffffffffff168152602001908152602001600020549050919050565b60008060088054905011610e5b576040517f08c379a0000000000000000000000000000000000000000000000000000000008152600401610e5290611709565b60405180910390fd5b6001600360006101000a81548160ff021916908315150217905550600b60000160009054906101000a900473ffffffffffffffffffffffffffffffffffffffff16600760006101000a81548173ffffffffffffffffffffffffffffffffffffffff021916908373ffffffffffffffffffffffffffffffffffffffff160217905550600760009054906101000a900473ffffffffffffffffffffffffffffffffffffffff1673ffffffffffffffffffffffffffffffffffffffff166108fc6005549081150290604051600060405180830381858888f19350505050158015610f46573d6000803e3d6000fd5b506001600a60006101000a81548160ff02191690836003811115610f6d57610f6c611424565b5b02179055507f49fcb660036c8a3b59016bcf8a3aec949c34ca2466be2b3ec6372dbf6fed113660055433604051610fa5929190611d24565b60405180910390a16001905090565b60015481565b60045481565b6000600a60009054906101000a900460ff16905090565b60096020528060005260406000206000915090505481565b600660009054906101000a900473ffffffffffffffffffffffffffffffffffffffff1681565b600042905090565b600033905090565b600a60009054906101000a900460ff1681565b60006060806000806000806000600b60000160009054906101000a900473ffffffffffffffffffffffffffffffffffffffff16600b600101600b600201600b60030154600b60040154600b60050154600254600a60009054906101000a900460ff168680546110a69061168b565b80601f01602080910402602001604051908101604052809291908181526020018280546110d29061168b565b801561111f5780601f106110f45761010080835404028352916020019161111f565b820191906000526020600020905b81548152906001019060200180831161110257829003601f168201915b505050505096508580546111329061168b565b80601f016020809104026020016040519081016040528092919081815260200182805461115e9061168b565b80156111ab5780601f10611180576101008083540402835291602001916111ab565b820191906000526020600020905b81548152906001019060200180831161118e57829003601f168201915b50505050509550975097509750975097509750975097509091929394959697565b600090565b60055481565b600073ffffffffffffffffffffffffffffffffffffffff82169050919050565b6000611202826111d7565b9050919050565b611212816111f7565b82525050565b600060208201905061122d6000830184611209565b92915050565b600061123e826111d7565b9050919050565b61124e81611233565b82525050565b600081519050919050565b600082825260208201905092915050565b60005b8381101561128e578082015181840152602081019050611273565b8381111561129d576000848401525b50505050565b6000601f19601f8301169050919050565b60006112bf82611254565b6112c9818561125f565b93506112d9818560208601611270565b6112e2816112a3565b840191505092915050565b6000819050919050565b611300816112ed565b82525050565b600060c08201905061131b6000830189611245565b818103602083015261132d81886112b4565b9050818103604083015261134181876112b4565b905061135060608301866112f7565b61135d60808301856112f7565b61136a60a08301846112f7565b979650505050505050565b60008115159050919050565b61138a81611375565b82525050565b60006020820190506113a56000830184611381565b92915050565b60006020820190506113c060008301846112f7565b92915050565b600080fd5b6113d4816111f7565b81146113df57600080fd5b50565b6000813590506113f1816113cb565b92915050565b60006020828403121561140d5761140c6113c6565b5b600061141b848285016113e2565b91505092915050565b7f4e487b7100000000000000000000000000000000000000000000000000000000600052602160045260246000fd5b6004811061146457611463611424565b5b50565b600081905061147582611453565b919050565b600061148582611467565b9050919050565b6114958161147a565b82525050565b60006020820190506114b0600083018461148c565b92915050565b60006020820190506114cb6000830184611245565b92915050565b6000610100820190506114e7600083018b611209565b81810360208301526114f9818a6112b4565b9050818103604083015261150d81896112b4565b905061151c60608301886112f7565b61152960808301876112f7565b61153660a08301866112f7565b61154360c08301856112f7565b61155060e083018461148c565b9998505050505050505050565b7f54686520686967686573742062696464657220616e642077696e6e6572206f6660008201527f207468652061756374696f6e2069730000000000000000000000000000000000602082015250565b60006115b9602f8361125f565b91506115c48261155d565b604082019050919050565b6000819050919050565b60006115f46115ef6115ea846111d7565b6115cf565b6111d7565b9050919050565b6000611606826115d9565b9050919050565b6000611618826115fb565b9050919050565b6116288161160d565b82525050565b60006040820190508181036000830152611647816115ac565b9050611656602083018461161f565b92915050565b7f4e487b7100000000000000000000000000000000000000000000000000000000600052602260045260246000fd5b600060028204905060018216806116a357607f821691505b602082108114156116b7576116b661165c565b5b50919050565b7f7468657265206973206e6f206269646465727300000000000000000000000000600082015250565b60006116f360138361125f565b91506116fe826116bd565b602082019050919050565b60006020820190508181036000830152611722816116e6565b9050919050565b7f4e487b7100000000000000000000000000000000000000000000000000000000600052601160045260246000fd5b6000611763826112ed565b915061176e836112ed565b92508282101561178157611780611729565b5b828203905092915050565b7f4e487b7100000000000000000000000000000000000000000000000000000000600052603260045260246000fd5b60006117c6826112ed565b91507fffffffffffffffffffffffffffffffffffffffffffffffffffffffffffffffff8214156117f9576117f8611729565b5b600182019050919050565b7f596f752061726520746865206f776e65722c20796f752063616e6e6f7420626960008201527f64206f6e20796f7572206974656d000000000000000000000000000000000000602082015250565b6000611860602e8361125f565b915061186b82611804565b604082019050919050565b6000602082019050818103600083015261188f81611853565b9050919050565b7f546869732061756374696f6e206973206f766572000000000000000000000000600082015250565b60006118cc60148361125f565b91506118d782611896565b602082019050919050565b60008190508160005260206000209050919050565b600081546119048161168b565b61190e818661125f565b94506001821660008114611929576001811461193b5761196e565b60ff198316865260208601935061196e565b611944856118e2565b60005b8381101561196657815481890152600182019150602081019050611947565b808801955050505b50505092915050565b600060a0820190508181036000830152611990816118bf565b905081810360208301526119a481876118f7565b905081810360408301526119b881866118f7565b90506119c760608301856112f7565b6119d4608083018461148c565b95945050505050565b7f546869732061756374696f6e206973206f766572210000000000000000000000600082015250565b6000611a1360158361125f565b9150611a1e826119dd565b602082019050919050565b60006020820190508181036000830152611a4281611a06565b9050919050565b6000611a54826112ed565b9150611a5f836112ed565b9250817fffffffffffffffffffffffffffffffffffffffffffffffffffffffffffffffff0483118215151615611a9857611a97611729565b5b828202905092915050565b7f4269642068617320746f206265206d6f7265207468616e207374617274696e6760008201527f2070726963650000000000000000000000000000000000000000000000000000602082015250565b6000611aff60268361125f565b9150611b0a82611aa3565b604082019050919050565b60006020820190508181036000830152611b2e81611af2565b9050919050565b7f4269642068617320746f206265206d6f7265207468616e20746865206869676860008201527f6573742062696400000000000000000000000000000000000000000000000000602082015250565b6000611b9160278361125f565b9150611b9c82611b35565b604082019050919050565b60006020820190508181036000830152611bc081611b84565b9050919050565b7f4269642068617320746f206265206d6f7265207468616e20746865206269642060008201527f696e6372656d656e740000000000000000000000000000000000000000000000602082015250565b6000611c2360298361125f565b9150611c2e82611bc7565b604082019050919050565b60006020820190508181036000830152611c5281611c16565b9050919050565b6000611c64826112ed565b9150611c6f836112ed565b9250827fffffffffffffffffffffffffffffffffffffffffffffffffffffffffffffffff03821115611ca457611ca3611729565b5b828201905092915050565b6000604082019050611cc460008301856112f7565b611cd16020830184611209565b9392505050565b7f50726f7669646572207769746864726177733a20000000000000000000000000600082015250565b6000611d0e60148361125f565b9150611d1982611cd8565b602082019050919050565b60006060820190508181036000830152611d3d81611d01565b9050611d4c60208301856112f7565b611d596040830184611209565b939250505056fea26469706673582212208aa3b0a36498f9a85eac2a32629b717945b09d5b059fce20cd515699e13539ab64736f6c634300080b0033",
  "immutableReferences": {},
  "source": "// SPDX-License-Identifier: MIT\r\npragma solidity >=0.4.22 <=0.8.11;\r\n\r\ncontract Auction {\r\n    address payable internal auctionOwner; // Owner of the auctoin\r\n    uint256 public auctionStart; // Start epoch time\r\n    uint256 public auctionEnd; // End epoch time\r\n    bool public ended;\r\n\r\n    uint256 public oneWei = 1000000000000000000;\r\n    uint256 public highestBid; // Highest amount bid in Eth\r\n    address payable public  highestBidder; // Highest bidder\r\n\r\n    address payable recipient;\r\n\r\n    address[] bidders; // Array of bidders\r\n    mapping(address => uint256) public bids; // Mapping matching the address of bidder with their total bid\r\n\r\n    enum auctionState {STARTED, OVER, FINALISED, CANCELLED}\r\n    auctionState public STATE; // Auction state (STARTED)\r\n\r\n    struct NewAuction {\r\n        address payable owner;\r\n        string name;\r\n        string description;\r\n        uint256 startingPrice;\r\n        uint256 auctionDuration;\r\n        uint256 minIncrement;\r\n    }\r\n\r\n    NewAuction public myNewAuction;\r\n\r\n    /** \r\n        Modifiers\r\n        notOwner - Checks sender is not the owner of auction\r\n        validAuction - Checks if auction is still valid\r\n        validBid - Checks the bid is valid\r\n        withdrawWinChecks - Checks before a seller can withdraw highest bid\r\n        withdrawBidChecks - Checks before a bidder can withdraw their bid\r\n        auctionOver - Checks if auction is over\r\n\r\n    */\r\n    modifier notOwner() {\r\n        require(\r\n            msg.sender != myNewAuction.owner,\r\n            \"You are the owner, you cannot bid on your item\"\r\n        );\r\n        _;\r\n    }\r\n\r\n    modifier validAuction() {\r\n        if (block.timestamp >= auctionEnd) {\r\n            STATE = auctionState.OVER;\r\n            emit AuctionOverEvent( \"This auction is over\",  myNewAuction.name, myNewAuction.description, auctionEnd, STATE);\r\n        }\r\n        require(STATE != auctionState.OVER, \"This auction is over!\");\r\n        _;\r\n    }\r\n\r\n    modifier auctionBidders() {\r\n        require(bidders.length >0, \"there is no bidders\");\r\n        _;\r\n    }\r\n\r\n    modifier validBid() {\r\n        require(\r\n            msg.value > myNewAuction.startingPrice * oneWei,\r\n            \"Bid has to be more than starting price\"\r\n        );\r\n        require(\r\n            msg.value > highestBid,\r\n            \"Bid has to be more than the highest bid\"\r\n        );\r\n        if (highestBid != 0) {\r\n            require(\r\n                (msg.value - highestBid) >= myNewAuction.minIncrement * oneWei,\r\n                \"Bid has to be more than the bid increment\"\r\n            );\r\n        } else {\r\n            require(\r\n                (msg.value - (myNewAuction.startingPrice * oneWei)) >=\r\n                    myNewAuction.minIncrement * oneWei,\r\n                \"Bid has to be more than the bid increment\"\r\n            );\r\n        }\r\n        _;\r\n    }\r\n\r\n    modifier withdrawWinChecks(){\r\n        require(block.timestamp > auctionEnd, \"This auction is not over!\"); \r\n        require(msg.sender ==  myNewAuction.owner, \"You are not the owner of the auction\"); \r\n        require(!ended, \"You have already withdrawn the highest bid.\");\r\n        _;\r\n    }\r\n\r\n    modifier withdrawBidChecks() {\r\n        require(msg.sender !=  myNewAuction.owner, \"Only bidders can perform this action\");\r\n        require(bids[msg.sender] > 0, \"There are no bids\");\r\n        _;\r\n    }\r\n\r\n    /**\r\n        Functions\r\n    */\r\n    function bid() payable public virtual returns (bool) {}\r\n    function withdrawWinnings () public virtual returns(bool) {}\r\n    function withdrawBid () public payable virtual returns(bool) {}\r\n    function getHighestBidder () public payable virtual returns (address) {}\r\n    function showSender() public virtual returns (address) {}\r\n    function returnTime() public virtual returns (uint256) {}\r\n    function returnContents() public virtual returns \r\n         (address, string memory, string memory, uint256, uint256, uint256, uint256, auctionState){}\r\n    function transferHighestBid() payable public virtual auctionBidders returns(bool){}\r\n    function refundBidders() payable public virtual auctionBidders returns(bool){}\r\n    function setFinalised() payable public virtual returns(bool){}\r\n    function returnState() public virtual returns (auctionState) {}\r\n\r\n\r\n\r\n    \r\n    /**\r\n        Events\r\n    */\r\n    event CreatedEvent(string message, address payable owner, uint256 time);\r\n    event BidEvent(address indexed highestBidder, uint256 highestBid, address sender);\r\n    event AuctionDetailsEvent( string name,  string description, uint256 startingPrice, uint256 auctionDuration, \r\n                               uint256 minIncrement, uint256 auctionStart, uint256 auctionEnd, auctionState state);\r\n    event AuctionOverEvent( string message, string name, string description, uint256 auctionEnd, auctionState state);\r\n    event ProviderWithdrawsEvent(string message, uint256 highestBid, address sender);\r\n    event BidderWithdrawsEvent(string message, uint256 bid, address sender);\r\n    event HighestBidderEvent(string message, address sender);\r\n    \r\n}\r\n\r\ncontract MyAuction is Auction {\r\n    constructor( address payable _owner, string memory _name, string memory _description, uint256 _startingPrice, uint256 _auctionDuration, uint256 _minIncrement) {\r\n        auctionOwner == _owner;\r\n\r\n        myNewAuction.owner = _owner;\r\n        myNewAuction.name = _name;\r\n        myNewAuction.description = _description;\r\n        myNewAuction.startingPrice = _startingPrice;\r\n        myNewAuction.auctionDuration = _auctionDuration;\r\n        myNewAuction.minIncrement = _minIncrement;\r\n\r\n        auctionStart = block.timestamp;\r\n        auctionEnd = auctionStart + (_auctionDuration * 60);\r\n\r\n        STATE = auctionState.STARTED;\r\n        //emit CreatedEvent(\"Auction Created for: \" , auctionOwner , block.timestamp);\r\n        emit AuctionDetailsEvent(myNewAuction.name, myNewAuction.description,  myNewAuction.startingPrice, _auctionDuration,\r\n                                 myNewAuction.minIncrement, auctionStart, auctionEnd, STATE );\r\n    }\r\n\r\n    function bid() payable public override notOwner validAuction validBid returns (bool)\r\n    {\r\n        highestBidder = payable(msg.sender);\r\n        highestBid = msg.value;\r\n        bidders.push(msg.sender); // Add bidder's address to the array of participant\r\n        bids[msg.sender] = bids[msg.sender] + msg.value; // Update participant's bid in mapping bids\r\n        emit BidEvent(highestBidder, highestBid, msg.sender); // Announce new highest bid and bidder\r\n        return true; // Successful execution\r\n    }\r\n\r\n   /*function withdrawWinnings () public override withdrawWinChecks returns (bool)\r\n    {\r\n        ended = true;\r\n\r\n        recipient = myNewAuction.owner;\r\n        recipient.transfer(highestBid);\r\n\r\n        STATE = auctionState.FINALISED;\r\n        emit ProviderWithdrawsEvent(\"Provider withdraws: \", highestBid, msg.sender); // Announce winnings withdrawn\r\n        return true;\r\n    }*/\r\n\r\n    /*function withdrawBid() public payable override withdrawBidChecks returns (bool)\r\n    { \r\n        uint amount;\r\n        if (msg.sender == highestBidder){\r\n            recipient = highestBidder;\r\n            amount = bids[msg.sender] - highestBid;\r\n        }\r\n        else {\r\n            recipient = payable(msg.sender);\r\n            amount = bids[msg.sender];\r\n        }\r\n        bids[msg.sender] = 0;\r\n        payable(msg.sender).transfer(amount);\r\n        emit BidderWithdrawsEvent(\"Bidder withdraws bid: \", amount, msg.sender); // Announce bid withrawn\r\n        return true;\r\n    }*/\r\n\r\n    function getHighestBidder() public payable override returns(address)\r\n    {\r\n        emit HighestBidderEvent(\"The highest bidder and winner of the auction is\", highestBidder);\r\n        return highestBidder;     \r\n    }\r\n\r\n    function showSender() public view override returns (address) {\r\n        return (msg.sender);\r\n    }\r\n\r\n    function returnTime() public view override returns (uint256) {\r\n        return block.timestamp;\r\n    }\r\n\r\n    function returnContents() public view override\r\n        returns (address, string memory, string memory, uint256, uint256, uint256, uint256, auctionState)\r\n    {\r\n        return (myNewAuction.owner, myNewAuction.name, myNewAuction.description,  myNewAuction.startingPrice,\r\n                myNewAuction.auctionDuration, myNewAuction.minIncrement, auctionEnd, STATE );\r\n    }\r\n\r\n    function returnSenderBid(address _sender) public view returns(uint256){\r\n        return bids[_sender];\r\n    }\r\n\r\n    function transferHighestBid() payable public virtual override auctionBidders returns(bool){\r\n       \r\n        /*transfer highest bid to auction owner*/\r\n        ended = true;\r\n        \r\n        recipient = myNewAuction.owner;\r\n        recipient.transfer(highestBid);\r\n        STATE=auctionState.OVER;\r\n        emit ProviderWithdrawsEvent(\"Provider withdraws: \", highestBid, msg.sender); // Announce winnings withdrawn\r\n        return true;\r\n\r\n    }\r\n\r\n    function refundBidders() payable public virtual override auctionBidders returns(bool){\r\n         /*refund bidders*/\r\n        if (bidders.length> 1) {\r\n            for (uint256 i = 0; i < bidders.length - 1; i++) {\r\n                recipient = payable(bidders[i]);\r\n                recipient.transfer(\r\n                    bids[bidders[i]]\r\n                );\r\n            }\r\n        }\r\n        return true;\r\n    }\r\n\r\n    function setFinalised() payable public virtual override auctionBidders returns(bool){\r\n        STATE = auctionState.FINALISED;\r\n        return true;\r\n    }\r\n\r\n    function returnState() public view override returns (auctionState) {\r\n        return STATE;\r\n    }\r\n\r\n\r\n}\r\n",
  "sourcePath": "D:\\webdev projects\\flexibility\\ethereum-auction-app\\contracts\\Auction.sol",
  "compiler": {
    "name": "solc",
    "version": "0.8.11+commit.d7f03943.Emscripten.clang"
  },
  "schemaVersion": "3.4.4",
  "updatedAt": "2022-04-27T14:14:03.466Z",
  "networkType": "ethereum",
  "devdoc": {
    "kind": "dev",
    "methods": {},
    "version": 1
  },
  "userdoc": {
    "events": {
      "CreatedEvent(string,address,uint256)": {
        "notice": "Events"
      }
    },
    "kind": "user",
    "methods": {
      "bid()": {
        "notice": "Functions"
      }
    },
    "version": 1
  }
}