{
  "contractName": "MyAuction",
  "abi": [
    {
      "inputs": [
        {
          "internalType": "address payable",
          "name": "_owner",
          "type": "address"
        },
        {
          "internalType": "string",
          "name": "_name",
          "type": "string"
        },
        {
          "internalType": "string",
          "name": "_description",
          "type": "string"
        },
        {
          "internalType": "uint256",
          "name": "_startingPrice",
          "type": "uint256"
        },
        {
          "internalType": "uint256",
          "name": "_auctionDuration",
          "type": "uint256"
        },
        {
          "internalType": "uint256",
          "name": "_minIncrement",
          "type": "uint256"
        }
      ],
      "stateMutability": "nonpayable",
      "type": "constructor"
    },
    {
      "anonymous": false,
      "inputs": [
        {
          "indexed": false,
          "internalType": "string",
          "name": "name",
          "type": "string"
        },
        {
          "indexed": false,
          "internalType": "string",
          "name": "description",
          "type": "string"
        },
        {
          "indexed": false,
          "internalType": "uint256",
          "name": "startingPrice",
          "type": "uint256"
        },
        {
          "indexed": false,
          "internalType": "uint256",
          "name": "auctionDuration",
          "type": "uint256"
        },
        {
          "indexed": false,
          "internalType": "uint256",
          "name": "minIncrement",
          "type": "uint256"
        },
        {
          "indexed": false,
          "internalType": "uint256",
          "name": "auctionStart",
          "type": "uint256"
        },
        {
          "indexed": false,
          "internalType": "uint256",
          "name": "auctionEnd",
          "type": "uint256"
        },
        {
          "indexed": false,
          "internalType": "enum Auction.auctionState",
          "name": "state",
          "type": "uint8"
        }
      ],
      "name": "AuctionDetailsEvent",
      "type": "event"
    },
    {
      "anonymous": false,
      "inputs": [
        {
          "indexed": false,
          "internalType": "string",
          "name": "message",
          "type": "string"
        },
        {
          "indexed": false,
          "internalType": "address",
          "name": "sender",
          "type": "address"
        }
      ],
      "name": "AuctionOver",
      "type": "event"
    },
    {
      "anonymous": false,
      "inputs": [
        {
          "indexed": false,
          "internalType": "string",
          "name": "message",
          "type": "string"
        },
        {
          "indexed": false,
          "internalType": "string",
          "name": "name",
          "type": "string"
        },
        {
          "indexed": false,
          "internalType": "string",
          "name": "description",
          "type": "string"
        },
        {
          "indexed": false,
          "internalType": "uint256",
          "name": "auctionEnd",
          "type": "uint256"
        },
        {
          "indexed": false,
          "internalType": "enum Auction.auctionState",
          "name": "state",
          "type": "uint8"
        }
      ],
      "name": "AuctionOverEvent",
      "type": "event"
    },
    {
      "anonymous": false,
      "inputs": [
        {
          "indexed": true,
          "internalType": "address",
          "name": "highestBidder",
          "type": "address"
        },
        {
          "indexed": false,
          "internalType": "uint256",
          "name": "highestBid",
          "type": "uint256"
        },
        {
          "indexed": false,
          "internalType": "address",
          "name": "sender",
          "type": "address"
        }
      ],
      "name": "BidEvent",
      "type": "event"
    },
    {
      "anonymous": false,
      "inputs": [
        {
          "indexed": false,
          "internalType": "string",
          "name": "message",
          "type": "string"
        },
        {
          "indexed": false,
          "internalType": "uint256",
          "name": "bid",
          "type": "uint256"
        },
        {
          "indexed": false,
          "internalType": "address",
          "name": "sender",
          "type": "address"
        }
      ],
      "name": "BidderWithdrawsEvent",
      "type": "event"
    },
    {
      "anonymous": false,
      "inputs": [
        {
          "indexed": false,
          "internalType": "string",
          "name": "message",
          "type": "string"
        },
        {
          "indexed": false,
          "internalType": "address payable",
          "name": "owner",
          "type": "address"
        },
        {
          "indexed": false,
          "internalType": "uint256",
          "name": "time",
          "type": "uint256"
        }
      ],
      "name": "CreatedEvent",
      "type": "event"
    },
    {
      "anonymous": false,
      "inputs": [
        {
          "indexed": false,
          "internalType": "string",
          "name": "message",
          "type": "string"
        },
        {
          "indexed": false,
          "internalType": "address",
          "name": "sender",
          "type": "address"
        }
      ],
      "name": "HighestBidderEvent",
      "type": "event"
    },
    {
      "anonymous": false,
      "inputs": [
        {
          "indexed": false,
          "internalType": "string",
          "name": "message",
          "type": "string"
        },
        {
          "indexed": false,
          "internalType": "uint256",
          "name": "highestBid",
          "type": "uint256"
        },
        {
          "indexed": false,
          "internalType": "address",
          "name": "sender",
          "type": "address"
        }
      ],
      "name": "ProviderWithdrawsEvent",
      "type": "event"
    },
    {
      "inputs": [],
      "name": "STATE",
      "outputs": [
        {
          "internalType": "enum Auction.auctionState",
          "name": "",
          "type": "uint8"
        }
      ],
      "stateMutability": "view",
      "type": "function"
    },
    {
      "inputs": [],
      "name": "auctionEnd",
      "outputs": [
        {
          "internalType": "uint256",
          "name": "",
          "type": "uint256"
        }
      ],
      "stateMutability": "view",
      "type": "function"
    },
    {
      "inputs": [],
      "name": "auctionStart",
      "outputs": [
        {
          "internalType": "uint256",
          "name": "",
          "type": "uint256"
        }
      ],
      "stateMutability": "view",
      "type": "function"
    },
    {
      "inputs": [],
      "name": "bidEnd",
      "outputs": [
        {
          "internalType": "address",
          "name": "",
          "type": "address"
        }
      ],
      "stateMutability": "payable",
      "type": "function"
    },
    {
      "inputs": [
        {
          "internalType": "address",
          "name": "",
          "type": "address"
        }
      ],
      "name": "bids",
      "outputs": [
        {
          "internalType": "uint256",
          "name": "",
          "type": "uint256"
        }
      ],
      "stateMutability": "view",
      "type": "function"
    },
    {
      "inputs": [],
      "name": "ended",
      "outputs": [
        {
          "internalType": "bool",
          "name": "",
          "type": "bool"
        }
      ],
      "stateMutability": "view",
      "type": "function"
    },
    {
      "inputs": [],
      "name": "highestBid",
      "outputs": [
        {
          "internalType": "uint256",
          "name": "",
          "type": "uint256"
        }
      ],
      "stateMutability": "view",
      "type": "function"
    },
    {
      "inputs": [],
      "name": "highestBidder",
      "outputs": [
        {
          "internalType": "address payable",
          "name": "",
          "type": "address"
        }
      ],
      "stateMutability": "view",
      "type": "function"
    },
    {
      "inputs": [],
      "name": "myNewAuction",
      "outputs": [
        {
          "internalType": "address payable",
          "name": "owner",
          "type": "address"
        },
        {
          "internalType": "string",
          "name": "name",
          "type": "string"
        },
        {
          "internalType": "string",
          "name": "description",
          "type": "string"
        },
        {
          "internalType": "uint256",
          "name": "startingPrice",
          "type": "uint256"
        },
        {
          "internalType": "uint256",
          "name": "auctionDuration",
          "type": "uint256"
        },
        {
          "internalType": "uint256",
          "name": "minIncrement",
          "type": "uint256"
        }
      ],
      "stateMutability": "view",
      "type": "function"
    },
    {
      "inputs": [],
      "name": "oneWei",
      "outputs": [
        {
          "internalType": "uint256",
          "name": "",
          "type": "uint256"
        }
      ],
      "stateMutability": "view",
      "type": "function"
    },
    {
      "inputs": [],
      "name": "withdrawBid",
      "outputs": [
        {
          "internalType": "bool",
          "name": "",
          "type": "bool"
        }
      ],
      "stateMutability": "payable",
      "type": "function"
    },
    {
      "inputs": [],
      "name": "withdrawWinnings",
      "outputs": [
        {
          "internalType": "bool",
          "name": "",
          "type": "bool"
        }
      ],
      "stateMutability": "nonpayable",
      "type": "function"
    },
    {
      "inputs": [],
      "name": "bid",
      "outputs": [
        {
          "internalType": "bool",
          "name": "",
          "type": "bool"
        }
      ],
      "stateMutability": "payable",
      "type": "function"
    },
    {
      "inputs": [],
      "name": "getHighestBidder",
      "outputs": [
        {
          "internalType": "address",
          "name": "",
          "type": "address"
        }
      ],
      "stateMutability": "payable",
      "type": "function"
    },
    {
      "inputs": [],
      "name": "showSender",
      "outputs": [
        {
          "internalType": "address",
          "name": "",
          "type": "address"
        }
      ],
      "stateMutability": "view",
      "type": "function"
    },
    {
      "inputs": [],
      "name": "returnTime",
      "outputs": [
        {
          "internalType": "uint256",
          "name": "",
          "type": "uint256"
        }
      ],
      "stateMutability": "view",
      "type": "function"
    },
    {
      "inputs": [],
      "name": "returnContents",
      "outputs": [
        {
          "internalType": "address",
          "name": "",
          "type": "address"
        },
        {
          "internalType": "string",
          "name": "",
          "type": "string"
        },
        {
          "internalType": "string",
          "name": "",
          "type": "string"
        },
        {
          "internalType": "uint256",
          "name": "",
          "type": "uint256"
        },
        {
          "internalType": "uint256",
          "name": "",
          "type": "uint256"
        },
        {
          "internalType": "uint256",
          "name": "",
          "type": "uint256"
        },
        {
          "internalType": "uint256",
          "name": "",
          "type": "uint256"
        },
        {
          "internalType": "enum Auction.auctionState",
          "name": "",
          "type": "uint8"
        }
      ],
      "stateMutability": "view",
      "type": "function"
    },
    {
      "inputs": [
        {
          "internalType": "address",
          "name": "_sender",
          "type": "address"
        }
      ],
      "name": "returnSenderBid",
      "outputs": [
        {
          "internalType": "uint256",
          "name": "",
          "type": "uint256"
        }
      ],
      "stateMutability": "view",
      "type": "function"
    },
    {
      "inputs": [],
      "name": "endAuction",
      "outputs": [
        {
          "internalType": "address",
          "name": "",
          "type": "address"
        }
      ],
      "stateMutability": "payable",
      "type": "function"
    }
  ],
  "bytecode": "0x6080604052670de0b6b3a76400006004553480156200001d57600080fd5b50604051620025a1380380620025a18339818101604052810190620000439190620004c0565b8573ffffffffffffffffffffffffffffffffffffffff1660008054906101000a9050505085600b60000160006101000a81548173ffffffffffffffffffffffffffffffffffffffff021916908373ffffffffffffffffffffffffffffffffffffffff16021790555084600b6001019080519060200190620000c6929190620001d3565b5083600b6002019080519060200190620000e2929190620001d3565b5082600b6003018190555081600b6004018190555080600b6005018190555042600181905550610e1082620001189190620005c9565b6001546200012791906200062a565b6002819055506000600a60006101000a81548160ff0219169083600381111562000156576200015562000687565b5b02179055507fc426e11486dc129ccdc635299776199c0d16796852239706f543ecc91654a9b6600b600101600b600201600b6003015485600b60050154600154600254600a60009054906101000a900460ff16604051620001bf9897969594939291906200082f565b60405180910390a1505050505050620008cb565b828054620001e190620006e5565b90600052602060002090601f01602090048101928262000205576000855562000251565b82601f106200022057805160ff191683800117855562000251565b8280016001018555821562000251579182015b828111156200025057825182559160200191906001019062000233565b5b50905062000260919062000264565b5090565b5b808211156200027f57600081600090555060010162000265565b5090565b6000604051905090565b600080fd5b600080fd5b600073ffffffffffffffffffffffffffffffffffffffff82169050919050565b6000620002c48262000297565b9050919050565b620002d681620002b7565b8114620002e257600080fd5b50565b600081519050620002f681620002cb565b92915050565b600080fd5b600080fd5b6000601f19601f8301169050919050565b7f4e487b7100000000000000000000000000000000000000000000000000000000600052604160045260246000fd5b620003518262000306565b810181811067ffffffffffffffff8211171562000373576200037262000317565b5b80604052505050565b60006200038862000283565b905062000396828262000346565b919050565b600067ffffffffffffffff821115620003b957620003b862000317565b5b620003c48262000306565b9050602081019050919050565b60005b83811015620003f1578082015181840152602081019050620003d4565b8381111562000401576000848401525b50505050565b60006200041e62000418846200039b565b6200037c565b9050828152602081018484840111156200043d576200043c62000301565b5b6200044a848285620003d1565b509392505050565b600082601f8301126200046a5762000469620002fc565b5b81516200047c84826020860162000407565b91505092915050565b6000819050919050565b6200049a8162000485565b8114620004a657600080fd5b50565b600081519050620004ba816200048f565b92915050565b60008060008060008060c08789031215620004e057620004df6200028d565b5b6000620004f089828a01620002e5565b965050602087015167ffffffffffffffff81111562000514576200051362000292565b5b6200052289828a0162000452565b955050604087015167ffffffffffffffff81111562000546576200054562000292565b5b6200055489828a0162000452565b94505060606200056789828a01620004a9565b93505060806200057a89828a01620004a9565b92505060a06200058d89828a01620004a9565b9150509295509295509295565b7f4e487b7100000000000000000000000000000000000000000000000000000000600052601160045260246000fd5b6000620005d68262000485565b9150620005e38362000485565b9250817fffffffffffffffffffffffffffffffffffffffffffffffffffffffffffffffff04831182151516156200061f576200061e6200059a565b5b828202905092915050565b6000620006378262000485565b9150620006448362000485565b9250827fffffffffffffffffffffffffffffffffffffffffffffffffffffffffffffffff038211156200067c576200067b6200059a565b5b828201905092915050565b7f4e487b7100000000000000000000000000000000000000000000000000000000600052602160045260246000fd5b7f4e487b7100000000000000000000000000000000000000000000000000000000600052602260045260246000fd5b60006002820490506001821680620006fe57607f821691505b60208210811415620007155762000714620006b6565b5b50919050565b600082825260208201905092915050565b60008190508160005260206000209050919050565b600081546200075081620006e5565b6200075c81866200071b565b945060018216600081146200077a57600181146200078d57620007c4565b60ff1983168652602086019350620007c4565b62000798856200072c565b60005b83811015620007bc578154818901526001820191506020810190506200079b565b808801955050505b50505092915050565b620007d88162000485565b82525050565b60048110620007f257620007f162000687565b5b50565b60008190506200080582620007de565b919050565b60006200081782620007f5565b9050919050565b62000829816200080a565b82525050565b60006101008201905081810360008301526200084c818b62000741565b9050818103602083015262000862818a62000741565b9050620008736040830189620007cd565b620008826060830188620007cd565b620008916080830187620007cd565b620008a060a0830186620007cd565b620008af60c0830185620007cd565b620008be60e08301846200081e565b9998505050505050505050565b611cc680620008db6000396000f3fe6080604052600436106101135760003560e01c80634fb2e0be116100a0578063c486456c11610064578063c486456c14610367578063c8287b5814610392578063cc42e83a146103c4578063d57bde79146103ef578063fe67a54b1461041a57610113565b80634fb2e0be1461027e57806362ea82db146102a957806391f90157146102e65780639856836614610311578063a4d64ff41461033c57610113565b80632a24f46c116100e75780632a24f46c146101af5780632cf8d127146101da57806337271cc7146101f85780633b64b631146102165780634f245ef71461025357610113565b80623495a41461011857806303386bcd1461013657806312fa6feb146101665780631998aeef14610191575b600080fd5b610120610438565b60405161012d91906110ea565b60405180910390f35b34801561014257600080fd5b5061014b6104bb565b60405161015d969594939291906111d8565b60405180910390f35b34801561017257600080fd5b5061017b610615565b6040516101889190611262565b60405180910390f35b610199610628565b6040516101a69190611262565b60405180910390f35b3480156101bb57600080fd5b506101c4610af0565b6040516101d1919061127d565b60405180910390f35b6101e2610af6565b6040516101ef91906110ea565b60405180910390f35b610200610afb565b60405161020d9190611262565b60405180910390f35b34801561022257600080fd5b5061023d600480360381019061023891906112c9565b610b00565b60405161024a919061127d565b60405180910390f35b34801561025f57600080fd5b50610268610b49565b604051610275919061127d565b60405180910390f35b34801561028a57600080fd5b50610293610b4f565b6040516102a0919061127d565b60405180910390f35b3480156102b557600080fd5b506102d060048036038101906102cb91906112c9565b610b55565b6040516102dd919061127d565b60405180910390f35b3480156102f257600080fd5b506102fb610b6d565b60405161030891906112f6565b60405180910390f35b34801561031d57600080fd5b50610326610b93565b604051610333919061127d565b60405180910390f35b34801561034857600080fd5b50610351610b9b565b60405161035e91906110ea565b60405180910390f35b34801561037357600080fd5b5061037c610ba3565b6040516103899190611388565b60405180910390f35b34801561039e57600080fd5b506103a7610bb6565b6040516103bb9897969594939291906113a3565b60405180910390f35b3480156103d057600080fd5b506103d9610d4a565b6040516103e69190611262565b60405180910390f35b3480156103fb57600080fd5b50610404610d4f565b604051610411919061127d565b60405180910390f35b610422610d55565b60405161042f91906110ea565b60405180910390f35b60007f15b39dff2f0be4462e5c293c854b95502e922294fe9accbe6f16d4d561ed02e6600660009054906101000a900473ffffffffffffffffffffffffffffffffffffffff1660405161048b9190611500565b60405180910390a1600660009054906101000a900473ffffffffffffffffffffffffffffffffffffffff16905090565b600b8060000160009054906101000a900473ffffffffffffffffffffffffffffffffffffffff16908060010180546104f29061155d565b80601f016020809104026020016040519081016040528092919081815260200182805461051e9061155d565b801561056b5780601f106105405761010080835404028352916020019161056b565b820191906000526020600020905b81548152906001019060200180831161054e57829003601f168201915b5050505050908060020180546105809061155d565b80601f01602080910402602001604051908101604052809291908181526020018280546105ac9061155d565b80156105f95780601f106105ce576101008083540402835291602001916105f9565b820191906000526020600020905b8154815290600101906020018083116105dc57829003601f168201915b5050505050908060030154908060040154908060050154905086565b600360009054906101000a900460ff1681565b6000600b60000160009054906101000a900473ffffffffffffffffffffffffffffffffffffffff1673ffffffffffffffffffffffffffffffffffffffff163373ffffffffffffffffffffffffffffffffffffffff1614156106be576040517f08c379a00000000000000000000000000000000000000000000000000000000081526004016106b590611601565b60405180910390fd5b6002544210610749576001600a60006101000a81548160ff021916908360038111156106ed576106ec611311565b5b02179055507f3ec28d860a01e5f49f8116d9ba38fd21b29575fe98055540ee30e52e35d91745600b600101600b600201600254600a60009054906101000a900460ff166040516107409493929190611702565b60405180910390a15b6001600381111561075d5761075c611311565b5b600a60009054906101000a900460ff16600381111561077f5761077e611311565b5b14156107c0576040517f08c379a00000000000000000000000000000000000000000000000000000000081526004016107b7906117b4565b60405180910390fd5b600454600b600301546107d39190611803565b3411610814576040517f08c379a000000000000000000000000000000000000000000000000000000000815260040161080b906118cf565b60405180910390fd5b6005543411610858576040517f08c379a000000000000000000000000000000000000000000000000000000000815260040161084f90611961565b60405180910390fd5b6000600554146108c957600454600b600501546108759190611803565b600554346108839190611981565b10156108c4576040517f08c379a00000000000000000000000000000000000000000000000000000000081526004016108bb90611a27565b60405180910390fd5b61093c565b600454600b600501546108dc9190611803565b600454600b600301546108ef9190611803565b346108fa9190611981565b101561093b576040517f08c379a000000000000000000000000000000000000000000000000000000000815260040161093290611a27565b60405180910390fd5b5b33600660006101000a81548173ffffffffffffffffffffffffffffffffffffffff021916908373ffffffffffffffffffffffffffffffffffffffff160217905550346005819055506008339080600181540180825580915050600190039060005260206000200160009091909190916101000a81548173ffffffffffffffffffffffffffffffffffffffff021916908373ffffffffffffffffffffffffffffffffffffffff16021790555034600960003373ffffffffffffffffffffffffffffffffffffffff1673ffffffffffffffffffffffffffffffffffffffff16815260200190815260200160002054610a329190611a47565b600960003373ffffffffffffffffffffffffffffffffffffffff1673ffffffffffffffffffffffffffffffffffffffff16815260200190815260200160002081905550600660009054906101000a900473ffffffffffffffffffffffffffffffffffffffff1673ffffffffffffffffffffffffffffffffffffffff167fb87b003ab57b357ac4ac215a3f1c756bd0adf8b876d2d347351a55b4586110e260055433604051610ae1929190611a9d565b60405180910390a26001905090565b60025481565b600090565b600090565b6000600960008373ffffffffffffffffffffffffffffffffffffffff1673ffffffffffffffffffffffffffffffffffffffff168152602001908152602001600020549050919050565b60015481565b60045481565b60096020528060005260406000206000915090505481565b600660009054906101000a900473ffffffffffffffffffffffffffffffffffffffff1681565b600042905090565b600033905090565b600a60009054906101000a900460ff1681565b60006060806000806000806000600b60000160009054906101000a900473ffffffffffffffffffffffffffffffffffffffff16600b600101600b600201600b60030154600b60040154600b60050154600254600a60009054906101000a900460ff16868054610c249061155d565b80601f0160208091040260200160405190810160405280929190818152602001828054610c509061155d565b8015610c9d5780601f10610c7257610100808354040283529160200191610c9d565b820191906000526020600020905b815481529060010190602001808311610c8057829003601f168201915b50505050509650858054610cb09061155d565b80601f0160208091040260200160405190810160405280929190818152602001828054610cdc9061155d565b8015610d295780601f10610cfe57610100808354040283529160200191610d29565b820191906000526020600020905b815481529060010190602001808311610d0c57829003601f168201915b50505050509550975097509750975097509750975097509091929394959697565b600090565b60055481565b60006002544210610de2576001600a60006101000a81548160ff02191690836003811115610d8657610d85611311565b5b02179055507f3ec28d860a01e5f49f8116d9ba38fd21b29575fe98055540ee30e52e35d91745600b600101600b600201600254600a60009054906101000a900460ff16604051610dd99493929190611702565b60405180910390a15b600254421015610e27576040517f08c379a0000000000000000000000000000000000000000000000000000000008152600401610e1e90611b12565b60405180910390fd5b600060088054905011610e6f576040517f08c379a0000000000000000000000000000000000000000000000000000000008152600401610e6690611b7e565b60405180910390fd5b60016008805490501115610fb05760005b6002600880549050610e929190611981565b811015610fae5760088181548110610ead57610eac611b9e565b5b9060005260206000200160009054906101000a900473ffffffffffffffffffffffffffffffffffffffff1673ffffffffffffffffffffffffffffffffffffffff166108fc6009600060088581548110610f0957610f08611b9e565b5b9060005260206000200160009054906101000a900473ffffffffffffffffffffffffffffffffffffffff1673ffffffffffffffffffffffffffffffffffffffff1673ffffffffffffffffffffffffffffffffffffffff168152602001908152602001600020549081150290604051600060405180830381858888f19350505050158015610f9a573d6000803e3d6000fd5b508080610fa690611bcd565b915050610e80565b505b600060088054905011156110285760008054906101000a900473ffffffffffffffffffffffffffffffffffffffff1673ffffffffffffffffffffffffffffffffffffffff166108fc6005549081150290604051600060405180830381858888f19350505050158015611026573d6000803e3d6000fd5b505b7f18512995cecfd313ff86292d988df8fd29652a19a748c6226e59574b3d2a9ea5600660009054906101000a900473ffffffffffffffffffffffffffffffffffffffff166040516110799190611c62565b60405180910390a1600660009054906101000a900473ffffffffffffffffffffffffffffffffffffffff16905090565b600073ffffffffffffffffffffffffffffffffffffffff82169050919050565b60006110d4826110a9565b9050919050565b6110e4816110c9565b82525050565b60006020820190506110ff60008301846110db565b92915050565b6000611110826110a9565b9050919050565b61112081611105565b82525050565b600081519050919050565b600082825260208201905092915050565b60005b83811015611160578082015181840152602081019050611145565b8381111561116f576000848401525b50505050565b6000601f19601f8301169050919050565b600061119182611126565b61119b8185611131565b93506111ab818560208601611142565b6111b481611175565b840191505092915050565b6000819050919050565b6111d2816111bf565b82525050565b600060c0820190506111ed6000830189611117565b81810360208301526111ff8188611186565b905081810360408301526112138187611186565b905061122260608301866111c9565b61122f60808301856111c9565b61123c60a08301846111c9565b979650505050505050565b60008115159050919050565b61125c81611247565b82525050565b60006020820190506112776000830184611253565b92915050565b600060208201905061129260008301846111c9565b92915050565b600080fd5b6112a6816110c9565b81146112b157600080fd5b50565b6000813590506112c38161129d565b92915050565b6000602082840312156112df576112de611298565b5b60006112ed848285016112b4565b91505092915050565b600060208201905061130b6000830184611117565b92915050565b7f4e487b7100000000000000000000000000000000000000000000000000000000600052602160045260246000fd5b6004811061135157611350611311565b5b50565b600081905061136282611340565b919050565b600061137282611354565b9050919050565b61138281611367565b82525050565b600060208201905061139d6000830184611379565b92915050565b6000610100820190506113b9600083018b6110db565b81810360208301526113cb818a611186565b905081810360408301526113df8189611186565b90506113ee60608301886111c9565b6113fb60808301876111c9565b61140860a08301866111c9565b61141560c08301856111c9565b61142260e0830184611379565b9998505050505050505050565b7f54686520686967686573742062696464657220616e642077696e6e6572206f6660008201527f207468652061756374696f6e2069730000000000000000000000000000000000602082015250565b600061148b602f83611131565b91506114968261142f565b604082019050919050565b6000819050919050565b60006114c66114c16114bc846110a9565b6114a1565b6110a9565b9050919050565b60006114d8826114ab565b9050919050565b60006114ea826114cd565b9050919050565b6114fa816114df565b82525050565b600060408201905081810360008301526115198161147e565b905061152860208301846114f1565b92915050565b7f4e487b7100000000000000000000000000000000000000000000000000000000600052602260045260246000fd5b6000600282049050600182168061157557607f821691505b602082108114156115895761158861152e565b5b50919050565b7f596f752061726520746865206f776e65722c20796f752063616e6e6f7420626960008201527f64206f6e20796f7572206974656d000000000000000000000000000000000000602082015250565b60006115eb602e83611131565b91506115f68261158f565b604082019050919050565b6000602082019050818103600083015261161a816115de565b9050919050565b7f546869732061756374696f6e206973206f766572000000000000000000000000600082015250565b6000611657601483611131565b915061166282611621565b602082019050919050565b60008190508160005260206000209050919050565b6000815461168f8161155d565b6116998186611131565b945060018216600081146116b457600181146116c6576116f9565b60ff19831686526020860193506116f9565b6116cf8561166d565b60005b838110156116f1578154818901526001820191506020810190506116d2565b808801955050505b50505092915050565b600060a082019050818103600083015261171b8161164a565b9050818103602083015261172f8187611682565b905081810360408301526117438186611682565b905061175260608301856111c9565b61175f6080830184611379565b95945050505050565b7f546869732061756374696f6e206973206f766572210000000000000000000000600082015250565b600061179e601583611131565b91506117a982611768565b602082019050919050565b600060208201905081810360008301526117cd81611791565b9050919050565b7f4e487b7100000000000000000000000000000000000000000000000000000000600052601160045260246000fd5b600061180e826111bf565b9150611819836111bf565b9250817fffffffffffffffffffffffffffffffffffffffffffffffffffffffffffffffff0483118215151615611852576118516117d4565b5b828202905092915050565b7f4269642068617320746f206265206d6f7265207468616e207374617274696e6760008201527f2070726963650000000000000000000000000000000000000000000000000000602082015250565b60006118b9602683611131565b91506118c48261185d565b604082019050919050565b600060208201905081810360008301526118e8816118ac565b9050919050565b7f4269642068617320746f206265206d6f7265207468616e20746865206869676860008201527f6573742062696400000000000000000000000000000000000000000000000000602082015250565b600061194b602783611131565b9150611956826118ef565b604082019050919050565b6000602082019050818103600083015261197a8161193e565b9050919050565b600061198c826111bf565b9150611997836111bf565b9250828210156119aa576119a96117d4565b5b828203905092915050565b7f4269642068617320746f206265206d6f7265207468616e20746865206269642060008201527f696e6372656d656e740000000000000000000000000000000000000000000000602082015250565b6000611a11602983611131565b9150611a1c826119b5565b604082019050919050565b60006020820190508181036000830152611a4081611a04565b9050919050565b6000611a52826111bf565b9150611a5d836111bf565b9250827fffffffffffffffffffffffffffffffffffffffffffffffffffffffffffffffff03821115611a9257611a916117d4565b5b828201905092915050565b6000604082019050611ab260008301856111c9565b611abf60208301846110db565b9392505050565b7f746869732061756374696f6e206973207374696c6c2072756e6e696e67000000600082015250565b6000611afc601d83611131565b9150611b0782611ac6565b602082019050919050565b60006020820190508181036000830152611b2b81611aef565b9050919050565b7f7468657265206973206e6f206269646465727300000000000000000000000000600082015250565b6000611b68601383611131565b9150611b7382611b32565b602082019050919050565b60006020820190508181036000830152611b9781611b5b565b9050919050565b7f4e487b7100000000000000000000000000000000000000000000000000000000600052603260045260246000fd5b6000611bd8826111bf565b91507fffffffffffffffffffffffffffffffffffffffffffffffffffffffffffffffff821415611c0b57611c0a6117d4565b5b600182019050919050565b7f5468652077696e6e6572206f66207468652061756374696f6e20697300000000600082015250565b6000611c4c601c83611131565b9150611c5782611c16565b602082019050919050565b60006040820190508181036000830152611c7b81611c3f565b9050611c8a60208301846114f1565b9291505056fea2646970667358221220eb8925218c2df9e5f6f21a3ed849dc99e243913fd42bdce0c6c2c5dc68dc95f964736f6c634300080b0033",
  "immutableReferences": {},
  "source": "// SPDX-License-Identifier: MIT\r\npragma solidity >=0.4.22 <=0.8.11;\r\n\r\ncontract Auction {\r\n    address payable internal auctionOwner; // Owner of the auctoin\r\n    uint256 public auctionStart; // Start epoch time\r\n    uint256 public auctionEnd; // End epoch time\r\n    bool public ended;\r\n\r\n    uint256 public oneWei = 1000000000000000000;\r\n    uint256 public highestBid; // Highest amount bid in Eth\r\n    address payable public  highestBidder; // Highest bidder\r\n\r\n    address payable recipient;\r\n\r\n    address[] bidders; // Array of bidders\r\n    mapping(address => uint256) public bids; // Mapping matching the address of bidder with their total bid\r\n\r\n    enum auctionState {STARTED, OVER, FINALISED, CANCELLED}\r\n    auctionState public STATE; // Auction state (STARTED)\r\n\r\n    struct NewAuction {\r\n        address payable owner;\r\n        string name;\r\n        string description;\r\n        uint256 startingPrice;\r\n        uint256 auctionDuration;\r\n        uint256 minIncrement;\r\n    }\r\n\r\n    NewAuction public myNewAuction;\r\n\r\n    /** \r\n        Modifiers\r\n        notOwner - Checks sender is not the owner of auction\r\n        validAuction - Checks if auction is still valid\r\n        validBid - Checks the bid is valid\r\n        withdrawWinChecks - Checks before a seller can withdraw highest bid\r\n        withdrawBidChecks - Checks before a bidder can withdraw their bid\r\n        auctionOver - Checks if auction is over\r\n\r\n    */\r\n    modifier notOwner() {\r\n        require(\r\n            msg.sender != myNewAuction.owner,\r\n            \"You are the owner, you cannot bid on your item\"\r\n        );\r\n        _;\r\n    }\r\n\r\n    modifier validAuction() {\r\n        if (block.timestamp >= auctionEnd) {\r\n            STATE = auctionState.OVER;\r\n            emit AuctionOverEvent( \"This auction is over\",  myNewAuction.name, myNewAuction.description, auctionEnd, STATE);\r\n        }\r\n        require(STATE != auctionState.OVER, \"This auction is over!\");\r\n        _;\r\n    }\r\n\r\n    modifier auctionOver() {\r\n         if (block.timestamp >= auctionEnd) {\r\n            STATE = auctionState.OVER;\r\n            emit AuctionOverEvent( \"This auction is over\",  myNewAuction.name, myNewAuction.description, auctionEnd, STATE);\r\n        }\r\n        require(block.timestamp >= auctionEnd, \"this auction is still running\");\r\n        _;\r\n    }\r\n\r\n    modifier auctionBidders() {\r\n        require(bidders.length >0, \"there is no bidders\");\r\n        _;\r\n    }\r\n\r\n    modifier validBid() {\r\n        require(\r\n            msg.value > myNewAuction.startingPrice * oneWei,\r\n            \"Bid has to be more than starting price\"\r\n        );\r\n        require(\r\n            msg.value > highestBid,\r\n            \"Bid has to be more than the highest bid\"\r\n        );\r\n        if (highestBid != 0) {\r\n            require(\r\n                (msg.value - highestBid) >= myNewAuction.minIncrement * oneWei,\r\n                \"Bid has to be more than the bid increment\"\r\n            );\r\n        } else {\r\n            require(\r\n                (msg.value - (myNewAuction.startingPrice * oneWei)) >=\r\n                    myNewAuction.minIncrement * oneWei,\r\n                \"Bid has to be more than the bid increment\"\r\n            );\r\n        }\r\n        _;\r\n    }\r\n\r\n    modifier withdrawWinChecks(){\r\n        require(block.timestamp > auctionEnd, \"This auction is not over!\"); \r\n        require(msg.sender ==  myNewAuction.owner, \"You are not the owner of the auction\"); \r\n        require(!ended, \"You have already withdrawn the highest bid.\");\r\n        _;\r\n    }\r\n\r\n    modifier withdrawBidChecks() {\r\n        require(msg.sender !=  myNewAuction.owner, \"Only bidders can perform this action\");\r\n        require(bids[msg.sender] > 0, \"There are no bids\");\r\n        _;\r\n    }\r\n\r\n    /**\r\n        Functions\r\n    */\r\n    function bid() payable public virtual returns (bool) {}\r\n    function withdrawWinnings () public virtual returns(bool) {}\r\n    function withdrawBid () public payable virtual returns(bool) {}\r\n    function getHighestBidder () public payable virtual returns (address) {}\r\n    function showSender() public virtual returns (address) {}\r\n    function returnTime() public virtual returns (uint256) {}\r\n    function returnContents() public virtual returns \r\n         (address, string memory, string memory, uint256, uint256, uint256, uint256, auctionState){}\r\n    function bidEnd() payable public virtual returns(address){}\r\n\r\n    \r\n    /**\r\n        Events\r\n    */\r\n    event CreatedEvent(string message, address payable owner, uint256 time);\r\n    event BidEvent(address indexed highestBidder, uint256 highestBid, address sender);\r\n    event AuctionDetailsEvent( string name,  string description, uint256 startingPrice, uint256 auctionDuration, \r\n                               uint256 minIncrement, uint256 auctionStart, uint256 auctionEnd, auctionState state);\r\n    event AuctionOverEvent( string message, string name, string description, uint256 auctionEnd, auctionState state);\r\n    event ProviderWithdrawsEvent(string message, uint256 highestBid, address sender);\r\n    event BidderWithdrawsEvent(string message, uint256 bid, address sender);\r\n    event HighestBidderEvent(string message, address sender);\r\n    event AuctionOver(string message, address sender);\r\n\r\n}\r\n\r\ncontract MyAuction is Auction {\r\n    constructor( address payable _owner, string memory _name, string memory _description, uint256 _startingPrice, uint256 _auctionDuration, uint256 _minIncrement) {\r\n        auctionOwner == _owner;\r\n\r\n        myNewAuction.owner = _owner;\r\n        myNewAuction.name = _name;\r\n        myNewAuction.description = _description;\r\n        myNewAuction.startingPrice = _startingPrice;\r\n        myNewAuction.auctionDuration = _auctionDuration;\r\n        myNewAuction.minIncrement = _minIncrement;\r\n\r\n        auctionStart = block.timestamp;\r\n        auctionEnd = auctionStart + (_auctionDuration * 3600);\r\n\r\n        STATE = auctionState.STARTED;\r\n        //emit CreatedEvent(\"Auction Created for: \" , auctionOwner , block.timestamp);\r\n        emit AuctionDetailsEvent(myNewAuction.name, myNewAuction.description,  myNewAuction.startingPrice, _auctionDuration,\r\n                                 myNewAuction.minIncrement, auctionStart, auctionEnd, STATE );\r\n    }\r\n\r\n    function bid() payable public override notOwner validAuction validBid returns (bool)\r\n    {\r\n        highestBidder = payable(msg.sender);\r\n        highestBid = msg.value;\r\n        bidders.push(msg.sender); // Add bidder's address to the array of participant\r\n        bids[msg.sender] = bids[msg.sender] + msg.value; // Update participant's bid in mapping bids\r\n        emit BidEvent(highestBidder, highestBid, msg.sender); // Announce new highest bid and bidder\r\n        return true; // Successful execution\r\n    }\r\n\r\n   /* function withdrawWinnings () public override withdrawWinChecks returns (bool)\r\n    {\r\n        ended = true;\r\n\r\n        recipient = myNewAuction.owner;\r\n        recipient.transfer(highestBid);\r\n\r\n        STATE = auctionState.FINALISED;\r\n        emit ProviderWithdrawsEvent(\"Provider withdraws: \", highestBid, msg.sender); // Announce winnings withdrawn\r\n        return true;\r\n    }*/\r\n\r\n    /*function withdrawBid() public payable override withdrawBidChecks returns (bool)\r\n    { \r\n        uint amount;\r\n        if (msg.sender == highestBidder){\r\n            recipient = highestBidder;\r\n            amount = bids[msg.sender] - highestBid;\r\n        }\r\n        else {\r\n            recipient = payable(msg.sender);\r\n            amount = bids[msg.sender];\r\n        }\r\n        bids[msg.sender] = 0;\r\n        payable(msg.sender).transfer(amount);\r\n        emit BidderWithdrawsEvent(\"Bidder withdraws bid: \", amount, msg.sender); // Announce bid withrawn\r\n        return true;\r\n    }*/\r\n\r\n    function getHighestBidder() public payable override returns(address)\r\n    {\r\n        emit HighestBidderEvent(\"The highest bidder and winner of the auction is\", highestBidder);\r\n        return highestBidder;     \r\n    }\r\n\r\n    function showSender() public view override returns (address) {\r\n        return (msg.sender);\r\n    }\r\n\r\n    function returnTime() public view override returns (uint256) {\r\n        return block.timestamp;\r\n    }\r\n\r\n    function returnContents() public view override\r\n        returns (address, string memory, string memory, uint256, uint256, uint256, uint256, auctionState)\r\n    {\r\n        return (myNewAuction.owner, myNewAuction.name, myNewAuction.description,  myNewAuction.startingPrice,\r\n                myNewAuction.auctionDuration, myNewAuction.minIncrement, auctionEnd, STATE );\r\n    }\r\n\r\n    function returnSenderBid(address _sender) public view returns(uint256){\r\n        return bids[_sender];\r\n    }\r\n\r\n    function endAuction() payable public auctionOver auctionBidders returns(address){\r\n        if (bidders.length> 1) {\r\n            for (uint256 i = 0; i < bidders.length - 2; i++) {\r\n                payable(bidders[i]).transfer(\r\n                    bids[bidders[i]]\r\n                );\r\n            }\r\n        }\r\n        if (bidders.length > 0) {\r\n            auctionOwner.transfer(\r\n                highestBid\r\n            );\r\n        }\r\n        emit AuctionOver(\"The winner of the auction is\", highestBidder);\r\n        return highestBidder;\r\n    }\r\n\r\n}\r\n",
  "sourcePath": "D:\\webdev projects\\flexibility\\ethereum-auction-app\\contracts\\Auction.sol",
  "compiler": {
    "name": "solc",
    "version": "0.8.11+commit.d7f03943.Emscripten.clang"
  },
  "schemaVersion": "3.4.4",
  "updatedAt": "2022-04-05T12:21:18.840Z",
  "networkType": "ethereum",
  "devdoc": {
    "kind": "dev",
    "methods": {},
    "version": 1
  },
  "userdoc": {
    "events": {
      "CreatedEvent(string,address,uint256)": {
        "notice": "Events"
      }
    },
    "kind": "user",
    "methods": {
      "bid()": {
        "notice": "Functions"
      }
    },
    "version": 1
  }
}